:100000000C9435000C945D000C945D000C945D0024
:100010000C945D000C945D000C945D000C945D00EC
:100020000C945D000C945D000C945D000C945D00DC
:100030000C945D000C94110D0C945D000C945D000B
:100040000C948E140C945D000C94BC130C94EE1361
:100050000C945D000C945D000C945D000C945D00AC
:100060000C945D000C945D001E1411241FBECFEF94
:10007000D8E0DEBFCDBF11E0A0E0B1E0EAE2F3E3FB
:1000800002C005900D92AA35B107D9F722E0AAE582
:10009000B1E001C01D92A932B207E1F710E0C5E35B
:1000A000D0E004C02197FE010E94BB15C433D107E4
:1000B000C9F70E94AD130C9493190C940000EF92B1
:1000C000FF920F931F93CF93DF93CDB7DEB768975F
:1000D0000FB6F894DEBF0FBECDBFCE0101960E94D1
:1000E000F20084E090E00E946F147C0160E070E018
:1000F0000E947B05F0925F01E0925E0186E090E055
:100100000E946F14FC0187E391E091838083158244
:10011000148213821282F0935D01E0935C018CE003
:1001200090E00E946F147C0140E650E068E770E0C8
:100130000E949907F0926101E092600182E190E0F3
:100140000E946F147C0100915C0110915D0120916F
:100150005E0130915F016091600170916101AE01BB
:100160004F5F5F4F0E948B05F0926301E092620146
:100170008091600190916101069690935B0180935C
:100180005A0126E040E855E260E070E08FE791E038
:100190000E94471380916201909163010E942107A0
:1001A00068960FB6F894DEBF0FBECDBFDF91CF913A
:1001B0001F910F91FF90EF90089561E070E08091A2
:1001C0005A0190915B010E94E60160E080915A0122
:1001D00090915B010E94AD01809162019091630159
:1001E0000C94A006FC0180E090E0A0E0B0E48083E5
:1001F0009183A283B38380E090E0A8ECB1E4848390
:100200009583A683B78380E090E0A0E4B0E4808784
:100210009187A287B38780E090E0A0EFB2E4848763
:100220009587A687B78780E090E0A0ECB2E4808B4A
:10023000918BA28BB38B80E090E0A0E7B2E4848B3B
:10024000958BA68BB78B089520917601982F969564
:1002500096959695E0917B01F0917C018770629F65
:10026000B0011124690F711DE60FF71F413061F4D1
:1002700020E830E0A90102C0559547958A95E2F73C
:10028000CA019081892B19C041110CC02FE73FEFA3
:10029000A90102C0559547958A95E2F7CA01908158
:1002A00089230BC020E830E0A90102C0559547958D
:1002B0008A95E2F7CA019081892780830895FC011D
:1002C0001282138280E090E02091760130917501D6
:1002D000239F90011124821793074CF4E0917B0136
:1002E000F0917C01E80FF91F10820196EDCF08957F
:1002F000EF92FF921F93CF93DF9300D0CDB7DEB77D
:100300007C01162F642F862F887FE1F06695669515
:100310006695629FC00111242A8369830E940E188A
:10032000F701918380834A816981009769F0128285
:1003300013829C01812F0E94570CC7010E945F010C
:1003400080E003C081E001C084E00F900F90DF9156
:10035000CF911F91FF90EF900895613041F028F008
:10036000623099F580E090E01BC00C945F01FC01C5
:100370001282138280E090E04FEF2091760130915D
:100380007501239F9001112482179307F4F4E091E3
:100390007B01F0917C01E80FF91F40830196EDCFBE
:1003A0002091760130917501239F900111248217CD
:1003B00093075CF4E0917B01F0917C01E80FF91F59
:1003C0002081209520830196EBCF0895209178011C
:1003D000022E000C330B2F5F3F4F40917501429F5F
:1003E000C001439F900D112420917201820F911D35
:1003F00001966115710589F020916C0130916D01B4
:1004000082179307C9F720916C0130916D01821713
:100410009307C9F361507109ECCF0895862F642FBB
:10042000E0917601482F50E098E0E99FF001112417
:100430004E175F073CF490917501691718F4422F2D
:100440000C9424010895EF92FF920F93CF93DF93C2
:10045000EC01FA01D9014217530751F4202F462F1E
:100460006E2FDF91CF910F91FF90EF900C940E02C1
:100470002417350720F4CA019927F901DC01CF01BF
:10048000877099272FEF30E0790102C0F594E79447
:100490008A95E2F79E2D83E0F695E7958A95E1F738
:1004A00040917601469FA0011124E40FF51FBD0184
:1004B0006770772702C0359527956A95E2F7322F46
:1004C000309523E0B695A7952A95E1F74A0F5B1F73
:1004D000E417F50719F4932F9E2130E00130D1F491
:1004E000DF01119668817981E60FF71F8081982BD3
:1004F00090832FEF88819981A417B50730F4FC0110
:10050000EA0FFB1F20831196F5CFA80FB91F8C911E
:10051000382B39C001111BC0DF0111966881798128
:10052000E60FF71F909580819823908388819981A9
:10053000A417B50730F4FC01EA0FFB1F10821196D7
:10054000F5CFA80FB91F30958C9138231CC002300D
:10055000D9F4DF01119668817981E60FF71F808158
:100560009827908388819981A417B50740F4FC01EE
:10057000EA0FFB1F8081809580831196F3CFA80F2F
:10058000B91F8C9138273C93DF91CF910F91FF9049
:10059000EF900895EF92FF920F93CF93DF9342175E
:1005A000530741F4202FDF91CF910F91FF90EF90EF
:1005B0000C940E022417350720F4FA01FF27A90135
:1005C0009F01762F7770E0E8F0E002C0F595E7959F
:1005D0007A95E2F7BE2F70917601749FE001759FC6
:1005E000D00D11246695669566957E01E60EF11C88
:1005F000B701013091F424173507C0F1EC01E8810F
:10060000F981E60FF71FA081AB2BA083E091760163
:100610006E0F711D4F5F5F4FEECF011113C0E0955C
:100620002417350718F1EC01A881B981A60FB71F6F
:10063000FC91FE23FC93F09176016F0F711D4F5FCB
:100640005F4FEECF023091F42417350778F0EC01BC
:10065000E881F981E60FF71FA081AB27A083E09125
:1006600076016E0F711D4F5F5F4FEECFDF91CF911F
:100670000F91FF90EF9008952F923F924F925F92CB
:100680006F927F928F929F92AF92BF92CF92DF92A2
:10069000EF92FF920F931F93CF93DF9300D000D080
:1006A000CDB7DEB7FC01942F302F0E2DA62EB12C26
:1006B0004091760188E0489FA00111244A155B050E
:1006C0000CF484C080917501891708F47FC0A22FB3
:1006D000B0E04A175B070CF479C0831708F476C0C2
:1006E000621308C0232F30E0492F50E0CF010E9451
:1006F000CA026CC0931307C09D01A501692FCF01E9
:100700000E94230263C0892E912C261738F4A5017C
:100710004A1B5B0B5C834B838FEF06C0AD014A190C
:100720005B095C834B8381E0C32ED12C391730F4F5
:1007300094012C193D0969019FEF03C0C818D9081D
:1007400091E02B813C812C153D0544F43B812C81AB
:10075000DC82CB82C32ED22E11E001C010E0CC0C83
:10076000DD1C26012B813C81421A530A220F331FC4
:10077000E12CF12C292E990F3308682E880F770869
:100780004B815C814E155F050CF1402F682D8A2D41
:1007900029833A830E94240129813A8157FC09C0A8
:1007A000113019F4A60CB71C02C0820C931C421A1B
:1007B000530A113019F4820C931C02C0A60CB71C0A
:1007C0004C0C5D1C5FEFE51AF50ADACF0F900F9025
:1007D0000F900F90DF91CF911F910F91FF90EF90AD
:1007E000DF90CF90BF90AF909F908F907F906F9051
:1007F0005F904F903F902F9008954F925F926F922D
:100800007F928F929F92AF92BF92CF92DF92EF92A0
:10081000FF920F931F93CF93DF935C01D62E142F7B
:10082000D22FC02F5E2C8FEFC816C1F0442EE02EC1
:10083000F12CE40EF11C862E912C3401620E711CF9
:10084000842D90E08E159F054CF40C2D9301A4018E
:10085000642DC5010E9423024394F2CFDD0DE52CE7
:10086000012F2D2F412F6D2DC5010E943C03C10F7B
:100870000C2F2D2D412F6D2DC5010E943C032D2FD6
:10088000412F6D2FC5010E943C032D2F4C2F6D2D44
:10089000C5010E943C03DF91CF911F910F91FF9002
:1008A000EF90DF90CF90BF90AF909F908F907F9010
:1008B0006F905F904F9008952F923F924F925F926A
:1008C0006F927F928F929F92AF92BF92CF92DF9260
:1008D000EF92FF920F931F93CF93DF93CDB7DEB7C5
:1008E00029970FB6F894DEBF0FBECDBF5C01562E20
:1008F000F42E922E102F30E03987288781E090E087
:100900001C01221A330AC901919581959109FC01B4
:10091000EE0FFF1FFE83ED83FFEFEF1669F0462F0A
:1009200050E0240F351F88859985481B590B0E2DE3
:100930006F2DC5010E942302412F692D6F0D852D5A
:100940000E942401412F6F2D6919852D0E942401D9
:10095000412F6F2D892D850D0E942401412F6F2D70
:10096000852D89190E942401CC24C394D12C1C828A
:10097000E52DF0E0FA83E983C601019728853985E2
:10098000821793070CF098C037FC0BC02150310937
:10099000398728878D819E8102969E838D83280EBC
:1009A000391EC601880F991F0196280E391E988599
:1009B0009F0D9B83EF2DF885EF1BEF834F2C4C0C85
:1009C0002FEFE21609F441C0892D90E0E885F98502
:1009D000E817F907A9F00E2D69807A806C0C7D1C50
:1009E000930189809A808C189D08A4016B81C501B0
:1009F0000E9423029301A4016F81C5010E9423027A
:100A0000FC818F2F90E0C816D906E9F0288539853A
:100A10002C153D05C1F00E2D89809A80820E931E03
:100A2000940169807A8088859985681A790AA3017A
:100A3000642DC5010E9423029401A3016F2D6C193E
:100A4000C5010E9423029884CC82752C7C0C412F16
:100A50006B81872D0E942401852C8C18412F6B817E
:100A6000882D0E942401412F6F81872D0E9424012F
:100A7000412F6F81882D0E942401412F642D78849D
:100A8000750C872D0E942401412F642D852C98859B
:100A9000891A882D0E9424016F2C6C18412F662D15
:100AA000872D0E942401412F662D882D0E9424014C
:100AB000EFEFCE1ADE0A60CF29960FB6F894DEBFAC
:100AC0000FBECDBFDF91CF911F910F91FF90EF909F
:100AD000DF90CF90BF90AF909F908F907F906F905E
:100AE0005F904F903F902F900895FC0182810E946B
:100AF0007114925008952BE131E0FC013183208381
:100B000073836283089560E876E988E990E00E9443
:100B10004B14CB0108954F925F926F927F928F9208
:100B20009F92AF92BF92CF92DF92EF92FF920F937C
:100B30001F93CF93DF93EC014A0159013801798764
:100B400068871F861E86198A188A82E090E00E94B4
:100B50006F149D878C8788E090E00E946F148C0151
:100B600020E030E040E251E4F4016089718982893B
:100B700093890E94D0150E94B4166B017C0120E07D
:100B800030E040E251E4F4016485758586859785FF
:100B90000E94D0150E94B41621E030E0A601C801E1
:100BA0000E945212198308838BE190E00E946F1417
:100BB0002C01C880D980F401E480F580068117817A
:100BC000208531854285538560E00E94210E5D823B
:100BD0004C828BE190E00E946F142C01C880D98078
:100BE000F401E480F58006811781208531854285F6
:100BF0005385530161E00E94210E5F824E828EE197
:100C000090E00E946F145C01CC84DD84EE80FF8054
:100C10000C811D8128813981F401408151816281DB
:100C200073810E94D611BB82AA828CE090E00E9460
:100C30006F148C01F40164897589868997890E94F3
:100C4000B416C8010E94940E1B870A878091100178
:100C500090911101EC85FD8591838083DF91CF9187
:100C60001F910F91FF90EF90DF90CF90BF90AF90CA
:100C70009F908F907F906F905F904F900895CF934B
:100C8000DF93EC018E859F85680F791F7F876E87C4
:100C900088899989480F591F598B488B40E050E04B
:100CA000BA018C819D810E948B0E40E050E0BA0118
:100CB0008E819F810E948B0E888199810E945E1295
:100CC00097FD0196BC0175956795072E000C880B62
:100CD000990B0E94EC16AB01BC018A819B810E949A
:100CE000590F888199810E94621297FD0196BC017B
:100CF00075956795072E000C880B990B0E94EC16D2
:100D0000AB01BC018A819B810E945F0F40E050E0F3
:100D100060E87FEB8A819B810E944D0F40E050E0AC
:100D2000BA018A819B810E94530F80910E0190919C
:100D30000F01EC85FD8591838083DF91CF9108952C
:100D4000CF93DF93EC01EC85FD858081918120912B
:100D50001401309115018217930729F440E050E007
:100D600061E070E00BC020911201309113018217F5
:100D7000930739F441E050E060E070E0CE010E945A
:100D80003F068A859B850E94CB0E882309F456C0B6
:100D900088819981DC01ED91FC910190F081E02D39
:100DA000099588819981DC01ED91FC9168857985AF
:100DB0000280F381E02D09958C819D81DC01ED910C
:100DC000FC910190F081E02D09958E819F81DC01DD
:100DD000ED91FC910190F081E02D09958A819B8134
:100DE000DC01ED91FC910190F081E02D09958C8161
:100DF0009D81DC01ED91FC91688579850280F3810C
:100E0000E02D09958E819F81DC01ED91FC91688533
:100E100079850280F381E02D09958A819B81DC012F
:100E2000ED91FC91688579850280F381E02D09952B
:100E30008A859B85DF91CF910C94CA0EDF91CF916B
:100E4000089520910E0130910F01DC011C96ED9167
:100E5000FC911D97318320830895FC018281938149
:100E60000895FC0184819581089560E006960C94B4
:100E7000AD018F929F92AF92BF92CF92DF92EF928D
:100E80000F93CF93DF93EC015B014A016901E88185
:100E9000F9810680F781E02D099595012C0D3D1D06
:100EA0002817390744F5E881F9810084F185E02DA0
:100EB000CE0109959601280D391D28173907DCF454
:100EC000C5018C199D0918161906ACF4C4018C19BA
:100ED0009D09181619067CF4CE010696EE2019F02D
:100EE00022E0E22E02C0EE24EA9401E02C2D482DEF
:100EF0006A2D0E945C04DF91CF910F91EF90DF90FB
:100F0000CF90BF90AF909F908F900895CF92EF9227
:100F10000F930696CC2019F032E0C32E02C0CC24E9
:100F2000CA94EE24E3940E94FD030F91EF90CF90BA
:100F30000895FC01242F81E291E0918380836283F4
:100F4000738344835583462F61E0CF0106960C944A
:100F50007801089520916C0130916D0180917201AA
:100F600090E02817390779F410927E0110927D01E4
:100F700080917801809379018FE598E090936901E1
:100F80008093680116C020916C0130916D018091B1
:100F90007301909174012817390759F483EE97E093
:100FA0009093690180936801E0910A01F0910B012F
:100FB000099580916C0190916D01019690936D015E
:100FC00080936C01089520916C0130916D018091A6
:100FD000730190917401281739070CF44EC08CEA04
:100FE00093E0909389008093880010926D01109295
:100FF0006C0180916E0190916F01A0917001B09190
:1010000071010196A11DB11D80936E0190936F0136
:10101000A0937001B093710180916401909165017A
:10102000A0916601B0916701892B8A2B8B2B09F166
:101030008091640190916501A0916601B091670172
:10104000181619061A061B0684F580916401909102
:101050006501A0916601B09167010197A109B109ED
:101060008093640190936501A0936601B09367013A
:101070001CC01092B1002B9818C020916C013091C7
:101080006D0180917A01082E000C990B2817390701
:1010900061F48AE490E090938900809388008AEA62
:1010A00097E0909369018093680180916C01909121
:1010B0006D01019690936D0180936C0108953091BC
:1010C0008400209177012A50231B2350F0F72D5FD5
:1010D00019F02A9511F001C00000E0916A01F09129
:1010E0006B010995909179018091780191110FC060
:1010F000809379019091760120917D0130917E015C
:10110000290F311D30937E0120937D0103C0915042
:101110009093790140916C0150916D014F5F5F4F49
:10112000082E000C990B019660917501689F900143
:10113000699F300D112480917201B901680F711DF2
:101140004617570731F48AEA97E090936901809334
:10115000680180916C0190916D01019690936D01F1
:1011600080936C0108950F93CF93DF93ECE6F1E049
:10117000A785B089C0917D01D0917E018285AC0F99
:10118000BD1F0BB10F7703C000FA07F90BB90D9023
:10119000000007FA07F90BB900000000000006FA8A
:1011A00007F90BB900000000000005FA07F90BB9B8
:1011B00000000000000004FA07F90BB9000000006D
:1011C000000003FA07F90BB900000000000002FA62
:1011D00007F90BB900000000000001FA07F90BB98C
:1011E0008A9591F60000000000FA07F90BB90BB1DF
:1011F0000F7707FB07F90BB9DF91CF910F91089596
:101200000F93CF93DF93ECE6F1E0A785B089C0910F
:101210007D01D0917E018285AC0FBD1F0BB10F7790
:1012200003C000FA07F90BB90D9007FA07F90BB9DB
:101230000000000006FA07F90BB90000000005FAEB
:1012400007F90BB90000000004FA07F90BB9000018
:10125000000003FA07F90BB90000000002FA07F9D1
:101260000BB900008A9501FA07F90BB9D1F6000015
:1012700000FA07F90BB90BB10F7707FB07F90BB9A8
:10128000DF91CF910F9108950F93CF93DF93ECE609
:10129000F1E0A785B089C0917D01D0917E01828562
:1012A000AC0FBD1F02C0000C0BB80D9000000BB8B6
:1012B00000000000000C0BB800000000000C0BB890
:1012C00000000000000C0BB800000000000C0BB880
:1012D00000000000000C0BB80000000C8A950BB851
:1012E00011F70000000C0BB80000000000005F9830
:1012F000DF91CF910F9108950F93CF93DF93ECE699
:10130000F1E0A785B089C0917D01D0917E018285F1
:10131000AC0FBD1F8E3191F08D3151F08C3149F001
:101320008B3141F08A3139F0893131F0883129F03F
:101330001CC032C048C05EC074C08AC00D900BB8DB
:101340000000000C0BB80000000C0BB80000000CF3
:101350000BB80000000C0BB80000000C0BB800002C
:10136000000C0BB80000000C0BB80D900BB800007F
:10137000000C0BB80000000C0BB80000000C0BB800
:101380000000000C0BB80000000C0BB80000000CB3
:101390000BB80000000C0BB80D900BB80000000C4F
:1013A0000BB80000000C0BB80000000C0BB80000DC
:1013B000000C0BB80000000C0BB80000000C0BB8C0
:1013C0000000000C0BB80D900BB80000000C0BB81F
:1013D0000000000C0BB80000000C0BB80000000C63
:1013E0000BB80000000C0BB80000000C0BB800009C
:1013F000000C0BB80D900BB80000000C0BB80000EF
:10140000000C0BB80000000C0BB80000000C0BB86F
:101410000000000C0BB80000000C0BB80000000C22
:101420000BB80D900BB80000000C0BB80000000CBE
:101430000BB80000000C0BB80000000C0BB800004B
:10144000000C0BB80000000C0BB80000000C0BB82F
:101450000D900BB80000000C0BB80000000C0BB88E
:101460000000000C0BB80000000C0BB80000000CD2
:101470000BB80000000C0BB80000000C0BB80D906E
:101480000BB80000000C0BB80000000C0BB80000FB
:10149000000C0BB80000000C0BB80000000C0BB8DF
:1014A0000000000C0BB80000000C0BB80D900BB83E
:1014B0000000000C0BB80000000C0BB80000000C82
:1014C0000BB80000000C0BB80000000C0BB80000BB
:1014D000000C0BB80000000C0BB80D900BB800000E
:1014E000000C0BB80000000C0BB80000000C0BB88F
:1014F0000000000C0BB80000000C0BB80000000C42
:101500000BB80000000C0BB80D900BB80000000CDD
:101510000BB80000000C0BB80000000C0BB800006A
:10152000000C0BB80000000C0BB80000000C0BB84E
:101530000000000C0BB80D900BB80000000C0BB8AD
:101540000000000C0BB80000000C0BB80000000CF1
:101550000BB80000000C0BB80000000C0BB800002A
:10156000000C0BB80D900BB80000000C0BB800007D
:10157000000C0BB80000000C0BB80000000C0BB8FE
:101580000000000C0BB80000000C0BB80000000CB1
:101590000BB80D900BB80000000C0BB80000000C4D
:1015A0000BB80000000C0BB80000000C0BB80000DA
:1015B000000C0BB80000000C0BB80000000C0BB8BE
:1015C0000D900BB80000000C0BB80000000C0BB81D
:1015D0000000000C0BB80000000C0BB80000000C61
:1015E0000BB80000000C0BB80000000C0BB80D90FD
:1015F0000BB80000000C0BB80000000C0BB800008A
:10160000000C0BB80000000C0BB80000000C0BB86D
:101610000000000C0BB80000000C0BB80D900BB8CC
:101620000000000C0BB80000000C0BB80000000C10
:101630000BB80000000C0BB80000000C0BB8000049
:10164000000C0BB80000000C0BB80D900BB800009C
:10165000000C0BB80000000C0BB80000000C0BB81D
:101660000000000C0BB80000000C0BB80000000CD0
:101670000BB80000000C0BB80D900BB80000000C6C
:101680000BB80000000C0BB80000000C0BB80000F9
:10169000000C0BB80000000C0BB80000000C0BB8DD
:1016A0000000000C0BB80D900BB80000000C0BB83C
:1016B0000000000C0BB80000000C0BB80000000C80
:1016C0000BB80000000C0BB80000000C0BB80000B9
:1016D000000C0BB80D900BB80000000C0BB800000C
:1016E000000C0BB80000000C0BB80000000C0BB88D
:1016F0000000000C0BB80000000C0BB80000000C40
:101700000BB80D900BB80000000C0BB80000000CDB
:101710000BB80000000C0BB80000000C0BB8000068
:10172000000C0BB80000000C0BB80000000C0BB84C
:101730000D900BB80000000C0BB80000000C0BB8AB
:101740000000000C0BB80000000C0BB80000000CEF
:101750000BB80000000C0BB80000000C0BB80D908B
:101760000BB80000000C0BB80000000C0BB8000018
:10177000000C0BB80000000C0BB80000000C0BB8FC
:101780000000000C0BB80000000C0BB80D900BB85B
:101790000000000C0BB80000000C0BB80000000C9F
:1017A0000BB80000000C0BB80000000C0BB80000D8
:1017B000000C0BB80000000C0BB80D900BB800002B
:1017C000000C0BB80000000C0BB80000000C0BB8AC
:1017D0000000000C0BB80000000C0BB80000000C5F
:1017E0000BB80000000C0BB80D900BB80000000CFB
:1017F0000BB80000000C0BB80000000C0BB8000088
:10180000000C0BB80000000C0BB80000000C0BB86B
:101810000000000C0BB80D900BB80000000C0BB8CA
:101820000000000C0BB80000000C0BB80000000C0E
:101830000BB80000000C0BB80000000C0BB8000047
:10184000000C0BB80D900BB80000000C0BB800009A
:10185000000C0BB80000000C0BB80000000C0BB81B
:101860000000000C0BB80000000C0BB80000000CCE
:101870000BB80D900BB80000000C0BB80000000C6A
:101880000BB80000000C0BB80000000C0BB80000F7
:10189000000C0BB80000000C0BB80000000C0BB8DB
:1018A000000000005F98DF91CF910F910895CF93D2
:1018B000DF93D82FE62F30937C0120937B01609338
:1018C00076014093750110926E0110926F01109293
:1018D000700110927101642F70E0882319F084E088
:1018E00091E002C088ED90E00E944715615060933E
:1018F0007801C0917801C093790188E0E89F900158
:101900001124032E000C440B550B60EE72E080E0B6
:1019100090E00E947D15243061F018F4233089F0A6
:101920000BC0253019F0263049F006C080E099E060
:101930000AC084E499E007C0273018F083EB98E0F0
:1019400002C08CE799E090936B0180936A01579AEB
:10195000219A5F98299A239A82EC8093800089E1EA
:1019600080938100409175012C2FCC0F330B2F5F9A
:101970003F4F429FC001439F900D1124DD23C9F0CA
:1019800097FD019695958795919581959109845636
:101990008093720187EC8093770187E080937A01CE
:1019A00088E391E090937401809373018FEF93E04B
:1019B00018C097FD01969595879591958195910908
:1019C0008557809372018FEB8093770183E080933A
:1019D0007A0186E091E0909374018093730187EF20
:1019E00093E090938700809386008AE490E0909340
:1019F0008900809388008091730190917401019611
:101A000090936D0180936C0183EE97E09093690150
:101A10008093680181E080936F007894DF91CF918B
:101A200008951F920F920FB60F9211242F933F9398
:101A30004F935F936F937F938F939F93AF93BF93D6
:101A4000EF93FF93E0910C01F0910D010995E09166
:101A50006801F09169010995FF91EF91BF91AF91F4
:101A60009F918F917F916F915F914F913F912F91B6
:101A70000F900FBE0F901F9018952F923F924F928C
:101A80005F926F927F928F929F92AF92BF92CF920E
:101A9000EF92FF920F931F93CF93DF9300D000D06C
:101AA000CDB7DEB77C011B01DB010D911C91FC0160
:101AB00067817085818592850E94B4164B015C0117
:101AC000D70113966D917D918D919C9116970E94EF
:101AD000B4169B01AC01F7016785708981899289F1
:101AE00029833A834B835C830E94B4162B013C010B
:101AF000D70153966D917D918D919C9156970E943F
:101B0000B416D801ED91FC91CC24C394E12CF12CB6
:101B1000840129813A81A201C10109950F900F909A
:101B20000F900F90DF91CF911F910F91FF90EF9049
:101B3000CF90BF90AF909F908F907F906F905F906D
:101B40004F903F902F900895CF92DF92EF92FF92A7
:101B5000CF93DF93EC01898D9A8DDC01ED91FC919F
:101B60000190F081E02D0995BC01990F880B990B2C
:101B70000E94EC1620E030E048EC53E40E9442164C
:101B80006B877C878D879E872F85388949895A89FD
:101B90000E94D1156F87788B898B9A8B2F8138851E
:101BA00049855A850E94D1156B017C018F89988DDA
:101BB0000E946212BC01990F880B990B0E94EC16CF
:101BC0009B01AC01C701B6010E949C171816FCF4DA
:101BD0001B861C861D861E868F89988D0E94621228
:101BE000BC01990F880B990B0E94EC162F81388548
:101BF00049855A850E94D01520E030E040E85FE337
:101C00000E94D0156F87788B898B9A8B13C020E048
:101C100030E0A9016F85788989899A890E943D16EB
:101C200087FF08C080E090E0A0E8BFE38F87988B33
:101C3000A98BBA8BDF91CF91FF90EF90DF90CF907F
:101C40000895AF92BF92CF92DF92EF92FF920F93DF
:101C50001F93CF93DF93EC01C601EFE2F1E0F9832C
:101C6000E8836A832B833C834D835E83EF82F8860F
:101C700009871A871B861C861D861E8600E010E0D9
:101C800020E83FE30F87188B298B3A8BD88ECF8AB9
:101C9000BA8EA98E662379F00E945E12BC01990F5C
:101CA000880B990B0E94EC162B813C814D815E8143
:101CB0000E94D01503C060E070E0CB016B8B7C8B81
:101CC0008D8B9E8BDF91CF911F910F91FF90EF90A5
:101CD000DF90CF90BF90AF900895FC01638574852D
:101CE000858596850895FC0163817481858196813F
:101CF0000895FC0167817085818592850895FC01B6
:101D000067857089818992890895FC016389748946
:101D1000858996890895FC014787508B618B728B6A
:101D20000895FC01828108950F931F93CF93DF9351
:101D300000D000D0CDB7DEB78C019B01770F440BEC
:101D4000550BCA01B90129833A834B835C830E94F6
:101D5000EC16F80160837183828393831482158269
:101D60001682178260E472E48FE090E029813A8164
:101D70004B815C810E947D15F80120873187428765
:101D800053870F900F900F900F90DF91CF911F917D
:101D90000F910895089581E00895CF93DF93EC01AA
:101DA0000E94D81428EE33E0629FA001639F500D7B
:101DB000729F500D11242A813B81CA01821B930B13
:101DC00004979CF05B834A830E94830560E072E085
:101DD0000E9447152C813D81821B930B60E074E0CB
:101DE0000E94471592509D838C838C819D81DF9149
:101DF000CF9108958F929F92AF92BF92CF92DF9230
:101E0000EF92FF920F931F93CF93DF9300D000D0F8
:101E1000CDB7DEB77C016B01DB010D911C91FC019C
:101E200062817381848195810E94B4169B01AC010B
:101E3000D70152966D917D918D919C9155972983F3
:101E40003A834B835C830E94B4164B015C01F7011B
:101E500066857785808991890E94B416D80112968B
:101E6000ED91FC911397EE24E39400E010E02981BA
:101E70003A81A401C60109950F900F900F900F9021
:101E8000DF91CF911F910F91FF90EF90DF90CF9056
:101E9000BF90AF909F908F900895FC014683578329
:101EA000608771870895FC0142875387648775872F
:101EB0000895FC0146875787608B718B0895FC015C
:101EC000428B538B648B758B08952F923F924F9268
:101ED0005F926F927F928F929F92AF92BF92CF92BA
:101EE000DF92EF92FF920F931F93CF93DF93CDB7C3
:101EF000DEB728970FB6F894DEBF0FBECDBF9A832A
:101F000089838B01DC011E96CD90DD90ED90FC90D5
:101F1000519712968D909D90AD90BC901597A5010C
:101F20009401C701B6010E94D1156D837E838F8312
:101F30009887C8010E945E121C01E981FA814288DB
:101F400053886488758882819381A481B58189834F
:101F50009A83AB83BC83A5019401C701B6010E949B
:101F6000D01520E030E0A9010E943D16B82EBB1C20
:101F7000BB24BB1C29813A814B815C81C301B20126
:101F80000E94D01520E030E0A9010E943D16881F74
:101F90008827881FB82AB101330C880B990B0E943F
:101FA000EC169B01AC01FF24F3946D817E818F813F
:101FB00098850E949C1718160CF0F12CBF282981D7
:101FC0003A814B815C81C301B2010E94D1156B0142
:101FD0007C01C8010E946212BC01990F880B990B09
:101FE0000E94EC169B01AC0111E0C701B6010E94F2
:101FF0009C1718160CF010E0812F8B2928960FB62D
:10200000F894DEBF0FBECDBFDF91CF911F910F912E
:10201000FF90EF90DF90CF90BF90AF909F908F9008
:102020007F906F905F904F903F902F9008958F9288
:102030009F92AF92BF92EF92FF920F931F93CF9315
:102040007C018B01CB010E94910E81115CC0C80103
:102050000E94850E4B015C01C8010E94730E9B011A
:10206000AC01C501B4010E94D1154B015C01F7011F
:102070002281338144815581668577858089918964
:102080000E94D0159B01AC01C1E0C501B4010E94C2
:102090009C1718160CF0C0E080E0C82BF70182886E
:1020A0009388A488B588C8010E947F0E9B01AC016B
:1020B000C501B4010E949C171816C4F4C8010E94FF
:1020C0007F0E4B015C01C8010E94790E9B01AC019F
:1020D000C501B4010E94D11511E0F70122893389AD
:1020E000448955890E949C1718160CF010E0812F26
:1020F0008C23CF911F910F91FF90EF90BF90AF90E5
:102100009F908F900895C8010E94850E4B015C013D
:10211000F7012281338144815581668577858089E5
:1021200091890E94D1159B01AC01C501B4010E94A7
:102130003D16881F8827881FC0E0AFCFCF92DF925F
:10214000EF92FF92CF93DF93EC01CB014E815F8141
:102150006885798570584E835F83688779870E9488
:102160006D0E20E030E040E85EE30E94A1172A8572
:102170003B854C855D850E94D1156B017C0120E07B
:1021800030E040EA50E40E949C1718162CF0CA86F2
:10219000DB86EC86FD8608C080E090E0A0EAB0E433
:1021A0008A879B87AC87BD87DF91CF91FF90EF90A7
:1021B000DF90CF9008958F929F92AF92BF92CF926F
:1021C000DF92EF92FF920F931F93CF93DF93EC0177
:1021D0008B018A889B88AC88BD88CA80DB80EC80B4
:1021E000FD80A7019601C501B4010E94D01520E031
:1021F00030E0A9010E943D1687FF10C02A853B856B
:102200004C855D85DA01C901B0588A879B87AC8708
:10221000BD87C701B6010E94D01537C0A70196013E
:10222000C501B4010E94D1156B017C01C8010E9457
:102230006212BC01990F880B990B0E94EC169B014E
:10224000AC01C701B6010E949C1718161CF58A85BF
:102250009B85AC85BD85B0588A879B87AC87BD8739
:10226000C8010E946212BC01990F880B990B0E9451
:10227000EC162A813B814C815D810E94D0152A8514
:102280003B854C855D850E94D1156A8B7B8B8C8B41
:102290009D8B3BC0CE84DF84E888F9888A809B8050
:1022A000AC80BD80A5019401C701B6010E94D01584
:1022B00020E030E0A9010E943D1687FF05C0809113
:1022C0001401909115011DC0A5019401C701B6012B
:1022D0000E94D1156B017C01C8010E945E12BC01F5
:1022E000990F880B990B0E94EC169B01AC01C7015A
:1022F000B6010E949C17181644F480911201909127
:102300001301EC8DFD8D91838083DF91CF911F911F
:102310000F91FF90EF90DF90CF90BF90AF909F9084
:102320008F900895CF93DF93EC01688D798D0E9493
:102330001710882319F0688D798D09C06A8D7B8DFF
:10234000CE010E941710882331F06A8D7B8DCE015B
:102350000E949E100CC06E897F89CE010E94650F7D
:10236000882329F06E897F89CE010E94DB102E819F
:102370003F81488559856E857F85888999890E9426
:10238000D1156E877F87888B998B2A853B854C85F5
:102390005D856A897B898C899D890E94D1156A8BAC
:1023A0007B8B8C8B9D8BDF91CF910895AF92BF92E9
:1023B000CF92DF92EF92FF920F931F93CF93DF9311
:1023C000EC0159018DE391E0998388834A835B8313
:1023D0006C837D8380E090E0A0E8BFEB8E839F83D9
:1023E000A887B9871A861B861C861D86C9010E948C
:1023F0005E1297FD0196BC0175956795072E000C3E
:10240000880B990B0E94EC166E877F87888B998BBF
:10241000C5010E94621297FD0196BC0175956795F2
:10242000072E000C880B990B0E94EC166A8B7B8B95
:102430008C8B9D8BBF8AAE8A198F088FFB8EEA8E9C
:10244000DD8ECC8EDF91CF911F910F91FF90EF9099
:10245000DF90CF90BF90AF9008950895CF92EF9204
:10246000FF920F931F93CF93DF93DB01ED91FC91CC
:102470001197EC010C811D812A813B810190F08133
:10248000E02DC12CE12CF12C41E050E061E070E046
:10249000CD010995DF91CF911F910F91FF90EF90A2
:1024A000CF900895FC0185E491E09183808373834C
:1024B000628355834483378326830895FC01828198
:1024C00093810895FC01848195810895FC01918D8B
:1024D000228D892F90E0805C9F4F821B91098F7322
:1024E00099270895FC01918D828D981731F0828D86
:1024F000E80FF11D858D90E008958FEF9FEF08950F
:10250000FC01918D828D981761F0828DDF01A80FFB
:10251000B11D5D968C91928D9F5F9F73928F90E01D
:1025200008958FEF9FEF089584E194E1892B49F09E
:1025300080E090E0892B29F00E94141481110C9402
:1025400000000895FC01848DDF01A80FB11DA35A7E
:10255000BF4F2C91848D90E001968F739927848FC3
:10256000A689B7892C93A089B1898C9180648C93BA
:10257000938D848D981306C00288F389E02D8081A5
:102580008F7D80830895CF92DF92FF920F931F93E8
:10259000CF93DF931F92CDB7DEB76C0181E0D601F8
:1025A00058968C9358975B969C915B975C968C9110
:1025B0005C97981307C05096ED91FC9151978081DC
:1025C00085FD2BC0D6015B960C9110E00F5F1F4F6D
:1025D0000F731127F02EF601848DF8120FC00FB67D
:1025E00007FCF9CF0088F189E02D808185FFF3CFCA
:1025F000C60169830E94A2126981EDCF838DF60125
:10260000E80FF11DE35AFF4F6083F601038F028844
:10261000F389E02D808180620CC0D6015696ED9141
:10262000FC91579760835096ED91FC915197808172
:102630008064808381E090E00F90DF91CF911F91C3
:102640000F91FF90DF90CF900895CF93DF93EC012F
:10265000888D8823C9F0EA89FB89808185FD05C0C2
:10266000A889B9898C9186FD0FC00FB607FCF5CFFC
:10267000808185FFF2CFA889B9898C9185FFEDCF44
:10268000CE010E94A212E7CFDF91CF910895CF92A1
:10269000DF92EF92FF921F93CF93DF93EC016A01D9
:1026A0007B01122FE889F98982E080834115514E20
:1026B00061057105B1F060E079E08DE390E0A7017C
:1026C00096010E945B15DA01C9010197A109B109C0
:1026D000B695A795979587959C01211580E13807B8
:1026E000A8F0E889F989108260E874E88EE190E04A
:1026F000A70196010E945B15DA01C9010197A109A2
:10270000B109B695A795979587959C01EC85FD85B0
:102710003083EE85FF852083188EEC89FD89108338
:10272000EA89FB89808180618083EA89FB898081D5
:1027300088608083EA89FB89808180688083EA8958
:10274000FB8980818F7D8083DF91CF911F91FF90E6
:10275000EF90DF90CF90089508950E94E4140E94B6
:10276000AC130E945F00C4E9D2E10E94DD00209713
:10277000E1F30E949412F9CF1F920F920FB60F92BD
:1027800011242F938F939F93EF93FF93E0918F01E9
:10279000F09190018081E0919501F091960182FD88
:1027A00012C09081809198018F5F8F732091990161
:1027B000821751F0E0919801F0E0E158FE4F958FBB
:1027C0008093980101C08081FF91EF919F918F913B
:1027D0002F910F900FBE0F901F9018951F920F9280
:1027E0000FB60F9211242F933F934F935F936F93E4
:1027F0007F938F939F93AF93BF93EF93FF938FE755
:1028000091E00E94A212FF91EF91BF91AF919F9131
:102810008F917F916F915F914F913F912F910F9089
:102820000FBE0F901F9018958FE791E00E946612DF
:1028300021E0892B09F420E0822F0895EFE7F1E0F1
:102840001382128288EE93E0A0E0B0E08483958347
:10285000A683B7838DE491E09183808385EC90E03B
:102860009587848784EC90E09787868780EC90E05A
:10287000918B808B81EC90E0938B828B82EC90E04B
:10288000958B848B86EC90E0978B868B118E128EC5
:10289000138E148E0895CF93DF9300D000D0CDB760
:1028A000DEB79B01AC01611571058105910569F0E9
:1028B00069833A834B835C830E947D1929813A8125
:1028C0004B815C810E947D1503C060E070E0CB010C
:1028D0000F900F900F900F90DF91CF9108950C946F
:1028E0000E188E3008F08E502091160190E4299F2A
:1028F000900111248770822B80937C0080917A0054
:10290000806480937A0080917A0086FDFCCF80916C
:1029100078002091790090E0922B08951F920F92F9
:102920000FB60F9211242F933F938F939F93AF93E2
:10293000BF9380911D0290911E02A0911F02B09141
:10294000200230911C0223E0230F2D3720F4019642
:10295000A11DB11D05C026E8230F0296A11DB11DC2
:1029600020931C0280931D0290931E02A0931F02CD
:10297000B09320028091210290912202A091230223
:10298000B09124020196A11DB11D80932102909364
:102990002202A0932302B0932402BF91AF919F9192
:1029A0008F913F912F910F900FBE0F901F90189510
:1029B0002FB7F89460911D0270911E0280911F0242
:1029C000909120022FBF0895789484B5826084BDD1
:1029D00084B5816084BD85B5826085BD85B5816023
:1029E00085BDEEE6F0E0808181608083E1E8F0E083
:1029F0001082808182608083808181608083E0E8B2
:102A0000F0E0808181608083E1EBF0E08081846090
:102A10008083E0EBF0E0808181608083EAE7F0E092
:102A200080818460808380818260808380818160F6
:102A300080838081806880831092C1000895CF9246
:102A4000DF92EF92FF920F931F93CF93DF936C016E
:102A5000EB017B01E40EF51E00E010E0CE15DF0572
:102A600061F06991D601ED91FC910190F081E02D2A
:102A7000C6010995080F191FF1CFC801DF91CF9149
:102A80001F910F91FF90EF90DF90CF90089597FBEB
:102A9000072E16F4009407D077FD09D00E94A715E1
:102AA00007FC05D03EF4909581959F4F0895709551
:102AB00061957F4F0895A1E21A2EAA1BBB1BFD0151
:102AC0000DC0AA1FBB1FEE1FFF1FA217B307E4070D
:102AD000F50720F0A21BB30BE40BF50B661F771F65
:102AE000881F991F1A9469F7609570958095909545
:102AF0009B01AC01BD01CF010895052E97FB1EF48B
:102B000000940E94941557FD07D00E945B1507FCA6
:102B100003D04EF40C949415509540953095219522
:102B20003F4F4F4F5F4F08959095809570956195F9
:102B30007F4F8F4F9F4F08950E94C115A59F900D05
:102B4000B49F900DA49F800D911D11240895AA1B80
:102B5000BB1B51E107C0AA1FBB1FA617B70710F088
:102B6000A61BB70B881F991F5A95A9F780959095BA
:102B7000BC01CD010895EE0FFF1F0590F491E02DEB
:102B80000994A29FB001B39FC001A39F700D811D46
:102B90001124911DB29F700D811D1124911D089566
:102BA0005058BB27AA270E94E8150C9462170E9470
:102BB000541738F00E945B1720F039F49F3F19F446
:102BC00026F40C9451170EF4E095E7FB0C944B1788
:102BD000E92F0E94731758F3BA1762077307840727
:102BE000950720F079F4A6F50C9495170EF4E0956E
:102BF0000B2EBA2FA02D0B01B90190010C01CA01B7
:102C0000A0011124FF27591B99F0593F50F4503E61
:102C100068F11A16F040A22F232F342F4427585F53
:102C2000F3CF469537952795A795F0405395C9F76B
:102C30007EF41F16BA0B620B730B840BBAF0915023
:102C4000A1F0FF0FBB1F661F771F881FC2F70EC0C2
:102C5000BA0F621F731F841F48F487957795679595
:102C6000B795F7959E3F08F0B0CF9395880F08F081
:102C70009927EE0F9795879508950E94271708F4D6
:102C800081E008950E9456160C9462170E945B170B
:102C900058F00E94541740F029F45F3F29F00C943B
:102CA0004B1751110C9496170C9451170E947317DF
:102CB00068F39923B1F3552391F3951B550BBB276B
:102CC000AA2762177307840738F09F5F5F4F220FB0
:102CD000331F441FAA1FA9F335D00E2E3AF0E0E8A7
:102CE00032D091505040E695001CCAF72BD0FE2FF1
:102CF00029D0660F771F881FBB1F26173707480785
:102D0000AB07B0E809F0BB0B802DBF01FF2793583C
:102D10005F4F3AF09E3F510578F00C944B170C949E
:102D200096175F3FE4F3983ED4F3869577956795C1
:102D3000B795F7959F5FC9F7880F911D9695879571
:102D400097F90895E1E0660F771F881FBB1F621790
:102D500073078407BA0720F0621B730B840BBA0B4E
:102D6000EE1F88F7E09508950E94BB166894B11194
:102D70000C94961708950E947B1788F09F5798F03F
:102D8000B92F9927B751B0F0E1F0660F771F881F70
:102D9000991F1AF0BA95C9F714C0B13091F00E948A
:102DA0009517B1E008950C949517672F782F882711
:102DB000B85F39F0B93FCCF3869577956795B395B1
:102DC000D9F73EF490958095709561957F4F8F4F20
:102DD0009F4F0895E89409C097FB3EF49095809525
:102DE000709561957F4F8F4F9F4F9923A9F0F92FD1
:102DF00096E9BB279395F695879577956795B7954F
:102E0000F111F8CFFAF4BB0F11F460FF1BC06F5F34
:102E10007F4F8F4F9F4F16C0882311F096E911C046
:102E2000772321F09EE8872F762F05C0662371F067
:102E300096E8862F70E060E02AF09A95660F771F7B
:102E4000881FDAF7880F9695879597F90895990F57
:102E50000008550FAA0BE0E8FEEF16161706E80764
:102E6000F907C0F012161306E407F50798F0621B85
:102E7000730B840B950B39F40A2661F0232B242B5A
:102E8000252B21F408950A2609F4A140A6958FEF79
:102E9000811D811D089597F99F6780E870E060E0CB
:102EA00008959FEF80EC089500240A9416161706E3
:102EB00018060906089500240A941216130614062B
:102EC00005060895092E0394000C11F4882352F08E
:102ED000BB0F40F4BF2B11F460FF04C06F5F7F4F46
:102EE0008F4F9F4F089557FD9058440F551F59F02D
:102EF0005F3F71F04795880F97FB991F61F09F3FE7
:102F000079F087950895121613061406551FF2CF0F
:102F10004695F1DF08C0161617061806991FF1CF5F
:102F200086957105610508940895E894BB27662786
:102F30007727CB0197F908950E94271708F48FEFA0
:102F400008950E94B4170C9462170E94541738F029
:102F50000E945B1720F0952311F00C944B170C94F2
:102F6000511711240C9496170E94731770F3959FB4
:102F7000C1F3950F50E0551F629FF001729FBB2770
:102F8000F00DB11D639FAA27F00DB11DAA1F649F0C
:102F90006627B00DA11D661F829F2227B00DA11DBF
:102FA000621F739FB00DA11D621F839FA00D611D45
:102FB000221F749F3327A00D611D231F849F600D66
:102FC000211D822F762F6A2F11249F5750409AF08F
:102FD000F1F088234AF0EE0FFF1FBB1F661F771F1B
:102FE000881F91505040A9F79E3F510580F00C94E6
:102FF0004B170C9496175F3FE4F3983ED4F38695F5
:1030000077956795B795F795E7959F5FC1F7FE2B85
:10301000880F911D9695879597F908950F931F93A3
:10302000CF93DF938230910510F482E090E0E0913D
:103030002702F091280220E030E0A0E0B0E03097D5
:1030400019F1408151810281138148175907C8F055
:103050008417950769F4109731F012960C93129724
:1030600013961C9327C0009327021093280222C0B6
:103070002115310519F04217530718F49A01BD01C3
:10308000EF01DF01F801DBCF21153105F9F0281B35
:10309000390B2430310580F48A819B8161157105DB
:1030A00021F0FB019383828304C0909328028093D4
:1030B0002702FE01329644C0FE01E20FF31F819306
:1030C000919322503109398328833AC020912502F7
:1030D00030912602232B41F420910201309103010B
:1030E00030932602209325022091000130910101A6
:1030F0002115310541F42DB73EB74091040150919F
:103100000501241B350BE0912502F0912602E21700
:10311000F307A0F42E1B3F0B2817390778F0AC01FA
:103120004E5F5F4F2417350748F04E0F5F1F5093D7
:103130002602409325028193919302C0E0E0F0E0E3
:10314000CF01DF91CF911F910F910895CF93DF931E
:10315000009709F481C0FC01329713821282A0917A
:103160002702B0912802109781F420813181820FCB
:10317000931F20912502309126022817390751F517
:10318000F0932602E093250267C0ED0120E030E0D5
:10319000CE17DF0740F44A815B819E01411551053E
:1031A000F1F0EA01F5CFD383C28340815181840FCE
:1031B000951FC817D90759F488819981840F951FE5
:1031C0000296918380838A819B81938382832115D8
:1031D000310529F4F0932802E09327023DC0E9016C
:1031E000FB83EA8349915991C40FD51FEC17FD0762
:1031F00061F480819181840F951F0296E901998382
:103200008883828193819B838A83E0E0F0E0129639
:103210008D919C911397009719F0FD01DC01F7CF78
:103220008D919C9111979D012E5F3F4F820F931FAF
:1032300020912502309126022817390769F430972A
:1032400029F4109228021092270202C013821282DF
:10325000B0932602A0932502DF91CF9108958F921B
:103260009F92AF92BF92CF92DF92EF92FF92CF9355
:10327000DF93EC01688179818A819B8161157105F9
:103280008105910521F464E279ED8BE597E02DE16C
:1032900033EF41E050E00E947D1549015A019B0146
:1032A000AC01A7EAB1E40E949C156B017C01ACEE75
:1032B000B4EFA50194010E948E19DC01CB018C0DA5
:1032C0009D1DAE1DBF1DB7FF03C00197A109B048EA
:1032D00088839983AA83BB83BC01CD019F77DF914B
:1032E000CF91FF90EF90DF90CF90BF90AF909F90E5
:1032F0008F9008950E942F19089586E091E00E9412
:103300002F190895609306017093070180930801B7
:10331000909309010895B7FF0C949C150E949C1589
:0A332000821B930B0895F894FFCF71
:10332A0000002902200001000000A907A9070400E3
:10333A000300020001000100000000750500000002
:10334A00008607390735072D07310700000000A45A
:10335A000D3D0D00000000CD0E000000009211FA94
:10336A000E000000002D122E1200000000C3121FD2
:0A337A00156612801272122513006E
:00000001FF
