:100000000C9437020C945F020C945F020C945F0214
:100010000C945F020C945F020C945F020C945F02DC
:100020000C945F020C945F020C945F020C945F02CC
:100030000C945F020C94AB120C945F020C945F0260
:100040000C94241A0C945F020C9450190C9482198D
:100050000C945F020C945F020C945F020C945F029C
:100060000C945F020C945F0208080000000000007E
:10007000000000003E41554155493E003E7F6B7FE8
:100080006B773E0022777F7F3E1C0800081C3E7F76
:100090003E1C0800081C2A7F2A081C00081C3E7F02
:1000A0003E081C00001C3E3E3E1C00FFFFE3C1C199
:1000B000C1E3FF00001C2222221C00FFFFE3DDDD64
:1000C000DDE3FF000F03053948483000083E081CF7
:1000D00022221C0018141010307060000F19111328
:1000E00037766000082A1C771C2A080060787E7F1B
:1000F0007E786000030F3F7F3F0F0300081C2A0833
:100100002A1C080066666666006666003F65653DF7
:10011000050505000C324824124C30000000000098
:100120007F7F7F00081C2A082A1C3E00081C3E7F97
:100130001C1C1C001C1C1C7F3E1C0800080C7E7F25
:100140007E0C080008183F7F3F1808000000707000
:10015000707F7F000014227F22140000081C1C3EC8
:100160003E7F7F007F7F3E3E1C1C08000000000099
:1001700000000000183C3C18180018003636140027
:100180000000000036367F367F363600081E201C01
:10019000023C080060660C18306606003C663C288D
:1001A00065663F001818183000000000603018180D
:1001B00018306000060C1818180C060000361C7F5A
:1001C0001C3600000008083E08080000000000304F
:1001D000303060000000003C000000000000000023
:1001E0000060600000060C18306000003C666E760F
:1001F00066663C001818381818187E003C66060C15
:1002000030607E003C66061C06663C000C1C2C4CD4
:100210007E0C0C007E607C0606663C003C66607CC2
:1002200066663C007E660C0C181818003C66663C3E
:1002300066663C003C66663E06663C000018180098
:10024000181800000018180018183000060C183094
:10025000180C060000003C003C0000006030180C48
:10026000183060003C66061C1800180038445C58C2
:10027000423C00003C66667E666666007C66667C84
:1002800066667C003C66606060663C007C66666614
:1002900066667C007E60607C60607E007E60607C64
:1002A000606060003C6660606E663C006666667E0C
:1002B000666666003C18181818183C001E0C0C0CDA
:1002C0006C6C3800666C7870786C6600606060609A
:1002D00060607E0063777F6B6363630063737B6F33
:1002E000676363003C66666666663C007C666666BD
:1002F0007C6060003C6666666E3C06007C66667CE0
:10030000786C66003C66603C06663C007E5A1818B5
:10031000181818006666666666663E00666666665B
:10032000663C18006363636B7F7763006363361C0E
:10033000366363006666663C181818007E060C1863
:1003400030607E001E18181818181E000060301843
:100350000C060000781818181818780008142241A4
:10036000000000000000000000007F000C0C0600F0
:100370000000000000003C063E663E006060607CBD
:1003800066667C0000003C6660663C000606063E31
:1003900066663E0000003C667E603C001C363030E5
:1003A0007C303000003E66663E063C006060607C4B
:1003B000666666000018001818183C000C000C0C4B
:1003C0006C6C38006060666C786C660018181818E1
:1003D00018181800000063777F6B6B0000007C7EAC
:1003E0006666660000003C6666663C00007C6666E9
:1003F0007C606000003C6C6C3C0D0F0000007C6673
:100400006660600000003E403C027C000018187EE0
:10041000181818000000666666663E000000006658
:10042000663C18000000636B6B6B3E000000663C8E
:10043000183C6600000066663E063C0000003C0C6E
:1004400018303C000E18183018180E001818180034
:10045000181818007018180C1818700000003A6C62
:1004600000000000081C366341417F00B2191124CE
:100470001FBECFEFD8E0DEBFCDBF11E0A0E0B1E0FE
:10048000ECEAFEE302C005900D92AC35B107D9F756
:1004900022E0ACE5B1E001C01D92AB32B207E1F75A
:1004A00012E0C7E3D2E004C02197FE010E94931B33
:1004B000C633D107C9F70E9441190C94541F0C94FC
:1004C0000000EF92FF920F931F93CF93DF93CDB76E
:1004D000DEB768970FB6F894DEBF0FBECDBFCE0172
:1004E00001960E94F20284E090E00E94031A7C01CF
:1004F00060E070E00E942C0AF0926101E0926001DD
:100500008CE090E00E94031A7C0140E650E068E72E
:1005100070E00E94580CF0926301E09262018CE25C
:1005200090E00E94031A7C01609162017091630166
:100530000E942003F0925F01E0925E0184E190E06E
:100540000E94031A7C0100915E0110915F012091CD
:100550006001309161016091620170916301AE01AF
:100560004F5F5F4F0E943C0AF0926501E092640188
:100570008091620190916301069690935D01809352
:100580005C0126E040E855E260E070E081E891E03F
:100590000E94DB1880916401909165010E94DD0B3F
:1005A00068960FB6F894DEBF0FBECDBFDF91CF9136
:1005B0001F910F91FF90EF90089561E070E080919E
:1005C0005C0190915D010E94A00460E080915C015B
:1005D00090915D010E946704809164019091650192
:1005E0000C94520BFC0180E090E0A0E4B0E4808326
:1005F0009183A283B38340E050E068EC71E44483CC
:1006000055836683778380879187A287B38780E04D
:1006100090E0A0EFB2E484879587A687B78780E053
:1006200090E0A0ECB2E4808B918BA28BB38B80E046
:1006300090E0A0E7B2E4848B958BA68BB78B0895EE
:100640000F931F93CF93DF93EC018B018BE191E02C
:100650009983888388E090E00E94051A9C01285FB6
:100660003F4FFC0111922E173F07E1F799A788A78A
:100670001DA21CA21B821A8280E390E09D838C83C2
:100680001FA30EA3DF91CF911F910F910895CF93D8
:10069000FC0144A155A1DC01169680E090E020E029
:1006A00030E0BD018417950794F4CD91CC3719F44F
:1006B0002F5F3F4F0AC0223031053CF015A214A233
:1006C000860F971FCF910C94F11E0196EBCF15A2C8
:1006D00014A28FEF9FEFCF910895CF93DF93EC019A
:1006E0008EA19FA128A539A5DC01ED91FC91028482
:1006F000F385E02D4AE050E06AE070E009958EA1B4
:100700009FA19E012A5F3F4FDC01ED91FC91028485
:10071000F385E02D4EE150E06EE170E0DF91CF9186
:1007200009940F931F93CF93DF93EC0181E891E03D
:100730000E94FA17892BD9F181E891E00E941418E0
:100740008C01682F81E891E00E9457180F3F8FEFCE
:10075000180769F103321105E9F4ECA1FDA1EC0FD2
:10076000FD1F1682CE010E9447038C0168A579A562
:100770004AE00E940F1F0F3F8FEF1807B9F20739A9
:1007800011051CF08FEF90E002C081E09FEF9B838A
:100790008A830DC00A32110549F28CA19DA1FE0188
:1007A000E80FF91F068301969DA38CA3BFCF8A8112
:1007B0009B81DF91CF911F910F9108952091780136
:1007C000982F969596959695E0917D01F0917E01F2
:1007D0008770629FB0011124690F711DE60FF71F2A
:1007E000413061F420E830E0A90102C055954795F9
:1007F0008A95E2F7CA019081892B19C041110CC07A
:100800002FE73FEFA90102C0559547958A95E2F77A
:10081000CA01908189230BC020E830E0A90102C001
:10082000559547958A95E2F7CA019081892780837B
:100830000895FC011282138280E090E020917801FB
:1008400030917701239F90011124821793074CF474
:10085000E0917D01F0917E01E80FF91F1082019671
:10086000EDCF0895EF92FF921F93CF93DF9300D0C7
:10087000CDB7DEB77C01162F642F862F887FE1F07D
:10088000669566956695629FC00111242A836983E7
:100890000E94741DF701918380834A8169810097CA
:1008A00069F0128213829C01812F0E94F111C7010D
:1008B0000E94190480E003C081E001C084E00F9031
:1008C0000F90DF91CF911F91FF90EF9008956130CD
:1008D00041F028F0623099F580E090E01BC00C9464
:1008E0001904FC011282138280E090E04FEF209106
:1008F000780130917701239F90011124821793078B
:10090000F4F4E0917D01F0917E01E80FF91F40833E
:100910000196EDCF2091780130917701239F9001CE
:100920001124821793075CF4E0917D01F0917E0120
:10093000E80FF91F2081209520830196EBCF0895C1
:1009400020917A01022E000C330B2F5F3F4F409114
:100950007701429FC001439F900D112420917401A3
:10096000820F911D01966115710589F020916E012C
:1009700030916F0182179307C9F720916E01309172
:100980006F0182179307C9F361507109ECCF089585
:10099000862F642FE0917801482F50E098E0E99F7E
:1009A000F00111244E175F073CF49091770169170D
:1009B00018F4422F0C94DE030895EF92FF920F93E8
:1009C000CF93DF93EC01FA01D9014217530751F499
:1009D000202F462F6E2FDF91CF910F91FF90EF9038
:1009E0000C94C8042417350720F4CA019927F9018B
:1009F000DC01CF01877099272FEF30E0790102C029
:100A0000F594E7948A95E2F79E2D83E0F695E795B5
:100A10008A95E1F740917801469FA0011124E40FE7
:100A2000F51FBD016770772702C0359527956A9538
:100A3000E2F7322F309523E0B695A7952A95E1F796
:100A40004A0F5B1FE417F50719F4932F9E2130E03E
:100A50000130D1F4DF01119668817981E60FF71F2B
:100A60008081982B90832FEF88819981A417B507F7
:100A700030F4FC01EA0FFB1F20831196F5CFA80F7D
:100A8000B91F8C91382B39C001111BC0DF011196A1
:100A900068817981E60FF71F909580819823908374
:100AA00088819981A417B50730F4FC01EA0FFB1F78
:100AB00010821196F5CFA80FB91F30958C9138236D
:100AC0001CC00230D9F4DF01119668817981E60FEC
:100AD000F71F80819827908388819981A417B50793
:100AE00040F4FC01EA0FFB1F808180958083119602
:100AF000F3CFA80FB91F8C9138273C93DF91CF918A
:100B00000F91FF90EF900895EF92FF920F93CF9384
:100B1000DF934217530741F4202FDF91CF910F91BC
:100B2000FF90EF900C94C8042417350720F4FA01C5
:100B3000FF27A9019F01762F7770E0E8F0E002C05F
:100B4000F595E7957A95E2F7BE2F70917801749F3D
:100B5000E001759FD00D11246695669566957E011E
:100B6000E60EF11CB701013091F424173507C0F1EE
:100B7000EC01E881F981E60FF71FA081AB2BA08380
:100B8000E09178016E0F711D4F5F5F4FEECF011145
:100B900013C0E0952417350718F1EC01A881B9813D
:100BA000A60FB71FFC91FE23FC93F09178016F0F05
:100BB000711D4F5F5F4FEECF023091F42417350760
:100BC00078F0EC01E881F981E60FF71FA081AB27EF
:100BD000A083E09178016E0F711D4F5F5F4FEECFE4
:100BE000DF91CF910F91FF90EF9008952F923F9258
:100BF0004F925F926F927F928F929F92AF92BF922D
:100C0000CF92DF92EF92FF920F931F93CF93DF93D8
:100C100000D000D0CDB7DEB7FC01942F302F0E2DC1
:100C2000A62EB12C4091780188E0489FA0011124A4
:100C30004A155B050CF484C080917701891708F48C
:100C40007FC0A22FB0E04A175B070CF479C083176E
:100C500008F476C0621308C0232F30E0492F50E01B
:100C6000CF010E9484056CC0931307C09D01A501AC
:100C7000692FCF010E94DD0463C0892E912C2617B5
:100C800038F4A5014A1B5B0B5C834B838FEF06C0D6
:100C9000AD014A195B095C834B8381E0C32ED12CE3
:100CA000391730F494012C193D0969019FEF03C0F5
:100CB000C818D90891E02B813C812C153D0544F4DE
:100CC0003B812C81DC82CB82C32ED22E11E001C06D
:100CD00010E0CC0CDD1C26012B813C81421A530A0A
:100CE000220F331FE12CF12C292E990F3308682E87
:100CF000880F77084B815C814E155F050CF1402F02
:100D0000682D8A2D29833A830E94DE0329813A8146
:100D100057FC09C0113019F4A60CB71C02C0820C94
:100D2000931C421A530A113019F4820C931C02C00E
:100D3000A60CB71C4C0C5D1C5FEFE51AF50ADACF68
:100D40000F900F900F900F90DF91CF911F910F9107
:100D5000FF90EF90DF90CF90BF90AF909F908F90DB
:100D60007F906F905F904F903F902F9008954F929B
:100D70005F926F927F928F929F92AF92BF92CF922B
:100D8000DF92EF92FF920F931F93CF93DF935C015B
:100D9000D62E142FD22FC02F5E2C8FEFC816C1F085
:100DA000442EE02EF12CE40EF11C862E912C340101
:100DB000620E711C842D90E08E159F054CF40C2D55
:100DC0009301A401642DC5010E94DD044394F2CF78
:100DD000DD0DE52C012F2D2F412F6D2DC5010E941A
:100DE000F605C10F0C2F2D2D412F6D2DC5010E9431
:100DF000F6052D2F412F6D2FC5010E94F6052D2FD1
:100E00004C2F6D2DC5010E94F605DF91CF911F91EA
:100E10000F91FF90EF90DF90CF90BF90AF909F9099
:100E20008F907F906F905F904F9008952F923F9298
:100E30004F925F926F927F928F929F92AF92BF92EA
:100E4000CF92DF92EF92FF920F931F93CF93DF9396
:100E5000CDB7DEB729970FB6F894DEBF0FBECDBF72
:100E60005C01562EF42E922E102F30E03987288701
:100E700081E090E01C01221A330AC9019195819505
:100E80009109FC01EE0FFF1FFE83ED83FFEFEF16CC
:100E900069F0462F50E0240F351F88859985481B3F
:100EA000590B0E2D6F2DC5010E94DD04412F692DB8
:100EB0006F0D852D0E94DE03412F6F2D6919852D41
:100EC0000E94DE03412F6F2D892D850D0E94DE03C8
:100ED000412F6F2D852D89190E94DE03CC24C394E8
:100EE000D12C1C82E52DF0E0FA83E983C60101973D
:100EF00028853985821793070CF098C037FC0BC002
:100F000021503109398728878D819E8102969E83E1
:100F10008D83280E391EC601880F991F0196280E51
:100F2000391E98859F0D9B83EF2DF885EF1BEF836E
:100F30004F2C4C0C2FEFE21609F441C0892D90E0A4
:100F4000E885F985E817F907A9F00E2D69807A8000
:100F50006C0C7D1C930189809A808C189D08A401DB
:100F60006B81C5010E94DD049301A4016F81C5015D
:100F70000E94DD04FC818F2F90E0C816D906E9F0AD
:100F8000288539852C153D05C1F00E2D89809A8064
:100F9000820E931E940169807A8088859985681AEB
:100FA000790AA301642DC5010E94DD049401A30107
:100FB0006F2D6C19C5010E94DD049884CC82752CBC
:100FC0007C0C412F6B81872D0E94DE03852C8C18B1
:100FD000412F6B81882D0E94DE03412F6F81872D69
:100FE0000E94DE03412F6F81882D0E94DE03412F76
:100FF000642D7884750C872D0E94DE03412F642DAB
:10100000852C9885891A882D0E94DE036F2C6C1818
:10101000412F662D872D0E94DE03412F662D882DDE
:101020000E94DE03EFEFCE1ADE0A60CF29960FB6DC
:10103000F894DEBF0FBECDBFDF91CF911F910F910E
:10104000FF90EF90DF90CF90BF90AF909F908F90E8
:101050007F906F905F904F903F902F9008952F92C8
:101060003F924F925F926F927F928F929F92AF9238
:10107000BF92CF92DF92EF92FF920F931F93CF9385
:10108000DF93CDB7DEB729970FB6F894DEBF0FBE5A
:10109000CDBF99878887962F977058E0591BE1102C
:1010A00006C0F901E00FF11FE4900F5F1F4FC11060
:1010B00006C0F901E00FF11FC4900F5F1F4F8E2D86
:1010C0008770EE2DE695E695E695882311F0EF5FA3
:1010D00001C088E0669566956695E62EF12CFC8247
:1010E000EB82292E312C4101880E911C8FEF90E06C
:1010F000BC01082C02C0759567950A94E2F7A52FEC
:10110000B0E0BA83A98301C0880F5A95EAF7E130AD
:1011100011F4762E01C0712C782A7D82D4011897A3
:101120008FEF90E002C095958795AA95E2F7D62EAD
:10113000A12CB12C642E712CF0E0AF01415051096B
:101140005F834E83AC1408F090C090917801A301A6
:101150004A0D5B1D949FB001959F700D1124AB81CA
:10116000BC816A0F7B1FA885B985ED91FC91E60FC4
:10117000F71F90814D8149234083D8011196F901D1
:10118000E00FF11F4491E885F985E080F180F701D7
:10119000E60FF71FE42EF12C022C02C0F594E79421
:1011A0000A94E2F75081E52AE0824E805F804A0E81
:1011B0005B1E7B01E01AF10A87017801EA0EFB1E33
:1011C000E885F9856081718150E0A415B50510F5B9
:1011D0006E0D7F1DFB019081098001C0440F0A94B0
:1011E000EAF74083F901EA0FFB1F4491E885F9858E
:1011F00060817181FB01EE0DFF1D642F70E0022CF8
:1012000002C0759567950A94E2F75081652B60835B
:101210001196D3CFF8E08F16910440F4F70131977F
:10122000E60FF71F9D216081962B09C098E0891673
:10123000910431F0FB01EE0DFF1D90819823908306
:10124000E885F985608171816E0D7F1D098002C07E
:10125000440F551F0A94E2F7FB019081492B40830C
:10126000FFEFAF1ABF0A8D016DCF29960FB6F89424
:10127000DEBF0FBECDBFDF91CF911F910F91FF90C9
:10128000EF90DF90CF90BF90AF909F908F907F9026
:101290006F905F904F903F902F900895DF92EF9264
:1012A000FF920F931F93CF93DF934130A9F1C0F0CA
:1012B000423009F44DC0433009F0C0C0562F57707A
:1012C000F52E66956695669570E071956195710944
:1012D000E12C42E050E028E030E02F1931097CC0D9
:1012E00080917D0190917E0120917801DC01629FC7
:1012F000A00DB11D112430917701AC01239F400D49
:10130000511D11249A01FC012A173B0708F496C0CD
:101310008C9181931D92F8CF80917D0190917E01F7
:101320003091770120917801DC01329FA00DB11D31
:101330001124FD01269FE019F10911241196E817E7
:10134000F90708F47BC020812E9310823197F7CFE4
:10135000D62FD77066956695669570E0C0E048E038
:1013600050E04D1B510980917701C81708F066C005
:1013700080917801E0917D01F0917E018C9FE00DDC
:10138000F11D1124DF01A60FB71F90E002978E0F09
:101390009F1F8A179B07A0F02C91122F0D2E01C0C2
:1013A000110F0A94EAF71D923C91232F30E0042E8E
:1013B00002C0359527950A94E2F7212B2193E9CFB6
:1013C0008C910D2E01C0880F0A94EAF71C9280833D
:1013D000CF5FC9CF8083E39480917701E81670F5E1
:1013E000A09178018A2F90E0FC013197AE9DE00D2D
:1013F000F11D1124A0917D01B0917E01EA0FFB1F28
:10140000DF01A60FB71F8A01081B190B0E0F1F1F44
:101410008C9190E00F2C02C0959587950A94E2F785
:101420001C92A017B107B0F2CE91022E01C0CC0FD2
:101430000A94EAF78C2B80833197EACFDF91CF9122
:101440001F910F91FF90EF90DF900895FC01828132
:101450000E94071A9250089521E231E0FC01318385
:10146000208373836283089560E876E988E990E0D9
:101470000E94DF19CB0108954F925F926F927F9285
:101480008F929F92AF92BF92CF92DF92EF92FF9294
:101490000F931F93CF93DF93EC014A015901380159
:1014A00079876887198A188A1B8A1A8A1F870E8784
:1014B00082E090E00E94031A9D878C8788E090E08C
:1014C0000E94031A8C0120E030E040E450E4F40173
:1014D00060897189828993890E94A81B0E941A1CC5
:1014E0006B017C0120E030E040E450E4F4016485CD
:1014F0007585868597850E94A81B0E941A1C21E08D
:1015000030E0A601C8010E94E617198308838BE129
:1015100090E00E94031A2C01C880D980F401E48075
:10152000F58006811781208531854285538560E0ED
:101530000E94AE135D824C828BE190E00E94031A00
:101540002C01C880D980F401E480F58006811781E0
:101550002085318542855385530161E00E94AE1399
:101560005F824E828EE190E00E94031A5C01CC847F
:10157000DD84EE80FF800C811D8128813981F4019A
:1015800040815181628173810E945C17BB82AA8273
:101590008CE090E00E94031A8C01F4016489758943
:1015A000868997890E941A1CC8010E9422141B87F1
:1015B0000A878091100190911101EC85FD8591833E
:1015C0008083DF91CF911F910F91FF90EF90DF907B
:1015D000CF90BF90AF909F908F907F906F905F90D3
:1015E0004F900895CF93DF93EC0188899989680F14
:1015F000791F798B688B8A899B89480F591F5B8B70
:101600004A8B40E050E0BA018C819D810E94191400
:1016100040E050E0BA018E819F810E9419148881B8
:1016200099810E94F21797FD0196BC017595679507
:10163000072E000C880B990B0E94521CAB01BC01B9
:101640008A819B810E94B814888199810E94F61733
:1016500097FD0196BC0175956795072E000C880BC8
:10166000990B0E94521CAB01BC018A819B810E9494
:10167000BE1440E050E0BA018A819B810E94AC1404
:1016800040E050E0BA018A819B810E94B2148091AF
:101690000E0190910F01EC85FD8591838083DF9190
:1016A000CF910895CF93DF93EC01EC85FD85808188
:1016B000918120911401309115018217930729F42B
:1016C00040E050E061E070E00BC0209112013091E9
:1016D00013018217930739F441E050E060E070E0B5
:1016E000CE010E94F20A8A859B850E9459148823A4
:1016F00009F460C08E859F850E946D038881998161
:10170000DC01ED91FC910190F081E02D099588813B
:10171000998168857985DC01ED91FC910280F381E6
:10172000E02D09958C819D81DC01ED91FC9101906A
:10173000F081E02D09958E819F81DC01ED91FC9176
:101740000190F081E02D09958A819B81DC01ED916A
:10175000FC910190F081E02D09958C819D81688537
:101760007985DC01ED91FC910280F381E02D0995F2
:101770008E819F8168857985DC01ED91FC910280E5
:10178000F381E02D09958A819B8168857985DC014B
:10179000ED91FC910280F381E02D099561E070E00C
:1017A00080E090E00E94931A8A859B85DF91CF911B
:1017B0000C945814DF91CF91089520910E0130912F
:1017C0000F01DC011C96ED91FC911D973183208364
:1017D0000895FC01828193810895FC0184819581A3
:1017E000089506960C943D0D60E006960C946704EF
:1017F0008F929F92AF92BF92CF92DF92EF920F9310
:10180000CF93DF93EC015B014A016901E881F98123
:101810000680F781E02D099595012C0D3D1D2817B7
:10182000390744F5E881F9810084F185E02DCE0186
:1018300009959601280D391D28173907DCF4C501D3
:101840008C199D0918161906ACF4C4018C199D0950
:10185000181619067CF4CE010696EE2019F022E047
:10186000E22E02C0EE24EA9401E02C2D482D6A2DD0
:101870000E941607DF91CF910F91EF90DF90CF90EC
:10188000BF90AF909F908F900895CF92EF920F935B
:101890000696CC2019F032E0C32E02C0CC24CA94A4
:1018A000EE24E3940E94B7060F91EF90CF90089535
:1018B000CF93DF93FC01242F87E291E09183808313
:1018C0006283738344835583EF012696462F61E03C
:1018D000CE010E94320468E670E0CE01DF91CF9124
:1018E0000C94720CFC01758364830895CF92EF927F
:1018F0000F931F93022FFC0124813581F901329649
:10190000E491502F5E1B89010F5F1F4FF801C490B7
:10191000F901E490F8010491509F800111240D5FBA
:101920001F4F0E942F081F910F91EF90CF900895A5
:10193000DC0113966C9113971496ED91FC91159719
:1019400031967491462F50E02091770130E0271BAB
:1019500031094217530724F0649140E00C944E097A
:10196000E491E60FDC011396EC9308950F931F9317
:10197000CF93DF931F92CDB7DEB78C01262F6A304D
:1019800019F1E0F4662309F460C0683051F5DC0118
:101990001496ED91FC911597E49112966C91129723
:1019A0006E1B12966C93129720E213964C910F9037
:1019B000DF91CF911F910F910C94760C6D3071F0E7
:1019C0006E3009F442C00DC0DC0112961C920F90DB
:1019D000DF91CF911F910F910C94980CFC01128212
:1019E00034C0D80112966C911297809178011496A8
:1019F000ED91FC911597E491462F50E0B8E08B9F54
:101A0000C00111248E1B9109F801481759076CF089
:101A10001282C80129830E94980C2981D80113964B
:101A20004C91139712966C9101C04381C8010E949A
:101A3000760CD8011496ED91FC911597E4911296CD
:101A40008C911297E80F1296EC930F90DF91CF9143
:101A50001F910F9108950F931F93CF93DF938C01E4
:101A6000EB016991662321F0C8010E94B60CF9CF01
:101A7000DF91CF911F910F910895FC016283438301
:101A8000B9010C942B0D089520916E0130916F01D6
:101A90008091740190E02817390779F41092800141
:101AA00010927F0180917A0180937B0189EF9DE004
:101AB00090936B0180936A0116C020916E01309162
:101AC0006F0180917501909176012817390759F4BB
:101AD0008DE79DE090936B0180936A01E0910A018C
:101AE000F0910B01099580916E0190916F01019623
:101AF00090936F0180936E01089520916E01309153
:101B00006F018091750190917601281739070CF4C7
:101B10004EC08CEA93E090938900809388001092E5
:101B20006F0110926E018091700190917101A091EE
:101B30007201B09173010196A11DB11D80937001D6
:101B400090937101A0937201B0937301809166012B
:101B500090916701A0916801B0916901892B8A2B4E
:101B60008B2B09F18091660190916701A09168012A
:101B7000B0916901181619061A061B0684F58091A2
:101B8000660190916701A0916801B0916901019788
:101B9000A109B1098093660190936701A093680140
:101BA000B09369011CC01092B1002B9818C020910D
:101BB0006E0130916F0180917C01082E000C990B11
:101BC0002817390761F48AE490E0909389008093A4
:101BD000880084E49DE090936B0180936A0180917A
:101BE0006E0190916F01019690936F0180936E0149
:101BF000089530918400209179012A50231B2350AD
:101C0000F0F72D5F19F02A9511F001C00000E09166
:101C10006C01F0916D01099590917B0180917A01A1
:101C200091110FC080937B019091780120917F01E9
:101C300030918001290F311D3093800120937F0165
:101C400003C0915090937B0140916E0150916F01C0
:101C50004F5F5F4F082E000C990B01966091770142
:101C6000689F9001699F300D112480917401B90122
:101C7000680F711D4617570731F484E49DE0909377
:101C80006B0180936A0180916E0190916F010196C2
:101C900090936F0180936E0108950F93CF93DF931C
:101CA000EEE6F1E0A785B089C0917F01D091800177
:101CB0008285AC0FBD1F0BB10F7703C000FA07F987
:101CC0000BB90D90000007FA07F90BB900000000EE
:101CD000000006FA07F90BB900000000000005FA41
:101CE00007F90BB900000000000004FA07F90BB96E
:101CF00000000000000003FA07F90BB90000000023
:101D0000000002FA07F90BB900000000000001FA18
:101D100007F90BB98A9591F60000000000FA07F95F
:101D20000BB90BB10F7707FB07F90BB9DF91CF9117
:101D30000F9108950F93CF93DF93EEE6F1E0A7851F
:101D4000B089C0917F01D09180018285AC0FBD1F09
:101D50000BB10F7703C000FA07F90BB90D9007FA22
:101D600007F90BB90000000006FA07F90BB90000EB
:101D7000000005FA07F90BB90000000004FA07F9A2
:101D80000BB90000000003FA07F90BB900000000CE
:101D900002FA07F90BB900008A9501FA07F90BB9A5
:101DA000D1F6000000FA07F90BB90BB10F7707FB6A
:101DB00007F90BB9DF91CF910F9108950F93CF934E
:101DC000DF93EEE6F1E0A785B089C0917F01D09165
:101DD00080018285AC0FBD1F02C0000C0BB80D90B6
:101DE00000000BB800000000000C0BB80000000061
:101DF000000C0BB800000000000C0BB80000000045
:101E0000000C0BB800000000000C0BB80000000C28
:101E10008A950BB811F70000000C0BB80000000009
:101E200000005F98DF91CF910F9108950F93CF93AA
:101E3000DF93EEE6F1E0A785B089C0917F01D091F4
:101E400080018285AC0FBD1F8E3191F08D3151F034
:101E50008C3149F08B3141F08A3139F0893131F0E0
:101E6000883129F01CC032C048C05EC074C08AC02E
:101E70000D900BB80000000C0BB80000000C0BB864
:101E80000000000C0BB80000000C0BB80000000CA8
:101E90000BB80000000C0BB80000000C0BB80D9044
:101EA0000BB80000000C0BB80000000C0BB80000D1
:101EB000000C0BB80000000C0BB80000000C0BB8B5
:101EC0000000000C0BB80000000C0BB80D900BB814
:101ED0000000000C0BB80000000C0BB80000000C58
:101EE0000BB80000000C0BB80000000C0BB8000091
:101EF000000C0BB80000000C0BB80D900BB80000E4
:101F0000000C0BB80000000C0BB80000000C0BB864
:101F10000000000C0BB80000000C0BB80000000C17
:101F20000BB80000000C0BB80D900BB80000000CB3
:101F30000BB80000000C0BB80000000C0BB8000040
:101F4000000C0BB80000000C0BB80000000C0BB824
:101F50000000000C0BB80D900BB80000000C0BB883
:101F60000000000C0BB80000000C0BB80000000CC7
:101F70000BB80000000C0BB80000000C0BB8000000
:101F8000000C0BB80D900BB80000000C0BB8000053
:101F9000000C0BB80000000C0BB80000000C0BB8D4
:101FA0000000000C0BB80000000C0BB80000000C87
:101FB0000BB80D900BB80000000C0BB80000000C23
:101FC0000BB80000000C0BB80000000C0BB80000B0
:101FD000000C0BB80000000C0BB80000000C0BB894
:101FE0000D900BB80000000C0BB80000000C0BB8F3
:101FF0000000000C0BB80000000C0BB80000000C37
:102000000BB80000000C0BB80000000C0BB80D90D2
:102010000BB80000000C0BB80000000C0BB800005F
:10202000000C0BB80000000C0BB80000000C0BB843
:102030000000000C0BB80000000C0BB80D900BB8A2
:102040000000000C0BB80000000C0BB80000000CE6
:102050000BB80000000C0BB80000000C0BB800001F
:10206000000C0BB80000000C0BB80D900BB8000072
:10207000000C0BB80000000C0BB80000000C0BB8F3
:102080000000000C0BB80000000C0BB80000000CA6
:102090000BB80000000C0BB80D900BB80000000C42
:1020A0000BB80000000C0BB80000000C0BB80000CF
:1020B000000C0BB80000000C0BB80000000C0BB8B3
:1020C0000000000C0BB80D900BB80000000C0BB812
:1020D0000000000C0BB80000000C0BB80000000C56
:1020E0000BB80000000C0BB80000000C0BB800008F
:1020F000000C0BB80D900BB80000000C0BB80000E2
:10210000000C0BB80000000C0BB80000000C0BB862
:102110000000000C0BB80000000C0BB80000000C15
:102120000BB80D900BB80000000C0BB80000000CB1
:102130000BB80000000C0BB80000000C0BB800003E
:10214000000C0BB80000000C0BB80000000C0BB822
:102150000D900BB80000000C0BB80000000C0BB881
:102160000000000C0BB80000000C0BB80000000CC5
:102170000BB80000000C0BB80000000C0BB80D9061
:102180000BB80000000C0BB80000000C0BB80000EE
:10219000000C0BB80000000C0BB80000000C0BB8D2
:1021A0000000000C0BB80000000C0BB80D900BB831
:1021B0000000000C0BB80000000C0BB80000000C75
:1021C0000BB80000000C0BB80000000C0BB80000AE
:1021D000000C0BB80000000C0BB80D900BB8000001
:1021E000000C0BB80000000C0BB80000000C0BB882
:1021F0000000000C0BB80000000C0BB80000000C35
:102200000BB80000000C0BB80D900BB80000000CD0
:102210000BB80000000C0BB80000000C0BB800005D
:10222000000C0BB80000000C0BB80000000C0BB841
:102230000000000C0BB80D900BB80000000C0BB8A0
:102240000000000C0BB80000000C0BB80000000CE4
:102250000BB80000000C0BB80000000C0BB800001D
:10226000000C0BB80D900BB80000000C0BB8000070
:10227000000C0BB80000000C0BB80000000C0BB8F1
:102280000000000C0BB80000000C0BB80000000CA4
:102290000BB80D900BB80000000C0BB80000000C40
:1022A0000BB80000000C0BB80000000C0BB80000CD
:1022B000000C0BB80000000C0BB80000000C0BB8B1
:1022C0000D900BB80000000C0BB80000000C0BB810
:1022D0000000000C0BB80000000C0BB80000000C54
:1022E0000BB80000000C0BB80000000C0BB80D90F0
:1022F0000BB80000000C0BB80000000C0BB800007D
:10230000000C0BB80000000C0BB80000000C0BB860
:102310000000000C0BB80000000C0BB80D900BB8BF
:102320000000000C0BB80000000C0BB80000000C03
:102330000BB80000000C0BB80000000C0BB800003C
:10234000000C0BB80000000C0BB80D900BB800008F
:10235000000C0BB80000000C0BB80000000C0BB810
:102360000000000C0BB80000000C0BB80000000CC3
:102370000BB80000000C0BB80D900BB80000000C5F
:102380000BB80000000C0BB80000000C0BB80000EC
:10239000000C0BB80000000C0BB80000000C0BB8D0
:1023A0000000000C0BB80D900BB80000000C0BB82F
:1023B0000000000C0BB80000000C0BB80000000C73
:1023C0000BB80000000C0BB80000000C0BB80000AC
:1023D000000C0BB8000000005F98DF91CF910F91C7
:1023E0000895CF93DF93D82FE62F30937E0120936B
:1023F0007D016093780140937701109270011092F3
:1024000071011092720110927301642F70E08823A1
:1024100019F084E091E002C088ED90E00E941F1B5B
:10242000615060937A01C0917A01C0937B0188E08A
:10243000E89F90011124032E000C440B550B60EE15
:1024400072E080E090E00E94551B243061F018F4A7
:10245000233089F00BC0253019F0263049F006C032
:102460008AE99EE00AC08EED9EE007C0273018F092
:102470008DE49EE002C086E19FE090936D01809321
:102480006C01579A219A5F98299A239A82EC80933B
:10249000800089E180938100409177012C2FCC0F3F
:1024A000330B2F5F3F4F429FC001439F900D11247C
:1024B000DD23C9F097FD01969595879591958195B6
:1024C000910984568093740187EC8093790187E0A9
:1024D00080937C0188E391E090937601809375016D
:1024E0008FEF93E018C097FD01969595879591958C
:1024F000819591098557809374018FEB80937901C1
:1025000083E080937C0186E091E090937601809354
:10251000750187EF93E090938700809386008AE4AB
:1025200090E090938900809388008091750190914C
:102530007601019690936F0180936E018DE79DE087
:1025400090936B0180936A0181E080936F0078948F
:10255000DF91CF9108951F920F920FB60F92112421
:102560002F933F934F935F936F937F938F939F939B
:10257000AF93BF93EF93FF93E0910C01F0910D01A6
:102580000995E0916A01F0916B010995FF91EF9136
:10259000BF91AF919F918F917F916F915F914F917B
:1025A0003F912F910F900FBE0F901F9018952F9273
:1025B0003F924F925F926F927F928F929F92AF92D3
:1025C000BF92CF92EF92FF920F931F93CF93DF931F
:1025D00000D000D0CDB7DEB78C011B01DC0117960F
:1025E0006D917D918D919C911A970E941A1C4B01BF
:1025F0005C01F80163817481858196810E941A1CB7
:102600009B01AC01D8011F966D917D918D919C919C
:10261000529729833A834B835C830E941A1C2B01B7
:102620003C01F80163897489858996890E941A1C86
:10263000D101ED91FC910190F081E02DCC24C39467
:10264000E12CF12C840129813A81A201C101099573
:102650000F900F900F900F90DF91CF911F910F91DE
:10266000FF90EF90CF90BF90AF909F908F907F9012
:102670006F905F904F903F902F900895CF92DF9290
:10268000EF92FF92CF93DF93EC011B861C861D8691
:102690001E8620E030E0A9016F85788989899A89B2
:1026A0000E94A91B6F87788B898B9A8B2F81388525
:1026B00049855A850E94A91B6B017C018F89988DE1
:1026C0000E94F617BC01990F880B990B0E94521CAF
:1026D0009B01AC01C701B6010E94021D1816FCF453
:1026E0001B861C861D861E868F89988D0E94F61774
:1026F000BC01990F880B990B0E94521C2F813885C1
:1027000049855A850E94A81B20E030E040E85FE33D
:102710000E94A81B6F87788B898B9A8B18C020E04A
:1027200030E040E050E46F85788989899A890E9479
:10273000151C87FF0CC01B861C861D861E8680E02C
:1027400090E0A0E0B0E48F87988BA98BBA8BDF91E3
:10275000CF91FF90EF90DF90CF900895AF92BF920E
:10276000CF92DF92EF92FF920F931F93CF93DF935D
:10277000EC01C601E7E3F1E0F983E8836A832B8388
:102780003C834D835E83EF82F88609871A871B8618
:102790001C861D861E8600E010E020E83FE30F87C0
:1027A000188B298B3A8BD88ECF8ABA8EA98E662346
:1027B00079F00E94F217BC01990F880B990B0E94C7
:1027C000521C2B813C814D815E810E94A81B04C05C
:1027D00060E070E080E090E46B8B7C8B8D8B9E8B57
:1027E000DF91CF911F910F91FF90EF90DF90CF90ED
:1027F000BF90AF900895FC016385748585859685AB
:102800000895FC0163817481858196810895FC019E
:1028100067817085818592850895FC01678570893F
:10282000818992890895FC016389748985899689D3
:102830000895FC014787508B618B728B0895FC01D2
:10284000828108950F931F93CF93DF9300D000D020
:10285000CDB7DEB78C019B01770F440B550BCA0136
:10286000B90129833A834B835C830E94521CF8018F
:102870006083718382839383148215821682178208
:1028800060E472E48FE090E029813A814B815C81C1
:102890000E94551BF80120873187428753870F908C
:1028A0000F900F900F90DF91CF911F910F9108958E
:1028B000089581E008958F929F92AF92BF92CF9238
:1028C000DF92EF920F931F93CF93DF9300D000D04E
:1028D000CDB7DEB78C016B01DC0112966D917D9155
:1028E0008D919C9115970E941A1C9B01AC01F801D7
:1028F000628973898489958929833A834B835C83B0
:102900000E941A1C4B015C01D8011E966D917D91AD
:102910008D919C9151970E941A1CD601ED91FC91CA
:102920000280F381E02DEE24E39400E010E02981A1
:102930003A81A401C60109950F900F900F900F9056
:10294000DF91CF911F910F91EF90DF90CF90BF90CB
:10295000AF909F908F900895FC01468357836087C6
:1029600071870895FC0142875387648775870895AE
:10297000FC0146875787608B718B0895FC01428B61
:10298000538B648B758B08952F923F924F925F9279
:102990006F927F928F929F92AF92BF92CF92DF926F
:1029A000EF92FF920F931F93CF93DF93CDB7DEB7D4
:1029B00028970FB6F894DEBF0FBECDBF9A838983E8
:1029C0008B01DC011E96CD90DD90ED90FC9051972F
:1029D00012968D909D90AD90BC901597A501940195
:1029E000C701B6010E94A91B6D837E838F839887E0
:1029F000C8010E94F2171C01E981FA8142885388BC
:102A00006488758882819381A481B58189839A8342
:102A1000AB83BC83A5019401C701B6010E94A81B2A
:102A200020E030E0A9010E94151CB82EBB1CBB247D
:102A3000BB1C29813A814B815C81C301B2010E9498
:102A4000A81B20E030E0A9010E94151C881F8827E0
:102A5000881FB82AB101330C880B990B0E94521CB5
:102A60009B01AC01FF24F3946D817E818F81988559
:102A70000E94021D18160CF0F12CBF2829813A8102
:102A80004B815C81C301B2010E94A91B6B017C01D7
:102A9000C8010E94F617BC01990F880B990B0E9480
:102AA000521C9B01AC0111E0C701B6010E94021D3E
:102AB00018160CF010E0812F8B2928960FB6F89489
:102AC000DEBF0FBECDBFDF91CF911F910F91FF9061
:102AD000EF90DF90CF90BF90AF909F908F907F90BE
:102AE0006F905F904F903F902F9008958F929F929C
:102AF000AF92BF92EF92FF920F931F93CF937C01FF
:102B00008B01CB010E941F1481115CC0C8010E947F
:102B100013144B015C01C8010E9401149B01AC011C
:102B2000C501B4010E94A91B4B015C01F701228180
:102B300033814481558166857785808991890E949A
:102B4000A81B9B01AC01C1E0C501B4010E94021D9C
:102B500018160CF0C0E080E0C82BF701828893883B
:102B6000A488B588C8010E940D149B01AC01C50161
:102B7000B4010E94021D1816C4F4C8010E940D146D
:102B80004B015C01C8010E9407149B01AC01C50107
:102B9000B4010E94A91B11E0F701228933894489FD
:102BA00055890E94021D18160CF010E0812F8C230D
:102BB000CF911F910F91FF90EF90BF90AF909F909A
:102BC0008F900895C8010E9413144B015C01F70116
:102BD00022813381448155816685778580899189F9
:102BE0000E94A91B9B01AC01C501B4010E94151CE8
:102BF000881F8827881FC0E0AFCFCF92DF92EF9267
:102C0000FF92CF93DF93EC01CB014E815F8168850A
:102C1000798570584E835F83688779870E94FB139C
:102C200020E030E040E85EE30E94071D2A853B85F6
:102C30004C855D850E94A91B6B017C0120E030E082
:102C400040EC50E40E94021D18162CF0CA86DB8668
:102C5000EC86FD8608C080E090E0A0ECB0E48A87B6
:102C60009B87AC87BD8720E030E040EC50EC6A8564
:102C70007B858C859D850E94151C87FF08C080E0A0
:102C800090E0A0ECB0EC8A879B87AC87BD87DF9192
:102C9000CF91FF90EF90DF90CF9008954F925F9289
:102CA0006F927F928F929F92AF92BF92CF92DF925C
:102CB000EF92FF920F931F93CF93DF93EC018B0161
:102CC0004A885B886C887D888A809B80AC80BD80C8
:102CD000CA84DB84EC84FD84A5019401C301B201A4
:102CE0000E94A81BA70196010E94A91B20E030E0CA
:102CF000A9010E94151C87FF0FC0F7FAF094F7F89E
:102D0000F094CA86DB86EC86FD8620E030E040E861
:102D10005FE3C501B40139C0A5019401C301B2014B
:102D20000E94A91BA70196010E94A91B6B017C01AF
:102D3000C8010E94F617BC01990F880B990B0E94DD
:102D4000521C9B01AC01C701B6010E94021D18165E
:102D50001CF58A859B85AC85BD85B0588A879B8785
:102D6000AC87BD87C8010E94F617BC01990F880B7C
:102D7000990B0E94521C2A813B814C815D810E94EB
:102D8000A81B2A853B854C855D850E94A91B6A8B03
:102D90007B8B8C8B9D8B3BC0CE84DF84E888F9884D
:102DA0008A809B80AC80BD80A5019401C701B601DB
:102DB0000E94A81B20E030E0A9010E94151C87FF9B
:102DC00005C080911401909115011DC0A5019401C9
:102DD000C701B6010E94A91B6B017C01C8010E94BA
:102DE000F217BC01990F880B990B0E94521C9B0192
:102DF000AC01C701B6010E94021D181644F480916F
:102E0000120190911301EC8DFD8D91838083DF91F0
:102E1000CF911F910F91FF90EF90DF90CF90BF90D7
:102E2000AF909F908F907F906F905F904F9008959C
:102E3000CF93DF93EC01688D798D0E9476158823FE
:102E400019F0688D798D09C06A8D7B8DCE010E9445
:102E50007615882331F06A8D7B8DCE010E94FD1599
:102E60000CC06E897F89CE010E94C414882329F08A
:102E70006E897F89CE010E944E162E813F81488542
:102E800059856E857F85888999890E94A91B6E87DF
:102E90007F87888B998B2A853B854C855D856A89E0
:102EA0007B898C899D890E94A91B6A8B7B8B8C8B6B
:102EB0009D8BDF91CF910895AF92BF92CF92DF9219
:102EC000EF92FF920F931F93CF93DF93EC01590181
:102ED0008FE391E0998388834A835B836C837D834E
:102EE00080E090E0A0E8BFEB8E839F83A887B9873E
:102EF0000E94340A62E070E00E941F1BBC01990F1F
:102F0000880B990B0E94521C20E030E040E05FE308
:102F10000E94A81B6A877B878C879D87C5010E94BA
:102F2000F21797FD0196BC0175956795072E000C69
:102F3000880B990B0E94521C6E877F87888B998B18
:102F4000C5010E94F61797FD0196BC01759567951E
:102F5000072E000C880B990B0E94521C6A8B7B8BEE
:102F60008C8B9D8BBF8AAE8A198F088FFB8EEA8E61
:102F7000DD8ECC8EDF91CF911F910F91FF90EF905E
:102F8000DF90CF90BF90AF9008950895CF92EF92C9
:102F9000FF920F931F93DB01FC01048115812281B5
:102FA0003381ED91FC9111970190F081E02DC12CBE
:102FB000E12CF12C41E050E061E070E0CD01099599
:102FC0001F910F91FF90EF90CF900895FC0187E43F
:102FD00091E0918380837383628355834483378335
:102FE00026830895FC01828193810895FC018481E8
:102FF00095810895FC01918D228D892F90E0805C50
:103000009F4F821B91098F7399270895FC01918D21
:10301000828D981731F0828DE80FF11D858D90E03B
:1030200008958FEF9FEF0895FC01918D828D981781
:1030300061F0828DDF01A80FB11D5D968C91928D9C
:103040009F5F9F73928F90E008958FEF9FEF089599
:1030500088EA99E1892B49F080E090E0892B29F0FA
:103060000E94A81981110C9400000895FC01848D20
:10307000DF01A80FB11DA35ABF4F2C91848D90E0A2
:1030800001968F739927848FA689B7892C93A0897D
:10309000B1898C9180648C93938D848D981306C034
:1030A0000288F389E02D80818F7D80830895CF92FF
:1030B000DF92FF920F931F93CF93DF931F92CDB7B1
:1030C000DEB76C0181E0D60158968C9358975B96D9
:1030D0009C915B975C968C915C97981307C0509677
:1030E000ED91FC915197808185FD2BC0D6015B96B7
:1030F0000C9110E00F5F1F4F0F731127F02EF60198
:10310000848DF8120FC00FB607FCF9CF0088F18943
:10311000E02D808185FFF3CFC60169830E943618B8
:103120006981EDCF838DF601E80FF11DE35AFF4F62
:103130006083F601038F0288F389E02D808180622D
:103140000CC0D6015696ED91FC915797608350962E
:10315000ED91FC91519780818064808381E090E0C3
:103160000F90DF91CF911F910F91FF90DF90CF9043
:103170000895CF93DF93EC01888D8823C9F0EA8905
:10318000FB89808185FD05C0A889B9898C9186FD60
:103190000FC00FB607FCF5CF808185FFF2CFA8895D
:1031A000B9898C9185FFEDCFCE010E943618E7CF0B
:1031B000DF91CF910895CF92DF92EF92FF921F930C
:1031C000CF93DF93EC016A017B01122FE889F98923
:1031D00082E080834115514E61057105B1F060E0D8
:1031E00079E08DE390E0A70196010E94331BDA019C
:1031F000C9010197A109B109B695A795979587953A
:103200009C01211580E13807A8F0E889F98910822E
:1032100060E874E88EE190E0A70196010E94331BFC
:10322000DA01C9010197A109B109B695A79597954A
:1032300087959C01EC85FD853083EE85FF85208395
:10324000188EEC89FD891083EA89FB898081806171
:103250008083EA89FB89808188608083EA89FB8991
:10326000808180688083EA89FB8980818F7D80836B
:10327000DF91CF911F91FF90EF90DF90CF90089555
:1032800008950E94BB1A0E9440190E946102C8E280
:10329000D8E10E94DD022097E1F30E942818F9CFBF
:1032A0001F920F920FB60F9211242F938F939F931B
:1032B000EF93FF93E0919101F09192018081E09171
:1032C0009701F091980182FD12C0908180919A013E
:1032D0008F5F8F7320919B01821751F0E0919A01CB
:1032E000F0E0EF57FE4F958F80939A0101C08081E7
:1032F000FF91EF919F918F912F910F900FBE0F90A3
:103300001F9018951F920F920FB60F9211242F93B2
:103310003F934F935F936F937F938F939F93AF935D
:10332000BF93EF93FF9381E891E00E943618FF91DD
:10333000EF91BF91AF919F918F917F916F915F912D
:103340004F913F912F910F900FBE0F901F901895A6
:1033500081E891E00E94FA1721E0892B09F420E02E
:10336000822F0895E1E8F1E01382128288EE93E063
:10337000A0E0B0E084839583A683B7838FE491E0D7
:103380009183808385EC90E09587848784EC90E03E
:103390009787868780EC90E0918B808B81EC90E022
:1033A000938B828B82EC90E0958B848B86EC90E003
:1033B000978B868B118E128E138E148E0895CF9359
:1033C000DF9300D000D0CDB7DEB79B01AC01611513
:1033D00071058105910569F069833A834B835C83AC
:1033E0000E94E31E29813A814B815C810E94551B1A
:1033F00003C060E070E0CB010F900F900F900F9032
:10340000DF91CF9108950C94741D0C94741D8E302F
:1034100008F08E502091160190E4299F900111240C
:103420008770822B80937C0080917A0080648093E7
:103430007A0080917A0086FDFCCF809178002091FF
:10344000790090E0922B08951F920F920FB60F9281
:1034500011242F933F938F939F93AF93BF938091AA
:103460001F0290912002A0912102B091220230917E
:103470001E0223E0230F2D3720F40196A11DB11D5C
:1034800005C026E8230F0296A11DB11D20931E0240
:1034900080931F0290932002A0932102B0932202F6
:1034A0008091230290912402A0912502B0912602DE
:1034B0000196A11DB11D8093230290932402A09335
:1034C0002502B0932602BF91AF919F918F913F91BA
:1034D0002F910F900FBE0F901F9018953FB7F89443
:1034E0008091230290912402A0912502B09126029E
:1034F00026B5A89B05C02F3F19F00196A11DB11D4F
:103500003FBFBA2FA92F982F8827820F911DA11D89
:10351000B11DBC01CD0142E0660F771F881F991FC6
:103520004A95D1F70895CF92DF92EF92FF92CF9311
:10353000DF936B017C010E946E1AEB01C114D10470
:10354000E104F10489F00E941E1B0E946E1A6C1B9C
:103550007D0B683E734090F381E0C81AD108E10802
:10356000F108C851DC4FEACFDF91CF91FF90EF9087
:10357000DF90CF900895789484B5826084BD84B53F
:10358000816084BD85B5826085BD85B5816085BD5E
:10359000EEE6F0E0808181608083E1E8F0E0108277
:1035A000808182608083808181608083E0E8F0E0B8
:1035B000808181608083E1EBF0E0808184608083A2
:1035C000E0EBF0E0808181608083EAE7F0E08081D9
:1035D0008460808380818260808380818160808339
:1035E0008081806880831092C1000895CF92DF921D
:1035F000EF92FF920F931F93CF93DF936C01EB0138
:103600007B01E40EF51E00E010E0CE15DF0561F051
:103610006991D601ED91FC910190F081E02DC601F8
:103620000995080F191FF1CFC801DF91CF911F91A4
:103630000F91FF90EF90DF90CF900895089597FB42
:10364000072E16F4009407D077FD09D00E947F1B47
:1036500007FC05D03EF4909581959F4F0895709595
:1036600061957F4F0895A1E21A2EAA1BBB1BFD0195
:103670000DC0AA1FBB1FEE1FFF1FA217B307E40751
:10368000F50720F0A21BB30BE40BF50B661F771FA9
:10369000881F991F1A9469F7609570958095909589
:1036A0009B01AC01BD01CF010895052E97FB1EF4CF
:1036B00000940E946C1B57FD07D00E94331B07FC2F
:1036C00003D04EF40C946C1B509540953095219589
:1036D0003F4F4F4F5F4F089590958095709561953E
:1036E0007F4F8F4F9F4F08950E94991BA59F900D6C
:1036F000B49F900DA49F800D911D11240895AA1BC5
:10370000BB1B51E107C0AA1FBB1FA617B70710F0CC
:10371000A61BB70B881F991F5A95A9F780959095FE
:10372000BC01CD010895EE0FFF1F0590F491E02D2F
:103730000994A29FB001B39FC001A39F700D811D8A
:103740001124911DB29F700D811D1124911D0895AA
:103750005058BB27AA270E94C01B0C94C81C0E946B
:10376000BA1C38F00E94C11C20F039F49F3F19F4B4
:1037700026F40C94B71C0EF4E095E7FB0C94B11CF6
:10378000E92F0E94D91C58F3BA1762077307840700
:10379000950720F079F4A6F50C94FB1C0EF4E09547
:1037A0000B2EBA2FA02D0B01B90190010C01CA01FB
:1037B000A0011124FF27591B99F0593F50F4503EA6
:1037C00068F11A16F040A22F232F342F4427585F98
:1037D000F3CF469537952795A795F0405395C9F7B0
:1037E0007EF41F16BA0B620B730B840BBAF0915068
:1037F000A1F0FF0FBB1F661F771F881FC2F70EC007
:10380000BA0F621F731F841F48F4879577956795D9
:10381000B795F7959E3F08F0B0CF9395880F08F0C5
:103820009927EE0F9795879508950E948D1C08F4AF
:1038300081E008950E94211C6894B1110C94FC1C35
:1038400008950E94E11C88F09F5798F0B92F99279E
:10385000B751B0F0E1F0660F771F881F991F1AF07B
:10386000BA95C9F714C0B13091F00E94FB1CB1E0C9
:1038700008950C94FB1C672F782F8827B85F39F0C8
:10388000B93FCCF3869577956795B395D9F73EF414
:1038900090958095709561957F4F8F4F9F4F0895BC
:1038A000E89409C097FB3EF49095809570956195DA
:1038B0007F4F8F4F9F4F9923A9F0F92F96E9BB2790
:1038C0009395F695879577956795B795F111F8CF0C
:1038D000FAF4BB0F11F460FF1BC06F5F7F4F8F4F77
:1038E0009F4F16C0882311F096E911C0772321F06D
:1038F0009EE8872F762F05C0662371F096E8862F05
:1039000070E060E02AF09A95660F771F881FDAF75B
:10391000880F9695879597F90895990F0008550F88
:10392000AA0BE0E8FEEF16161706E807F907C0F045
:1039300012161306E407F50798F0621B730B840B4D
:10394000950B39F40A2661F0232B242B252B21F427
:1039500008950A2609F4A140A6958FEF811D811DC7
:10396000089597F99F6780E870E060E008959FEF01
:1039700080EC089500240A94161617061806090606
:10398000089500240A9412161306140605060895D5
:10399000092E0394000C11F4882352F0BB0F40F45D
:1039A000BF2B11F460FF04C06F5F7F4F8F4F9F4F9D
:1039B000089557FD9058440F551F59F05F3F71F01F
:1039C0004795880F97FB991F61F09F3F79F0879586
:1039D0000895121613061406551FF2CF4695F1DF0F
:1039E00008C0161617061806991FF1CF869571059F
:1039F000610508940895E894BB2766277727CB01D3
:103A000097F908950E948D1C08F48FEF08950E9485
:103A10001A1D0C94C81C0E94BA1C38F00E94C11CCC
:103A200020F0952311F00C94B11C0C94B71C1124B8
:103A30000C94FC1C0E94D91C70F3959FC1F3950F48
:103A400050E0551F629FF001729FBB27F00DB11D22
:103A5000639FAA27F00DB11DAA1F649F6627B00DB2
:103A6000A11D661F829F2227B00DA11D621F739F9B
:103A7000B00DA11D621F839FA00D611D221F749FA9
:103A80003327A00D611D231F849F600D211D822FF0
:103A9000762F6A2F11249F5750409AF0F1F0882317
:103AA0004AF0EE0FFF1FBB1F661F771F881F915044
:103AB0005040A9F79E3F510580F00C94B11C0C9426
:103AC000FC1C5F3FE4F3983ED4F3869577956795A9
:103AD000B795F795E7959F5FC1F7FE2B880F911D6E
:103AE0009695879597F908950F931F93CF93DF933A
:103AF0008230910510F482E090E0E0912902F0918B
:103B00002A0220E030E0A0E0B0E0309719F14081D7
:103B100051810281138148175907C8F0841795070E
:103B200069F4109731F012960C93129713961C9328
:103B300027C00093290210932A0222C021153105C3
:103B400019F04217530718F49A01BD01EF01DF0184
:103B5000F801DBCF21153105F9F0281B390B243092
:103B6000310580F48A819B816115710521F0FB018B
:103B70009383828304C090932A0280932902FE01DA
:103B8000329644C0FE01E20FF31F819391932250BD
:103B90003109398328833AC02091270230912802C5
:103BA000232B41F42091020130910301309328022C
:103BB0002093270220910001309101012115310548
:103BC00041F42DB73EB74091040150910501241BEB
:103BD000350BE0912702F0912802E217F307A0F4D9
:103BE0002E1B3F0B2817390778F0AC014E5F5F4F53
:103BF0002417350748F04E0F5F1F5093280240935B
:103C000027028193919302C0E0E0F0E0CF01DF91C1
:103C1000CF911F910F910895CF93DF93009709F4EF
:103C200081C0FC01329713821282A0912902B091C7
:103C30002A02109781F420813181820F931F2091F5
:103C40002702309128022817390751F5F0932802EE
:103C5000E093270267C0ED0120E030E0CE17DF07D8
:103C600040F44A815B819E0141155105F1F0EA0162
:103C7000F5CFD383C28340815181840F951FC8172C
:103C8000D90759F488819981840F951F02969183F1
:103C900080838A819B81938382832115310529F456
:103CA000F0932A02E09329023DC0E901FB83EA83F5
:103CB00049915991C40FD51FEC17FD0761F480811C
:103CC0009181840F951F0296E901998388838281EF
:103CD00093819B838A83E0E0F0E012968D919C9122
:103CE0001397009719F0FD01DC01F7CF8D919C919E
:103CF00011979D012E5F3F4F820F931F2091270246
:103D0000309128022817390769F4309729F4109266
:103D10002A021092290202C013821282B093280252
:103D2000A0932702DF91CF9108958F929F92AF9237
:103D3000BF92CF92DF92EF92FF92CF93DF93EC018D
:103D4000688179818A819B81611571058105910561
:103D500021F464E279ED8BE597E02DE133EF41E06A
:103D600050E00E94551B49015A019B01AC01A7EA92
:103D7000B1E40E94741B6B017C01ACEEB4EFA501B1
:103D800094010E944F1FDC01CB018C0D9D1DAE1DC7
:103D9000BF1DB7FF03C00197A109B048888399836D
:103DA000AA83BB83BC01CD019F77DF91CF91FF90A8
:103DB000EF90DF90CF90BF90AF909F908F9008953D
:103DC0000E94951E089586E091E00E94951E089538
:103DD0006093060170930701809308019093090195
:103DE0000895FC0188279927E89421912032E9F36E
:103DF000293010F02E30C8F32B3241F02D3239F437
:103E0000689404C00E941A1F820F911D21912053B3
:103E10002A30C0F31EF4909581959F4F0895BB27DB
:103E20004A3031F4992322F4BDE2909581959F4F59
:103E30000C94231F7AE0979F902D879F802D910DE2
:103E400011240895BB27FB015527AA27880F991F26
:103E5000AA1FA41710F0A41B83955051B9F7A05DB9
:103E6000AA3308F0A95DA193009779F7B111B19336
:103E70001192CB010C943C1FDC01FC01672F719166
:103E80007723E1F7329704C07C916D937083629140
:103E9000AE17BF07C8F30895B7FF0C94741B0E94B8
:0C3EA000741B821B930B0895F894FFCF55
:103EAC0000002B02200001000000430D430D040014
:103EBC00030002000100010000000091030000005B
:103ECC0000260A00000000450CF80BF40BE90BED82
:103EDC000BF10B000000003E13D71200000000187D
:103EEC00175B1400000000C517C617000000005730
:0C3EFC0018F61AFA1714180618B9180066
:00000001FF
