:100000000C9435000C945D000C945D000C945D0024
:100010000C945D000C945D000C945D000C945D00EC
:100020000C945D000C945D000C945D000C945D00DC
:100030000C945D000C94690D0C945D000C945D00B3
:100040000C944B150C945D000C9479140C94AB1427
:100050000C945D000C945D000C945D000C945D00AC
:100060000C945D000C945D00DB1411241FBECFEFD7
:10007000D8E0DEBFCDBF11E0A0E0B1E0E8E8F4E3F6
:1000800002C005900D92A437B107D9F722E0A4E78A
:10009000B1E001C01D92A336B207E1F710E0C5E35D
:1000A000D0E004C02197FE010E944416C433D1075A
:1000B000C9F70E946A140C94421A0C940000EF9243
:1000C000FF920F931F93CF93DF93CDB7DEB768975F
:1000D0000FB6F894DEBF0FBECDBFCE0101960E94D1
:1000E000F20084E090E00E942C157C0160E070E05A
:1000F0000E94D405F0927901E092780186E090E0C8
:100100000E942C157C010E942001F0927701E09260
:1001100076018CE090E00E942C157C0140E650E0D6
:1001200068E770E00E94F107F0927B01E0927A01AB
:1001300082E190E00E942C157C01009176011091E3
:100140007701209178013091790160917A01709165
:100150007B01AE014F5F5F4F0E94E405F0927D018D
:10016000E0927C0180917A0190917B0106969093B8
:1001700075018093740126E040E855E260E070E08C
:1001800089EB91E00E94041467E171E089EB91E052
:100190000E94111380917C0190917D010E9479074A
:1001A00068960FB6F894DEBF0FBECDBFDF91CF913A
:1001B0001F910F91FF90EF90089561E070E08091A2
:1001C0007401909175010E943F0260E0809174017A
:1001D000909175010E94060280917C0190917D01B1
:1001E0000C94F806FC0180E090E0A0E4B0E4808389
:1001F0009183A283B38340E050E068EC71E44483D0
:1002000055836683778380879187A287B38780E051
:1002100090E0A0EFB2E484879587A687B78780E057
:1002200090E0A0ECB2E4808B918BA28BB38B80E04A
:1002300090E0A0E7B2E4848B958BA68BB78B0895F2
:10024000FC0184E291E0918380831382128280E337
:1002500090E095838483089540917E0150917F01C1
:10026000E0E8F1E080E090E020E030E084179507DE
:100270007CF461916C3719F42F5F3F4F07C0223037
:10028000310524F081589E4F0C94141A0196EECF3C
:1002900010927F0110927E010895CF93DF93EC01BD
:1002A00089EB91E00E942313892B11F189EB91E0F6
:1002B0000E943D138F3F2FEF9207D1F083329105BB
:1002C00029F40E942C019B838A83EACF8A3291050C
:1002D00039F320917E0130917F01F901E058FE4F02
:1002E00080832F5F3F4F30937F0120937E01D8CFD3
:1002F0008A819B81DF91CF9108952091B001982F41
:10030000969596959695E091B501F091B601877016
:10031000629FB0011124690F711DE60FF71F413074
:1003200061F420E830E0A90102C0559547958A950F
:10033000E2F7CA019081892B19C041110CC02FE747
:100340003FEFA90102C0559547958A95E2F7CA018A
:10035000908189230BC020E830E0A90102C05595A7
:1003600047958A95E2F7CA0190818927808308958D
:10037000FC011282138280E090E02091B001309164
:10038000AF01239F90011124821793074CF4E09151
:10039000B501F091B601E80FF91F10820196EDCF7B
:1003A0000895EF92FF921F93CF93DF9300D0CDB7C4
:1003B000DEB77C01162F642F862F887FE1F06695CB
:1003C00066956695629FC00111242A8369830E9405
:1003D0009718F701918380834A816981009769F0BA
:1003E000128213829C01812F0E94AF0CC7010E94D0
:1003F000B80180E003C081E001C084E00F900F905D
:10040000DF91CF911F91FF90EF900895613041F0FF
:1004100028F0623099F580E090E01BC00C94B801A0
:10042000FC011282138280E090E04FEF2091B00136
:100430003091AF01239F9001112482179307F4F4A8
:10044000E091B501F091B601E80FF91F40830196E4
:10045000EDCF2091B0013091AF01239F9001112485
:10046000821793075CF4E091B501F091B601E80FB3
:10047000F91F2081209520830196EBCF08952091CC
:10048000B201022E000C330B2F5F3F4F4091AF01A2
:10049000429FC001439F900D11242091AC01820F17
:1004A000911D01966115710589F02091A601309189
:1004B000A70182179307C9F72091A6013091A701E0
:1004C00082179307C9F361507109ECCF0895862F05
:1004D000642FE091B001482F50E098E0E99FF001CF
:1004E00011244E175F073CF49091AF01691718F47F
:1004F000422F0C947D010895EF92FF920F93CF93BA
:10050000DF93EC01FA01D9014217530751F4202F70
:10051000462F6E2FDF91CF910F91FF90EF900C94AB
:1005200067022417350720F4CA019927F901DC0175
:10053000CF01877099272FEF30E0790102C0F59441
:10054000E7948A95E2F79E2D83E0F695E7958A95E4
:10055000E1F74091B001469FA0011124E40FF51F7F
:10056000BD016770772702C0359527956A95E2F738
:10057000322F309523E0B695A7952A95E1F74A0FDB
:100580005B1FE417F50719F4932F9E2130E001302B
:10059000D1F4DF01119668817981E60FF71F808120
:1005A000982B90832FEF88819981A417B50730F499
:1005B000FC01EA0FFB1F20831196F5CFA80FB91F8E
:1005C0008C91382B39C001111BC0DF011196688155
:1005D0007981E60FF71F9095808198239083888119
:1005E0009981A417B50730F4FC01EA0FFB1F1082B4
:1005F0001196F5CFA80FB91F30958C9138231CC0E8
:100600000230D9F4DF01119668817981E60FF71F76
:1006100080819827908388819981A417B50740F439
:10062000FC01EA0FFB1F8081809580831196F3CF38
:10063000A80FB91F8C9138273C93DF91CF910F9170
:10064000FF90EF900895EF92FF920F93CF93DF9377
:100650004217530741F4202FDF91CF910F91FF9064
:10066000EF900C9467022417350720F4FA01FF2756
:10067000A9019F01762F7770E0E8F0E002C0F595C0
:10068000E7957A95E2F7BE2F7091B001749FE00173
:10069000759FD00D11246695669566957E01E60ED0
:1006A000F11CB701013091F424173507C0F1EC01BA
:1006B000E881F981E60FF71FA081AB2BA083E091C1
:1006C000B0016E0F711D4F5F5F4FEECF011113C070
:1006D000E0952417350718F1EC01A881B981A60F20
:1006E000B71FFC91FE23FC93F091B0016F0F711DB9
:1006F0004F5F5F4FEECF023091F42417350778F04B
:10070000EC01E881F981E60FF71FA081AB27A083F8
:10071000E091B0016E0F711D4F5F5F4FEECFDF9123
:10072000CF910F91FF90EF9008952F923F924F92AB
:100730005F926F927F928F929F92AF92BF92CF9271
:10074000DF92EF92FF920F931F93CF93DF9300D02E
:1007500000D0CDB7DEB7FC01942F302F0E2DA62E82
:10076000B12C4091B00188E0489FA00111244A15A6
:100770005B050CF484C08091AF01891708F47FC039
:10078000A22FB0E04A175B070CF479C0831708F476
:1007900076C0621308C0232F30E0492F50E0CF010C
:1007A0000E9423036CC0931307C09D01A501692F0C
:1007B000CF010E947C0263C0892E912C261738F449
:1007C000A5014A1B5B0B5C834B838FEF06C0AD0119
:1007D0004A195B095C834B8381E0C32ED12C391706
:1007E00030F494012C193D0969019FEF03C0C8182A
:1007F000D90891E02B813C812C153D0544F43B81C7
:100800002C81DC82CB82C32ED22E11E001C010E0FD
:10081000CC0CDD1C26012B813C81421A530A220F8D
:10082000331FE12CF12C292E990F3308682E880FE5
:1008300077084B815C814E155F050CF1402F682DC8
:100840008A2D29833A830E947D0129813A8157FCB0
:1008500009C0113019F4A60CB71C02C0820C931CFD
:10086000421A530A113019F4820C931C02C0A60CD0
:10087000B71C4C0C5D1C5FEFE51AF50ADACF0F9040
:100880000F900F900F90DF91CF911F910F91FF90DC
:10089000EF90DF90CF90BF90AF909F908F907F9020
:1008A0006F905F904F903F902F9008954F925F927E
:1008B0006F927F928F929F92AF92BF92CF92DF9270
:1008C000EF92FF920F931F93CF93DF935C01D62E8D
:1008D000142FD22FC02F5E2C8FEFC816C1F0442EDC
:1008E000E02EF12CE40EF11C862E912C3401620EC8
:1008F000711C842D90E08E159F054CF40C2D9301F6
:10090000A401642DC5010E947C024394F2CFDD0D49
:10091000E52C012F2D2F412F6D2DC5010E94950330
:10092000C10F0C2F2D2D412F6D2DC5010E94950358
:100930002D2F412F6D2FC5010E9495032D2F4C2F78
:100940006D2DC5010E949503DF91CF911F910F91ED
:10095000FF90EF90DF90CF90BF90AF909F908F90DF
:100960007F906F905F904F9008952F923F924F929B
:100970005F926F927F928F929F92AF92BF92CF922F
:10098000DF92EF92FF920F931F93CF93DF93CDB738
:10099000DEB729970FB6F894DEBF0FBECDBF5C015E
:1009A000562EF42E922E102F30E03987288781E0C2
:1009B00090E01C01221A330AC90191958195910991
:1009C000FC01EE0FFF1FFE83ED83FFEFEF1669F0D2
:1009D000462F50E0240F351F88859985481B590BF9
:1009E0000E2D6F2DC5010E947C02412F692D6F0DC8
:1009F000852D0E947D01412F6F2D6919852D0E9443
:100A00007D01412F6F2D892D850D0E947D01412F84
:100A10006F2D852D89190E947D01CC24C394D12C82
:100A20001C82E52DF0E0FA83E983C6010197288551
:100A30003985821793070CF098C037FC0BC0215002
:100A40003109398728878D819E8102969E838D8307
:100A5000280E391EC601880F991F0196280E391ECF
:100A600098859F0D9B83EF2DF885EF1BEF834F2C0F
:100A70004C0C2FEFE21609F441C0892D90E0E88577
:100A8000F985E817F907A9F00E2D69807A806C0CBA
:100A90007D1C930189809A808C189D08A4016B812C
:100AA000C5010E947C029301A4016F81C5010E94CF
:100AB0007C02FC818F2F90E0C816D906E9F02885CA
:100AC00039852C153D05C1F00E2D89809A80820E46
:100AD000931E940169807A8088859985681A790ABD
:100AE000A301642DC5010E947C029401A3016F2D16
:100AF0006C19C5010E947C029884CC82752C7C0CF8
:100B0000412F6B81872D0E947D01852C8C18412FF0
:100B10006B81882D0E947D01412F6F81872D0E945E
:100B20007D01412F6F81882D0E947D01412F642D11
:100B30007884750C872D0E947D01412F642D852CB2
:100B40009885891A882D0E947D016F2C6C18412F81
:100B5000662D872D0E947D01412F662D882D0E94D4
:100B60007D01EFEFCE1ADE0A60CF29960FB6F8941A
:100B7000DEBF0FBECDBFDF91CF911F910F91FF90D0
:100B8000EF90DF90CF90BF90AF909F908F907F902D
:100B90006F905F904F903F902F900895FC0182815D
:100BA0000E942E15925008952AE231E0FC01318313
:100BB000208373836283089560E876E988E990E092
:100BC0000E940815CB0108954F925F926F927F9219
:100BD0008F929F92AF92BF92CF92DF92EF92FF924D
:100BE0000F931F93CF93DF93EC014A015901380112
:100BF000798768871F861E86198A188A82E090E0A6
:100C00000E942C159D878C8788E090E00E942C150F
:100C10008C0120E030E040E450E4F4016089718907
:100C2000828993890E9459160E943D176B017C01AD
:100C300020E030E040E450E4F40164857585868569
:100C400097850E9459160E943D1721E030E0A601C9
:100C5000C8010E94BC12198308838BE190E00E94B6
:100C60002C152C01C880D980F401E480F580068120
:100C70001781208531854285538560E00E947E0E74
:100C80005D824C828BE190E00E942C152C01C88083
:100C9000D980F401E480F5800681178120853185B3
:100CA00042855385530161E00E947E0E5F824E8231
:100CB0008EE190E00E942C155C01CC84DD84EE80F6
:100CC000FF800C811D8128813981F401408151818F
:100CD000628173810E942E12BB82AA828CE090E016
:100CE0000E942C158C01F401648975898689978985
:100CF0000E943D17C8010E94F20E1B870A8780914F
:100D0000100190911101EC85FD8591838083DF9125
:100D1000CF911F910F91FF90EF90DF90CF90BF90F8
:100D2000AF909F908F907F906F905F904F900895BD
:100D3000CF93DF93EC018E859F85680F791F7F87A6
:100D40006E8788899989480F591F598B488B40E0D5
:100D500050E0BA018C819D810E94E90E40E050E094
:100D6000BA018E819F810E94E90E888199810E943B
:100D7000C81297FD0196BC0175956795072E000C6A
:100D8000880B990B0E947517AB01BC018A819B816E
:100D90000E948A0F888199810E94CC1297FD01964A
:100DA000BC0175956795072E000C880B990B0E9466
:100DB0007517AB01BC018A819B810E94900F40E0B6
:100DC00050E0BA018A819B810E947E0F40E050E092
:100DD000BA018A819B810E94840F80910E019091BB
:100DE0000F01EC85FD8591838083DF91CF9108957C
:100DF000CF93DF93EC01EC85FD858081918120917B
:100E00001401309115018217930729F440E050E056
:100E100061E070E00BC02091120130911301821744
:100E2000930739F441E050E060E070E0CE010E94A9
:100E300098068A859B850E94290F882309F456C04D
:100E400088819981DC01ED91FC910190F081E02D88
:100E5000099588819981DC01ED91FC9168857985FE
:100E60000280F381E02D09958C819D81DC01ED915B
:100E7000FC910190F081E02D09958E819F81DC012C
:100E8000ED91FC910190F081E02D09958A819B8183
:100E9000DC01ED91FC910190F081E02D09958C81B0
:100EA0009D81DC01ED91FC91688579850280F3815B
:100EB000E02D09958E819F81DC01ED91FC91688583
:100EC00079850280F381E02D09958A819B81DC017F
:100ED000ED91FC91688579850280F381E02D09957B
:100EE0008A859B85DF91CF910C94280FDF91CF915C
:100EF000089520910E0130910F01DC011C96ED91B7
:100F0000FC911D97318320830895FC018281938198
:100F10000895FC0184819581089560E006960C9403
:100F200006028F929F92AF92BF92CF92DF92EF9282
:100F30000F93CF93DF93EC015B014A016901E881D4
:100F4000F9810680F781E02D099595012C0D3D1D55
:100F50002817390744F5E881F9810084F185E02DEF
:100F6000CE0109959601280D391D28173907DCF4A3
:100F7000C5018C199D0918161906ACF4C4018C1909
:100F80009D09181619067CF4CE010696EE2019F07C
:100F900022E0E22E02C0EE24EA9401E02C2D482D3E
:100FA0006A2D0E94B504DF91CF910F91EF90DF90F1
:100FB000CF90BF90AF909F908F900895CF92EF9277
:100FC0000F930696CC2019F032E0C32E02C0CC2439
:100FD000CA94EE24E3940E9456040F91EF90CF90B0
:100FE0000895FC01242F80E391E091838083628344
:100FF000738344835583462F61E0CF0106960C949A
:10100000D10108952091A6013091A7018091AC01F2
:1010100090E02817390779F41092B8011092B701BF
:101020008091B2018093B30187EB98E09093A30184
:101030008093A20116C02091A6013091A701809152
:10104000AD019091AE012817390759F48BE398E070
:101050009093A3018093A201E0910A01F0910B010A
:1010600009958091A6019091A70101969093A701FF
:101070008093A60108952091A6013091A701809147
:10108000AD019091AE01281739070CF44EC08CEADF
:1010900093E090938900809388001092A7011092AA
:1010A000A6018091A8019091A901A091AA01B091F7
:1010B000AB010196A11DB11D8093A8019093A901D8
:1010C000A093AA01B093AB0180919E0190919F01E2
:1010D000A091A001B091A101892B8A2B8B2B09F142
:1010E00080919E0190919F01A091A001B091A101DA
:1010F000181619061A061B0684F580919E01909118
:101100009F01A091A001B091A1010197A109B1098E
:1011100080939E0190939F01A093A001B093A101A1
:101120001CC01092B1002B9818C02091A6013091DC
:10113000A7018091B401082E000C990B28173907DC
:1011400061F48AE490E0909389008093880082E0C3
:1011500098E09093A3018093A2018091A6019091C1
:10116000A70101969093A7018093A601089530915D
:1011700084002091B1012A50231B2350F0F72D5FEA
:1011800019F02A9511F001C00000E091A401F0913E
:10119000A50109959091B3018091B20191110FC001
:1011A0008093B3019091B0012091B7013091B801C3
:1011B000290F311D3093B8012093B70103C091501E
:1011C0009093B3014091A6015091A7014F5F5F4FEB
:1011D000082E000C990B01966091AF01689F900159
:1011E000699F300D11248091AC01B901680F711D08
:1011F0004617570731F482E098E09093A30180935B
:10120000A2018091A6019091A70101969093A70158
:101210008093A60108950F93CF93DF93E6EAF1E060
:10122000A785B089C091B701D091B8018285AC0F74
:10123000BD1F0BB10F7703C000FA07F90BB90D9072
:10124000000007FA07F90BB900000000000006FAD9
:1012500007F90BB900000000000005FA07F90BB907
:1012600000000000000004FA07F90BB900000000BC
:10127000000003FA07F90BB900000000000002FAB1
:1012800007F90BB900000000000001FA07F90BB9DB
:101290008A9591F60000000000FA07F90BB90BB12E
:1012A0000F7707FB07F90BB9DF91CF910F910895E5
:1012B0000F93CF93DF93E6EAF1E0A785B089C09161
:1012C000B701D091B8018285AC0FBD1F0BB10F776C
:1012D00003C000FA07F90BB90D9007FA07F90BB92B
:1012E0000000000006FA07F90BB90000000005FA3B
:1012F00007F90BB90000000004FA07F90BB9000068
:10130000000003FA07F90BB90000000002FA07F920
:101310000BB900008A9501FA07F90BB9D1F6000064
:1013200000FA07F90BB90BB10F7707FB07F90BB9F7
:10133000DF91CF910F9108950F93CF93DF93E6EA5A
:10134000F1E0A785B089C091B701D091B80182853D
:10135000AC0FBD1F02C0000C0BB80D9000000BB805
:1013600000000000000C0BB800000000000C0BB8DF
:1013700000000000000C0BB800000000000C0BB8CF
:1013800000000000000C0BB80000000C8A950BB8A0
:1013900011F70000000C0BB80000000000005F987F
:1013A000DF91CF910F9108950F93CF93DF93E6EAEA
:1013B000F1E0A785B089C091B701D091B8018285CD
:1013C000AC0FBD1F8E3191F08D3151F08C3149F051
:1013D0008B3141F08A3139F0893131F0883129F08F
:1013E0001CC032C048C05EC074C08AC00D900BB82B
:1013F0000000000C0BB80000000C0BB80000000C43
:101400000BB80000000C0BB80000000C0BB800007B
:10141000000C0BB80000000C0BB80D900BB80000CE
:10142000000C0BB80000000C0BB80000000C0BB84F
:101430000000000C0BB80000000C0BB80000000C02
:101440000BB80000000C0BB80D900BB80000000C9E
:101450000BB80000000C0BB80000000C0BB800002B
:10146000000C0BB80000000C0BB80000000C0BB80F
:101470000000000C0BB80D900BB80000000C0BB86E
:101480000000000C0BB80000000C0BB80000000CB2
:101490000BB80000000C0BB80000000C0BB80000EB
:1014A000000C0BB80D900BB80000000C0BB800003E
:1014B000000C0BB80000000C0BB80000000C0BB8BF
:1014C0000000000C0BB80000000C0BB80000000C72
:1014D0000BB80D900BB80000000C0BB80000000C0E
:1014E0000BB80000000C0BB80000000C0BB800009B
:1014F000000C0BB80000000C0BB80000000C0BB87F
:101500000D900BB80000000C0BB80000000C0BB8DD
:101510000000000C0BB80000000C0BB80000000C21
:101520000BB80000000C0BB80000000C0BB80D90BD
:101530000BB80000000C0BB80000000C0BB800004A
:10154000000C0BB80000000C0BB80000000C0BB82E
:101550000000000C0BB80000000C0BB80D900BB88D
:101560000000000C0BB80000000C0BB80000000CD1
:101570000BB80000000C0BB80000000C0BB800000A
:10158000000C0BB80000000C0BB80D900BB800005D
:10159000000C0BB80000000C0BB80000000C0BB8DE
:1015A0000000000C0BB80000000C0BB80000000C91
:1015B0000BB80000000C0BB80D900BB80000000C2D
:1015C0000BB80000000C0BB80000000C0BB80000BA
:1015D000000C0BB80000000C0BB80000000C0BB89E
:1015E0000000000C0BB80D900BB80000000C0BB8FD
:1015F0000000000C0BB80000000C0BB80000000C41
:101600000BB80000000C0BB80000000C0BB8000079
:10161000000C0BB80D900BB80000000C0BB80000CC
:10162000000C0BB80000000C0BB80000000C0BB84D
:101630000000000C0BB80000000C0BB80000000C00
:101640000BB80D900BB80000000C0BB80000000C9C
:101650000BB80000000C0BB80000000C0BB8000029
:10166000000C0BB80000000C0BB80000000C0BB80D
:101670000D900BB80000000C0BB80000000C0BB86C
:101680000000000C0BB80000000C0BB80000000CB0
:101690000BB80000000C0BB80000000C0BB80D904C
:1016A0000BB80000000C0BB80000000C0BB80000D9
:1016B000000C0BB80000000C0BB80000000C0BB8BD
:1016C0000000000C0BB80000000C0BB80D900BB81C
:1016D0000000000C0BB80000000C0BB80000000C60
:1016E0000BB80000000C0BB80000000C0BB8000099
:1016F000000C0BB80000000C0BB80D900BB80000EC
:10170000000C0BB80000000C0BB80000000C0BB86C
:101710000000000C0BB80000000C0BB80000000C1F
:101720000BB80000000C0BB80D900BB80000000CBB
:101730000BB80000000C0BB80000000C0BB8000048
:10174000000C0BB80000000C0BB80000000C0BB82C
:101750000000000C0BB80D900BB80000000C0BB88B
:101760000000000C0BB80000000C0BB80000000CCF
:101770000BB80000000C0BB80000000C0BB8000008
:10178000000C0BB80D900BB80000000C0BB800005B
:10179000000C0BB80000000C0BB80000000C0BB8DC
:1017A0000000000C0BB80000000C0BB80000000C8F
:1017B0000BB80D900BB80000000C0BB80000000C2B
:1017C0000BB80000000C0BB80000000C0BB80000B8
:1017D000000C0BB80000000C0BB80000000C0BB89C
:1017E0000D900BB80000000C0BB80000000C0BB8FB
:1017F0000000000C0BB80000000C0BB80000000C3F
:101800000BB80000000C0BB80000000C0BB80D90DA
:101810000BB80000000C0BB80000000C0BB8000067
:10182000000C0BB80000000C0BB80000000C0BB84B
:101830000000000C0BB80000000C0BB80D900BB8AA
:101840000000000C0BB80000000C0BB80000000CEE
:101850000BB80000000C0BB80000000C0BB8000027
:10186000000C0BB80000000C0BB80D900BB800007A
:10187000000C0BB80000000C0BB80000000C0BB8FB
:101880000000000C0BB80000000C0BB80000000CAE
:101890000BB80000000C0BB80D900BB80000000C4A
:1018A0000BB80000000C0BB80000000C0BB80000D7
:1018B000000C0BB80000000C0BB80000000C0BB8BB
:1018C0000000000C0BB80D900BB80000000C0BB81A
:1018D0000000000C0BB80000000C0BB80000000C5E
:1018E0000BB80000000C0BB80000000C0BB8000097
:1018F000000C0BB80D900BB80000000C0BB80000EA
:10190000000C0BB80000000C0BB80000000C0BB86A
:101910000000000C0BB80000000C0BB80000000C1D
:101920000BB80D900BB80000000C0BB80000000CB9
:101930000BB80000000C0BB80000000C0BB8000046
:10194000000C0BB80000000C0BB80000000C0BB82A
:10195000000000005F98DF91CF910F910895CF9321
:10196000DF93D82FE62F3093B6012093B501609313
:10197000B0014093AF011092A8011092A9011092FA
:10198000AA011092AB01642F70E0882319F084E063
:1019900091E002C088ED90E00E94D0156150609304
:1019A000B201C091B201C093B30188E0E89F9001F9
:1019B0001124032E000C440B550B60EE72E080E006
:1019C00090E00E940616243061F018F4233089F06C
:1019D0000BC0253019F0263049F006C088E599E0A3
:1019E0000AC08CE999E007C0273018F08BE099E035
:1019F00002C084ED99E09093A5018093A401579AC9
:101A0000219A5F98299A239A82EC8093800089E139
:101A1000809381004091AF012C2FCC0F330B2F5FAF
:101A20003F4F429FC001439F900D1124DD23C9F019
:101A300097FD019695958795919581959109845685
:101A40008093AC0187EC8093B10187E08093B4016F
:101A500088E391E09093AE018093AD018FEF93E026
:101A600018C097FD01969595879591958195910957
:101A700085578093AC018FEB8093B10183E0809315
:101A8000B40186E091E09093AE018093AD0187EFC1
:101A900093E090938700809386008AE490E090938F
:101AA0008900809388008091AD019091AE010196EC
:101AB0009093A7018093A6018BE398E09093A301F4
:101AC0008093A20181E080936F007894DF91CF91A1
:101AD00008951F920F920FB60F9211242F933F93E8
:101AE0004F935F936F937F938F939F93AF93BF9326
:101AF000EF93FF93E0910C01F0910D010995E091B6
:101B0000A201F091A3010995FF91EF91BF91AF91CF
:101B10009F918F917F916F915F914F913F912F9105
:101B20000F900FBE0F901F9018952F923F924F92DB
:101B30005F926F927F928F929F92AF92BF92CF925D
:101B4000EF92FF920F931F93CF93DF9300D000D0BB
:101B5000CDB7DEB77C011B01DB010D911C91FC01AF
:101B600067817085818592850E943D174B015C01DC
:101B7000D70113966D917D918D919C9116970E943E
:101B80003D179B01AC01F7016785708981899289B6
:101B900029833A834B835C830E943D172B013C01D0
:101BA000D70153966D917D918D919C9156970E948E
:101BB0003D17D801ED91FC91CC24C394E12CF12C7C
:101BC000840129813A81A201C10109950F900F90EA
:101BD0000F900F90DF91CF911F910F91FF90EF9099
:101BE000CF90BF90AF909F908F907F906F905F90BD
:101BF0004F903F902F900895CF92DF92EF92FF92F7
:101C0000CF93DF93EC01898D9A8DDC01ED91FC91EE
:101C10000190F081E02D0995BC01990F880B990B7B
:101C20000E94751720E030E048EC53E40E94CB1688
:101C30006B877C878D879E872F85388949895A894C
:101C40000E945A166F87788B898B9A8B2F813885E3
:101C500049855A850E945A166B017C018F89988D9F
:101C60000E94CC12BC01990F880B990B0E9475172A
:101C70009B01AC01C701B6010E9425181816FCF49F
:101C80001B861C861D861E868F89988D0E94CC120D
:101C9000BC01990F880B990B0E9475172F8138850D
:101CA00049855A850E94591620E030E040E85FE3FC
:101CB0000E9459166F87788B898B9A8B18C020E009
:101CC00030E040E050E46F85788989899A890E94E4
:101CD000C61687FF0CC01B861C861D861E8680E0EC
:101CE00090E0A0E0B0E48F87988BA98BBA8BDF914E
:101CF000CF91FF90EF90DF90CF900895AF92BF9279
:101D0000CF92DF92EF92FF920F931F93CF93DF93C7
:101D1000EC01C601EEE3F1E0F983E8836A832B83EB
:101D20003C834D835E83EF82F88609871A871B8682
:101D30001C861D861E8600E010E020E83FE30F872A
:101D4000188B298B3A8BD88ECF8ABA8EA98E6623B0
:101D500079F00E94C812BC01990F880B990B0E9460
:101D600075172B813C814D815E810E94591604C0FC
:101D700060E070E080E090E46B8B7C8B8D8B9E8BC1
:101D8000DF91CF911F910F91FF90EF90DF90CF9057
:101D9000BF90AF900895FC01638574858585968515
:101DA0000895FC0163817481858196810895FC0109
:101DB00067817085818592850895FC0167857089AA
:101DC000818992890895FC0163897489858996893E
:101DD0000895FC014787508B618B728B0895FC013D
:101DE000828108950F931F93CF93DF9300D000D08B
:101DF000CDB7DEB78C019B01770F440B550BCA01A1
:101E0000B90129833A834B835C830E947517F801DB
:101E10006083718382839383148215821682178272
:101E200060E472E48FE090E029813A814B815C812B
:101E30000E940616F80120873187428753870F904A
:101E40000F900F900F90DF91CF911F910F910895F8
:101E5000089581E008958F929F92AF92BF92CF92A2
:101E6000DF92EF92FF920F931F93CF93DF9300D0F7
:101E700000D0CDB7DEB77C016B01DB010D911C9169
:101E8000FC0162817381848195810E943D179B01D1
:101E9000AC01D70152966D917D918D919C91559792
:101EA00029833A834B835C830E943D174B015C017D
:101EB000F70166857785808991890E943D17D80151
:101EC0001296ED91FC911397EE24E39400E010E05C
:101ED00029813A81A401C60109950F900F900F90B6
:101EE0000F90DF91CF911F910F91FF90EF90DF90B6
:101EF000CF90BF90AF909F908F900895FC01468344
:101F00005783608771870895FC01428753876487F0
:101F100075870895FC0146875787608B718B0895FC
:101F2000FC01428B538B648B758B08952F923F92EB
:101F30004F925F926F927F928F929F92AF92BF92D9
:101F4000CF92DF92EF92FF920F931F93CF93DF9385
:101F5000CDB7DEB728970FB6F894DEBF0FBECDBF62
:101F60009A8389838B01DC011E96CD90DD90ED90E4
:101F7000FC90519712968D909D90AD90BC901597C6
:101F8000A5019401C701B6010E945A166D837E8394
:101F90008F839887C8010E94C8121C01E981FA81C9
:101FA000428853886488758882819381A481B58131
:101FB00089839A83AB83BC83A5019401C701B601D1
:101FC0000E94591620E030E0A9010E94C616B82EE2
:101FD000BB1CBB24BB1C29813A814B815C81C301A2
:101FE000B2010E94591620E030E0A9010E94C616F5
:101FF000881F8827881FB82AB101330C880B990BDA
:102000000E9475179B01AC01FF24F3946D817E81C2
:102010008F8198850E94251818160CF0F12CBF2886
:1020200029813A814B815C81C301B2010E945A1619
:102030006B017C01C8010E94CC12BC01990F880B76
:10204000990B0E9475179B01AC0111E0C701B60105
:102050000E94251818160CF010E0812F8B29289665
:102060000FB6F894DEBF0FBECDBFDF91CF911F91A9
:102070000F91FF90EF90DF90CF90BF90AF909F9027
:102080008F907F906F905F904F903F902F9008952A
:102090008F929F92AF92BF92EF92FF920F931F93F6
:1020A000CF937C018B01CB010E94EF0E81115CC0AC
:1020B000C8010E94E30E4B015C01C8010E94D10ED1
:1020C0009B01AC01C501B4010E945A164B015C0191
:1020D000F701228133814481558166857785808926
:1020E00091890E9459169B01AC01C1E0C501B40160
:1020F0000E94251818160CF0C0E080E0C82BF701EC
:1021000082889388A488B588C8010E94DD0E9B014F
:10211000AC01C501B4010E9425181816C4F4C80109
:102120000E94DD0E4B015C01C8010E94D70E9B018D
:10213000AC01C501B4010E945A1611E0F7012289D1
:102140003389448955890E94251818160CF010E02F
:10215000812F8C23CF911F910F91FF90EF90BF9013
:10216000AF909F908F900895C8010E94E30E4B019D
:102170005C01F70122813381448155816685778531
:10218000808991890E945A169B01AC01C501B40156
:102190000E94C616881F8827881FC0E0AFCFCF9245
:1021A000DF92EF92FF92CF93DF93EC01CB014E8150
:1021B0005F816885798570584E835F8368877987EA
:1021C0000E94CB0E20E030E040E85EE30E942A1837
:1021D0002A853B854C855D850E945A166B017C01E2
:1021E00020E030E040EC50E40E94251818162CF056
:1021F000CA86DB86EC86FD8608C080E090E0A0EC15
:10220000B0E48A879B87AC87BD8720E030E040EC54
:1022100050EC6A857B858C859D850E94C61687FF5C
:1022200008C080E090E0A0ECB0EC8A879B87AC8788
:10223000BD87DF91CF91FF90EF90DF90CF90089511
:102240004F925F926F927F928F929F92AF92BF92C6
:10225000CF92DF92EF92FF920F931F93CF93DF9372
:10226000EC018B014A885B886C887D888A809B8022
:10227000AC80BD80CA84DB84EC84FD84A50194011C
:10228000C301B2010E945916A70196010E945A1675
:1022900020E030E0A9010E94C61687FF0FC0F7FAC0
:1022A000F094F7F8F094CA86DB86EC86FD8620E091
:1022B00030E040E85FE3C501B40139C0A5019401F5
:1022C000C301B2010E945A16A70196010E945A1634
:1022D0006B017C01C8010E94CC12BC01990F880BD4
:1022E000990B0E9475179B01AC01C701B6010E94B2
:1022F000251818161CF58A859B85AC85BD85B058B8
:102300008A879B87AC87BD87C8010E94CC12BC011D
:10231000990F880B990B0E9475172A813B814C817C
:102320005D810E9459162A853B854C855D850E94FA
:102330005A166A8B7B8B8C8B9D8B3BC0CE84DF8443
:10234000E888F9888A809B80AC80BD80A5019401D3
:10235000C701B6010E94591620E030E0A9010E9491
:10236000C61687FF05C080911401909115011DC00C
:10237000A5019401C701B6010E945A166B017C01A8
:10238000C8010E94C812BC01990F880B990B0E94CA
:1023900075179B01AC01C701B6010E9425181816DC
:1023A00044F48091120190911301EC8DFD8D918385
:1023B0008083DF91CF911F910F91FF90EF90DF907D
:1023C000CF90BF90AF909F908F907F906F905F90D5
:1023D0004F900895CF93DF93EC01688D798D0E9423
:1023E0004810882319F0688D798D09C06A8D7B8D1E
:1023F000CE010E944810882331F06A8D7B8DCE017A
:102400000E94CF100CC06E897F89CE010E94960F6A
:10241000882329F06E897F89CE010E9420112E81A8
:102420003F81488559856E857F85888999890E9475
:102430005A166E877F87888B998B2A853B854C85BA
:102440005D856A897B898C899D890E945A166A8B71
:102450007B8B8C8B9D8BDF91CF910895AF92BF9238
:10246000CF92DF92EF92FF920F931F93CF93DF9360
:10247000EC01590186E491E0998388834A835B8368
:102480006C837D8380E090E0A0E8BFEB8E839F8328
:10249000A887B9870E94DC0562E070E00E94D01531
:1024A000BC01990F880B990B0E94751720E030E052
:1024B00040E05FE30E9459166A877B878C879D877F
:1024C000C5010E94C81297FD0196BC0175956795DC
:1024D000072E000C880B990B0E9475176E877F875B
:1024E000888B998BC5010E94CC1297FD0196BC0187
:1024F00075956795072E000C880B990B0E94751730
:102500006A8B7B8B8C8B9D8BBF8AAE8A198F088FD1
:10251000FB8EEA8EDD8ECC8EDF91CF911F910F91D5
:10252000FF90EF90DF90CF90BF90AF900895089507
:10253000CF92EF92FF920F931F93CF93DF93DB0124
:10254000ED91FC911197EC010C811D812A813B8159
:102550000190F081E02DC12CE12CF12C41E050E004
:1025600061E070E0CD010995DF91CF911F910F914E
:10257000FF90EF90CF900895FC018EE491E091835D
:1025800080837383628355834483378326830895CE
:10259000FC01828193810895FC01848195810895D5
:1025A000CF92DF92EF92FF920F931F93CF93DF931F
:1025B0006C01EB017B01E40EF51E00E010E0CE158E
:1025C000DF0561F06991D601ED91FC910190F081F8
:1025D000E02DC6010995080F191FF1CFC801DF9141
:1025E000CF911F910F91FF90EF90DF90CF900895C2
:1025F0006115710579F0FB0101900020E9F7319731
:10260000AF01461B570BDC01ED91FC910280F38179
:10261000E02D099480E090E0089562E571E00C946B
:10262000F8120F931F93CF93DF93EC010E94F812DF
:102630008C01CE010E940D13800F911FDF91CF916D
:102640001F910F910895FC01918D228D892F90E0AB
:10265000805C9F4F821B91098F7399270895FC011D
:10266000918D828D981731F0828DE80FF11D858D47
:1026700090E008958FEF9FEF0895FC01918D828D7A
:10268000981761F0828DDF01A80FB11D5D968C91C6
:10269000928D9F5F9F73928F90E008958FEF9FEFD1
:1026A000089581ED94E1892B49F080E090E0892B39
:1026B00029F00E94D11481110C9400000895FC01AE
:1026C000848DDF01A80FB11DA35ABF4F2C91848DBB
:1026D00090E001968F739927848FA689B7892C93F0
:1026E000A089B1898C9180648C93938D848D98138B
:1026F00006C00288F389E02D80818F7D8083089554
:10270000CF92DF92FF920F931F93CF93DF931F928D
:10271000CDB7DEB76C0181E0D60158968C935897FF
:102720005B969C915B975C968C915C97981307C025
:102730005096ED91FC915197808185FD2BC0D6017B
:102740005B960C9110E00F5F1F4F0F731127F02E57
:10275000F601848DF8120FC00FB607FCF9CF008880
:10276000F189E02D808185FFF3CFC60169830E9446
:102770005F136981EDCF838DF601E80FF11DE35AF8
:10278000FF4F6083F601038F0288F389E02D80817B
:1027900080620CC0D6015696ED91FC9157976083EC
:1027A0005096ED91FC91519780818064808381E007
:1027B00090E00F90DF91CF911F910F91FF90DF90EC
:1027C000CF900895CF93DF93EC01888D8823C9F0D3
:1027D000EA89FB89808185FD05C0A889B9898C912A
:1027E00086FD0FC00FB607FCF5CF808185FFF2CFC5
:1027F000A889B9898C9185FFEDCFCE010E945F1326
:10280000E7CFDF91CF910895CF92DF92EF92FF92C1
:102810001F93CF93DF93EC016A017B01122FE889AC
:10282000F98982E080834115514E61057105B1F04F
:1028300060E079E08DE390E0A70196010E94E41545
:10284000DA01C9010197A109B109B695A795979534
:1028500087959C01211580E13807A8F0E889F9895E
:10286000108260E874E88EE190E0A70196010E9472
:10287000E415DA01C9010197A109B109B695A79537
:10288000979587959C01EC85FD853083EE85FF85C6
:102890002083188EEC89FD891083EA89FB89808169
:1028A00080618083EA89FB89808188608083EA89EE
:1028B000FB89808180688083EA89FB8980818F7DA4
:1028C0008083DF91CF911F91FF90EF90DF90CF90A9
:1028D000089508950E9495150E9469140E945F0052
:1028E000C1E5D3E10E94DD002097E1F30E9451137E
:1028F000F9CF1F920F920FB60F9211242F938F933F
:102900009F93EF93FF93E091C901F091CA018081F9
:10291000E091CF01F091D00182FD12C090818091B1
:10292000D2018F5F8F732091D301821751F0E09114
:10293000D201F0E0E754FE4F958F8093D20101C0A1
:102940008081FF91EF919F918F912F910F900FBEFA
:102950000F901F9018951F920F920FB60F9211248F
:102960002F933F934F935F936F937F938F939F9397
:10297000AF93BF93EF93FF9389EB91E00E945F13B6
:10298000FF91EF91BF91AF919F918F917F916F9147
:102990005F914F913F912F910F900FBE0F901F901D
:1029A000189589EB91E00E94231321E0892B09F40B
:1029B00020E0822F0895E9EBF1E01382128288EE85
:1029C00093E0A0E0B0E084839583A683B78387E695
:1029D00091E09183808385EC90E09587848784ECF7
:1029E00090E09787868780EC90E0918B808B81ECDC
:1029F00090E0938B828B82EC90E0958B848B86ECBD
:102A000090E0978B868B118E128E138E148E089504
:102A1000CF93DF9300D000D0CDB7DEB79B01AC01E0
:102A2000611571058105910569F069833A834B83CE
:102A30005C830E94061A29813A814B815C810E9445
:102A4000061603C060E070E0CB010F900F900F906E
:102A50000F90DF91CF9108950C9497188E3008F065
:102A60008E502091160190E4299F900111248770C7
:102A7000822B80937C0080917A00806480937A001E
:102A800080917A0086FDFCCF8091780020917900BA
:102A900090E0922B08951F920F920FB60F9211247F
:102AA0002F933F938F939F93AF93BF938091570240
:102AB00090915802A0915902B0915A023091560259
:102AC00023E0230F2D3720F40196A11DB11D05C071
:102AD00026E8230F0296A11DB11D20935602809374
:102AE000570290935802A0935902B0935A028091D2
:102AF0005B0290915C02A0915D02B0915E02019632
:102B0000A11DB11D80935B0290935C02A0935D02B6
:102B1000B0935E02BF91AF919F918F913F912F91A2
:102B20000F900FBE0F901F901895789484B5826017
:102B300084BD84B5816084BD85B5826085BD85B561
:102B4000816085BDEEE6F0E0808181608083E1E810
:102B5000F0E0108280818260808380818160808348
:102B6000E0E8F0E0808181608083E1EBF0E080814B
:102B700084608083E0EBF0E0808181608083EAE71D
:102B8000F0E08081846080838081826080838081A6
:102B9000816080838081806880831092C100089565
:102BA00097FB072E16F4009407D077FD09D00E94FA
:102BB000301607FC05D03EF4909581959F4F0895FF
:102BC000709561957F4F0895A1E21A2EAA1BBB1B39
:102BD000FD010DC0AA1FBB1FEE1FFF1FA217B307E9
:102BE000E407F50720F0A21BB30BE40BF50B661FFF
:102BF000771F881F991F1A9469F7609570958095C3
:102C000090959B01AC01BD01CF010895052E97FB66
:102C10001EF400940E941D1657FD07D00E94E41573
:102C200007FC03D04EF40C941D165095409530953A
:102C300021953F4F4F4F5F4F089590958095709528
:102C400061957F4F8F4F9F4F08950E944A16A59F11
:102C5000900DB49F900DA49F800D911D1124089597
:102C6000AA1BBB1B51E107C0AA1FBB1FA617B707B2
:102C700010F0A61BB70B881F991F5A95A9F78095CE
:102C80009095BC01CD010895EE0FFF1F0590F491C2
:102C9000E02D0994A29FB001B39FC001A39F700DC6
:102CA000811D1124911DB29F700D811D1124911D54
:102CB00008955058BB27AA270E9471160C94EB1751
:102CC0000E94DD1738F00E94E41720F039F49F3F8E
:102CD00019F426F40C94DA170EF4E095E7FB0C9443
:102CE000D417E92F0E94FC1758F3BA17620773072D
:102CF0008407950720F079F4A6F50C941E180EF4BD
:102D0000E0950B2EBA2FA02D0B01B90190010C01FB
:102D1000CA01A0011124FF27591B99F0593F50F413
:102D2000503E68F11A16F040A22F232F342F44276B
:102D3000585FF3CF469537952795A795F040539563
:102D4000C9F77EF41F16BA0B620B730B840BBAF033
:102D50009150A1F0FF0FBB1F661F771F881FC2F79E
:102D60000EC0BA0F621F731F841F48F487957795B2
:102D70006795B795F7959E3F08F0B0CF9395880F6C
:102D800008F09927EE0F9795879508950E94B01740
:102D900008F481E008950E94DF160C94EB170E945E
:102DA000E41758F00E94DD1740F029F45F3F29F046
:102DB0000C94D41751110C941F180C94DA170E941C
:102DC000FC1768F39923B1F3552391F3951B550B29
:102DD000BB27AA2762177307840738F09F5F5F4FEE
:102DE000220F331F441FAA1FA9F335D00E2E3AF02D
:102DF000E0E832D091505040E695001CCAF72BD045
:102E0000FE2F29D0660F771F881FBB1F2617370795
:102E10004807AB07B0E809F0BB0B802DBF01FF27C7
:102E200093585F4F3AF09E3F510578F00C94D417B9
:102E30000C941F185F3FE4F3983ED4F38695779582
:102E40006795B795F7959F5FC9F7880F911D969580
:102E5000879597F90895E1E0660F771F881FBB1FDC
:102E6000621773078407BA0720F0621B730B840B89
:102E7000BA0BEE1F88F7E09508950E9444176894F6
:102E8000B1110C941F1808950E94041888F09F57E0
:102E900098F0B92F9927B751B0F0E1F0660F771F7E
:102EA000881F991F1AF0BA95C9F714C0B13091F074
:102EB0000E941E18B1E008950C941E18672F782FF9
:102EC0008827B85F39F0B93FCCF386957795679539
:102ED000B395D9F73EF490958095709561957F4FA5
:102EE0008F4F9F4F0895E89409C097FB3EF490954B
:102EF0008095709561957F4F8F4F9F4F9923A9F0D3
:102F0000F92F96E9BB279395F69587957795679561
:102F1000B795F111F8CFFAF4BB0F11F460FF1BC0A5
:102F20006F5F7F4F8F4F9F4F16C0882311F096E938
:102F300011C0772321F09EE8872F762F05C06623E6
:102F400071F096E8862F70E060E02AF09A95660F9F
:102F5000771F881FDAF7880F9695879597F9089558
:102F6000990F0008550FAA0BE0E8FEEF161617069A
:102F7000E807F907C0F012161306E407F50798F002
:102F8000621B730B840B950B39F40A2661F0232B1B
:102F9000242B252B21F408950A2609F4A140A69597
:102FA0008FEF811D811D089597F99F6780E870E07C
:102FB00060E008959FEF80EC089500240A941616AF
:102FC000170618060906089500240A941216130617
:102FD000140605060895092E0394000C11F48823A5
:102FE00052F0BB0F40F4BF2B11F460FF04C06F5FC1
:102FF0007F4F8F4F9F4F089557FD9058440F551F97
:1030000059F05F3F71F04795880F97FB991F61F06A
:103010009F3F79F087950895121613061406551FE1
:10302000F2CF4695F1DF08C0161617061806991F4D
:10303000F1CF86957105610508940895E894BB2742
:1030400066277727CB0197F908950E94B01708F4F7
:103050008FEF08950E943D180C94EB170E94DD1726
:1030600038F00E94E41720F0952311F00C94D41747
:103070000C94DA1711240C941F180E94FC1770F39B
:10308000959FC1F3950F50E0551F629FF001729F0D
:10309000BB27F00DB11D639FAA27F00DB11DAA1F1C
:1030A000649F6627B00DA11D661F829F2227B00D69
:1030B000A11D621F739FB00DA11D621F839FA00DF4
:1030C000611D221F749F3327A00D611D231F849F44
:1030D000600D211D822F762F6A2F11249F5750409B
:1030E0009AF0F1F088234AF0EE0FFF1FBB1F661F16
:1030F000771F881F91505040A9F79E3F510580F0DF
:103100000C94D4170C941F185F3FE4F3983ED4F34B
:10311000869577956795B795F795E7959F5FC1F782
:10312000FE2B880F911D9695879597F908950F931B
:103130001F93CF93DF938230910510F482E090E0EB
:10314000E0916102F091620220E030E0A0E0B0E0A6
:10315000309719F140815181028113814817590735
:10316000C8F08417950769F4109731F012960C9304
:10317000129713961C9327C000936102109362026A
:1031800022C02115310519F04217530718F49A018E
:10319000BD01EF01DF01F801DBCF21153105F9F0A9
:1031A000281B390B2430310580F48A819B816115FD
:1031B000710521F0FB019383828304C09093620226
:1031C00080936102FE01329644C0FE01E20FF31FBC
:1031D0008193919322503109398328833AC02091F9
:1031E0005F0230916002232B41F420910201309163
:1031F00003013093600220935F022091000130911F
:1032000001012115310541F42DB73EB7409104016C
:1032100050910501241B350BE0915F02F091600293
:10322000E217F307A0F42E1B3F0B2817390778F09D
:10323000AC014E5F5F4F2417350748F04E0F5F1FFC
:103240005093600240935F028193919302C0E0E04B
:10325000F0E0CF01DF91CF911F910F910895CF93AF
:10326000DF93009709F481C0FC0132971382128228
:10327000A0916102B0916202109781F420813181A6
:10328000820F931F20915F02309160022817390747
:1032900051F5F0936002E0935F0267C0ED0120E01A
:1032A00030E0CE17DF0740F44A815B819E01411573
:1032B0005105F1F0EA01F5CFD383C28340815181FA
:1032C000840F951FC817D90759F488819981840FF5
:1032D000951F0296918380838A819B819383828349
:1032E0002115310529F4F0936202E09361023DC09B
:1032F000E901FB83EA8349915991C40FD51FEC176B
:10330000FD0761F480819181840F951F0296E90188
:1033100099838883828193819B838A83E0E0F0E0B4
:1033200012968D919C911397009719F0FD01DC0185
:10333000F7CF8D919C9111979D012E5F3F4F820F8A
:10334000931F20915F02309160022817390769F4BA
:10335000309729F4109262021092610202C0138227
:103360001282B0936002A0935F02DF91CF91089523
:103370008F929F92AF92BF92CF92DF92EF92FF9285
:10338000CF93DF93EC01688179818A819B816115FC
:1033900071058105910521F464E279ED8BE597E0F3
:1033A0002DE133EF41E050E00E94061649015A0139
:1033B0009B01AC01A7EAB1E40E9425166B017C01D8
:1033C000ACEEB4EFA50194010E943D1ADC01CB01E3
:1033D0008C0D9D1DAE1DBF1DB7FF03C00197A10938
:1033E000B04888839983AA83BB83BC01CD019F77B2
:1033F000DF91CF91FF90EF90DF90CF90BF90AF9093
:103400009F908F9008950E94B819089586E091E0EA
:103410000E94B81908956093060170930701809384
:103420000801909309010895FC0188279927E894E1
:1034300021912032E9F3293010F02E30C8F32B32DD
:1034400041F02D3239F4689404C00E94321A820F80
:10345000911D219120532A30C0F31EF4909581953F
:103460009F4F08957AE0979F902D879F802D910D13
:1034700011240895B7FF0C9425160E942516821B6F
:08348000930B0895F894FFCFAF
:103488000000630220000100000001080108040098
:10349800030002000100015349454D414E4B4F00C6
:1034A800000000004D0100000000CE0500000000F3
:1034B800DE0791078D078507890700000000FC0DCE
:1034C800950D00000000EA112B0F00000000971274
:1034D80098120D0A006E616E00696E66006F76665E
:1034E800002E00000000008013D01223133D132F7C
:0434F80013E21300C8
:00000001FF
