:100000000C9437020C945F020C945F020C945F0214
:100010000C945F020C945F020C945F020C945F02DC
:100020000C945F020C945F020C945F020C945F02CC
:100030000C945F020C9414130C945F020C945F02F6
:100040000C94991A0C945F020C94C5190C94F7192E
:100050000C945F020C945F020C945F020C945F029C
:100060000C945F020C945F0208080000000000007E
:10007000000000003E41554155493E003E7F6B7FE8
:100080006B773E0022777F7F3E1C0800081C3E7F76
:100090003E1C0800081C2A7F2A081C00081C3E7F02
:1000A0003E081C00001C3E3E3E1C00FFFFE3C1C199
:1000B000C1E3FF00001C2222221C00FFFFE3DDDD64
:1000C000DDE3FF000F03053948483000083E081CF7
:1000D00022221C0018141010307060000F19111328
:1000E00037766000082A1C771C2A080060787E7F1B
:1000F0007E786000030F3F7F3F0F0300081C2A0833
:100100002A1C080066666666006666003F65653DF7
:10011000050505000C324824124C30000000000098
:100120007F7F7F00081C2A082A1C3E00081C3E7F97
:100130001C1C1C001C1C1C7F3E1C0800080C7E7F25
:100140007E0C080008183F7F3F1808000000707000
:10015000707F7F000014227F22140000081C1C3EC8
:100160003E7F7F007F7F3E3E1C1C08000000000099
:1001700000000000183C3C18180018003636140027
:100180000000000036367F367F363600081E201C01
:10019000023C080060660C18306606003C663C288D
:1001A00065663F001818183000000000603018180D
:1001B00018306000060C1818180C060000361C7F5A
:1001C0001C3600000008083E08080000000000304F
:1001D000303060000000003C000000000000000023
:1001E0000060600000060C18306000003C666E760F
:1001F00066663C001818381818187E003C66060C15
:1002000030607E003C66061C06663C000C1C2C4CD4
:100210007E0C0C007E607C0606663C003C66607CC2
:1002200066663C007E660C0C181818003C66663C3E
:1002300066663C003C66663E06663C000018180098
:10024000181800000018180018183000060C183094
:10025000180C060000003C003C0000006030180C48
:10026000183060003C66061C1800180038445C58C2
:10027000423C00003C66667E666666007C66667C84
:1002800066667C003C66606060663C007C66666614
:1002900066667C007E60607C60607E007E60607C64
:1002A000606060003C6660606E663C006666667E0C
:1002B000666666003C18181818183C001E0C0C0CDA
:1002C0006C6C3800666C7870786C6600606060609A
:1002D00060607E0063777F6B6363630063737B6F33
:1002E000676363003C66666666663C007C666666BD
:1002F0007C6060003C6666666E3C06007C66667CE0
:10030000786C66003C66603C06663C007E5A1818B5
:10031000181818006666666666663E00666666665B
:10032000663C18006363636B7F7763006363361C0E
:10033000366363006666663C181818007E060C1863
:1003400030607E001E18181818181E000060301843
:100350000C060000781818181818780008142241A4
:10036000000000000000000000007F000C0C0600F0
:100370000000000000003C063E663E006060607CBD
:1003800066667C0000003C6660663C000606063E31
:1003900066663E0000003C667E603C001C363030E5
:1003A0007C303000003E66663E063C006060607C4B
:1003B000666666000018001818183C000C000C0C4B
:1003C0006C6C38006060666C786C660018181818E1
:1003D00018181800000063777F6B6B0000007C7EAC
:1003E0006666660000003C6666663C00007C6666E9
:1003F0007C606000003C6C6C3C0D0F0000007C6673
:100400006660600000003E403C027C000018187EE0
:10041000181818000000666666663E000000006658
:10042000663C18000000636B6B6B3E000000663C8E
:10043000183C6600000066663E063C0000003C0C6E
:1004400018303C000E18183018180E001818180034
:10045000181818007018180C1818700000003A6C62
:1004600000000000081C366341417F00271A112458
:100470001FBECFEFD8E0DEBFCDBF11E0A0E0B1E0FE
:10048000E6E4F0E402C005900D92A836B107D9F772
:1004900022E0A8E6B1E001C01D92A733B207E1F760
:1004A00012E0C7E3D2E004C02197FE010E94141CB1
:1004B000C633D107C9F70E94B6190C9421200C94B9
:1004C0000000EF92FF920F931F93CF93DF93CDB76E
:1004D000DEB768970FB6F894DEBF0FBECDBFCE0172
:1004E00001960E94F20284E090E00E94781A7C015A
:1004F00060E070E00E94C709F0926D01E0926C012B
:100500008CE090E00E94781A7C0140E650E068E7B9
:1005100070E00E94C10CF0926F01E0926E0186E1E2
:1005200090E00E94781A7C0160916E0170916F01D9
:100530000E942003F0926B01E0926A018AE290E04F
:100540000E94781A7C0100916A0110916B01209140
:100550006C0130916D0160916E0170916F01AE017F
:100560004F5F5F4F0E94D709F0927101E0927001D6
:1005700080916E0190916F0106969093690180932E
:10058000680126E040E855E260E070E08DE891E027
:100590000E94501980917001909171010E94460C47
:1005A00068960FB6F894DEBF0FBECDBFDF91CF9136
:1005B0001F910F91FF90EF90089561E070E080919E
:1005C0006801909169010E943B0460E0809168019C
:1005D000909169010E9402048091700190917101D3
:1005E0000C94F00AFC0180E090E0A0E4B0E4808389
:1005F0009183A283B38340E050E068EC71E44483CC
:1006000055836683778380879187A287B38780E04D
:1006100090E0A0EFB2E484879587A687B78780E053
:1006200090E0A0ECB2E4808B918BA28BB38B80E046
:1006300090E0A0E7B2E4848B958BA68BB78B0895EE
:100640000F931F93CF93DF93EC018B018BE191E02C
:100650009983888388E090E00E947A1A9C01285F41
:100660003F4FFC0111922E173F07E1F79B8B8A8BBE
:100670001F861E861B821A8280E390E09D838C83F6
:10068000198B088BDF91CF911F910F9108950895D9
:10069000CF93DF93EC018DE891E00E9489188F3FA2
:1006A0002FEF920709F19C012053310944E6429F44
:1006B000C001439F900D1124845F91409B838A83E6
:1006C0006A897B894AE00E94E41F888999892A897E
:1006D0003B89DC01ED91FC910284F385E02D4AE039
:1006E00050E06AE070E009958A819B81DF91CF91AB
:1006F000089520918401982F969596959695E0916E
:100700008901F0918A018770629FB0011124690FFD
:10071000711DE60FF71F413061F420E830E0A901B8
:1007200002C0559547958A95E2F7CA019081892BB9
:1007300019C041110CC02FE73FEFA90102C0559528
:1007400047958A95E2F7CA01908189230BC020E87A
:1007500030E0A90102C0559547958A95E2F7CA0194
:100760009081892780830895FC011282138280E0A2
:1007700090E02091840130918301239F9001112406
:10078000821793074CF4E0918901F0918A01E80FF8
:10079000F91F10820196EDCF0895EF92FF921F93FB
:1007A000CF93DF9300D0CDB7DEB77C01162F642F37
:1007B000862F887FE1F0669566956695629FC001F9
:1007C00011242A8369830E94671EF7019183808325
:1007D0004A816981009769F0128213829C01812FFE
:1007E0000E945A12C7010E94B40380E003C081E056
:1007F00001C084E00F900F90DF91CF911F91FF9087
:10080000EF900895613041F028F0623099F580E072
:1008100090E01BC00C94B403FC011282138280E0B0
:1008200090E04FEF2091840130918301239F90014C
:10083000112482179307F4F4E0918901F0918A0161
:10084000E80FF91F40830196EDCF2091840130918C
:100850008301239F90011124821793075CF4E09198
:100860008901F0918A01E80FF91F208120952083EA
:100870000196EBCF089520918601022E000C330BD8
:100880002F5F3F4F40918301429FC001439F900DD6
:10089000112420918001820F911D0196611571052F
:1008A00089F020917A0130917B0182179307C9F773
:1008B00020917A0130917B0182179307C9F361502F
:1008C0007109ECCF0895862F642FE0918401482FA1
:1008D00050E098E0E99FF00111244E175F073CF4C7
:1008E00090918301691718F4422F0C9479030895AD
:1008F000EF92FF920F93CF93DF93EC01FA01D901AE
:100900004217530751F4202F462F6E2FDF91CF91BE
:100910000F91FF90EF900C9463042417350720F497
:10092000CA019927F901DC01CF01877099272FEFC0
:1009300030E0790102C0F594E7948A95E2F79E2DA4
:1009400083E0F695E7958A95E1F740918401469F0B
:10095000A0011124E40FF51FBD016770772702C0C5
:10096000359527956A95E2F7322F309523E0B695B5
:10097000A7952A95E1F74A0F5B1FE417F50719F4CD
:10098000932F9E2130E00130D1F4DF011196688170
:100990007981E60FF71F8081982B90832FEF888154
:1009A0009981A417B50730F4FC01EA0FFB1F2083DF
:1009B0001196F5CFA80FB91F8C91382B39C00111B2
:1009C0001BC0DF01119668817981E60FF71F9095B2
:1009D00080819823908388819981A417B50730F48A
:1009E000FC01EA0FFB1F10821196F5CFA80FB91F6B
:1009F00030958C9138231CC00230D9F4DF01119658
:100A000068817981E60FF71F80819827908388811C
:100A10009981A417B50740F4FC01EA0FFB1F808100
:100A2000809580831196F3CFA80FB91F8C9138273A
:100A30003C93DF91CF910F91FF90EF900895EF924B
:100A4000FF920F93CF93DF934217530741F4202F68
:100A5000DF91CF910F91FF90EF900C9463042417D6
:100A6000350720F4FA01FF27A9019F01762F77703F
:100A7000E0E8F0E002C0F595E7957A95E2F7BE2F41
:100A800070918401749FE001759FD00D11246695CB
:100A9000669566957E01E60EF11CB701013091F472
:100AA00024173507C0F1EC01E881F981E60FF71F43
:100AB000A081AB2BA083E09184016E0F711D4F5F6D
:100AC0005F4FEECF011113C0E0952417350718F1E1
:100AD000EC01A881B981A60FB71FFC91FE23FC93FE
:100AE000F09184016F0F711D4F5F5F4FEECF0230A9
:100AF00091F42417350778F0EC01E881F981E60FCD
:100B0000F71FA081AB27A083E09184016E0F711DB8
:100B10004F5F5F4FEECFDF91CF910F91FF90EF903E
:100B200008952F923F924F925F926F927F928F9291
:100B30009F92AF92BF92CF92DF92EF92FF920F936C
:100B40001F93CF93DF9300D000D0CDB7DEB7FC0169
:100B5000942F302F0E2DA62EB12C4091840188E0C9
:100B6000489FA00111244A155B050CF484C08091B4
:100B70008301891708F47FC0A22FB0E04A175B07F2
:100B80000CF479C0831708F476C0621308C0232FD1
:100B900030E0492F50E0CF010E941F056CC0931335
:100BA00007C09D01A501692FCF010E94780463C091
:100BB000892E912C261738F4A5014A1B5B0B5C8308
:100BC0004B838FEF06C0AD014A195B095C834B83F1
:100BD00081E0C32ED12C391730F494012C193D0932
:100BE00069019FEF03C0C818D90891E02B813C81AF
:100BF0002C153D0544F43B812C81DC82CB82C32E35
:100C0000D22E11E001C010E0CC0CDD1C26012B819E
:100C10003C81421A530A220F331FE12CF12C292E5A
:100C2000990F3308682E880F77084B815C814E1529
:100C30005F050CF1402F682D8A2D29833A830E948D
:100C4000790329813A8157FC09C0113019F4A60CA7
:100C5000B71C02C0820C931C421A530A113019F4BB
:100C6000820C931C02C0A60CB71C4C0C5D1C5FEFE1
:100C7000E51AF50ADACF0F900F900F900F90DF91E1
:100C8000CF911F910F91FF90EF90DF90CF90BF9089
:100C9000AF909F908F907F906F905F904F903F901C
:100CA0002F9008954F925F926F927F928F929F92B2
:100CB000AF92BF92CF92DF92EF92FF920F931F936A
:100CC000CF93DF935C01D62E142FD22FC02F5E2C32
:100CD0008FEFC816C1F0442EE02EF12CE40EF11C6B
:100CE000862E912C3401620E711C842D90E08E159D
:100CF0009F054CF40C2D9301A401642DC5010E94A5
:100D000078044394F2CFDD0DE52C012F2D2F412FD8
:100D10006D2DC5010E949105C10F0C2F2D2D412F66
:100D20006D2DC5010E9491052D2F412F6D2FC501FD
:100D30000E9491052D2F4C2F6D2DC5010E9491050C
:100D4000DF91CF911F910F91FF90EF90DF90CF90A7
:100D5000BF90AF909F908F907F906F905F904F90DB
:100D600008952F923F924F925F926F927F928F924F
:100D70009F92AF92BF92CF92DF92EF92FF920F932A
:100D80001F93CF93DF93CDB7DEB729970FB6F894B3
:100D9000DEBF0FBECDBF5C01562EF42E922E102F5B
:100DA00030E03987288781E090E01C01221A330A5D
:100DB000C901919581959109FC01EE0FFF1FFE83FA
:100DC000ED83FFEFEF1669F0462F50E0240F351F3B
:100DD00088859985481B590B0E2D6F2DC5010E94E2
:100DE0007804412F692D6F0D852D0E947903412FC5
:100DF0006F2D6919852D0E947903412F6F2D892D43
:100E0000850D0E947903412F6F2D852D89190E9430
:100E10007903CC24C394D12C1C82E52DF0E0FA8315
:100E2000E983C601019728853985821793070CF05D
:100E300098C037FC0BC021503109398728878D8134
:100E40009E8102969E838D83280E391EC601880FCF
:100E5000991F0196280E391E98859F0D9B83EF2DB3
:100E6000F885EF1BEF834F2C4C0C2FEFE21609F4A3
:100E700041C0892D90E0E885F985E817F907A9F0C8
:100E80000E2D69807A806C0C7D1C930189809A807C
:100E90008C189D08A4016B81C5010E947804930100
:100EA000A4016F81C5010E947804FC818F2F90E01E
:100EB000C816D906E9F0288539852C153D05C1F0FD
:100EC0000E2D89809A80820E931E940169807A800B
:100ED00088859985681A790AA301642DC5010E9445
:100EE00078049401A3016F2D6C19C5010E94780448
:100EF0009884CC82752C7C0C412F6B81872D0E94AD
:100F00007903852C8C18412F6B81882D0E947903E1
:100F1000412F6F81872D0E947903412F6F81882D8A
:100F20000E947903412F642D7884750C872D0E94CF
:100F30007903412F642D852C9885891A882D0E946C
:100F400079036F2C6C18412F662D872D0E94790331
:100F5000412F662D882D0E947903EFEFCE1ADE0A0D
:100F600060CF29960FB6F894DEBF0FBECDBFDF91DC
:100F7000CF911F910F91FF90EF90DF90CF90BF9096
:100F8000AF909F908F907F906F905F904F903F9029
:100F90002F9008952F923F924F925F926F927F927F
:100FA0008F929F92AF92BF92CF92DF92EF92FF9279
:100FB0000F931F93CF93DF93CDB7DEB729970FB66B
:100FC000F894DEBF0FBECDBF99878887962F9770A4
:100FD00058E0591BE11006C0F901E00FF11FE49041
:100FE0000F5F1F4FC11006C0F901E00FF11FC49041
:100FF0000F5F1F4F8E2D8770EE2DE695E695E695D7
:10100000882311F0EF5F01C088E0669566956695CC
:10101000E62EF12CFC82EB82292E312C4101880E28
:10102000911C8FEF90E0BC01082C02C0759567956C
:101030000A94E2F7A52FB0E0BA83A98301C0880F14
:101040005A95EAF7E13011F4762E01C0712C782A16
:101050007D82D40118978FEF90E002C09595879517
:10106000AA95E2F7D62EA12CB12C642E712CF0E0BB
:10107000AF01415051095F834E83AC1408F090C01A
:1010800090918401A3014A0D5B1D949FB001959F2F
:10109000700D1124AB81BC816A0F7B1FA885B985B7
:1010A000ED91FC91E60FF71F90814D81492340831C
:1010B000D8011196F901E00FF11F4491E885F985F7
:1010C000E080F180F701E60FF71FE42EF12C022CEF
:1010D00002C0F594E7940A94E2F75081E52AE08291
:1010E0004E805F804A0E5B1E7B01E01AF10A870189
:1010F0007801EA0EFB1EE885F9856081718150E078
:10110000A415B50510F56E0D7F1DFB0190810980BA
:1011100001C0440F0A94EAF74083F901EA0FFB1F6C
:101120004491E885F98560817181FB01EE0DFF1D19
:10113000642F70E0022C02C0759567950A94E2F75F
:101140005081652B60831196D3CFF8E08F16910400
:1011500040F4F7013197E60FF71F9D216081962B30
:1011600009C098E08916910431F0FB01EE0DFF1DD6
:10117000908198239083E885F985608171816E0D57
:101180007F1D098002C0440F551F0A94E2F7FB013E
:101190009081492B4083FFEFAF1ABF0A8D016DCFBD
:1011A00029960FB6F894DEBF0FBECDBFDF91CF9169
:1011B0001F910F91FF90EF90DF90CF90BF90AF9075
:1011C0009F908F907F906F905F904F903F902F9067
:1011D0000895DF92EF92FF920F931F93CF93DF93C7
:1011E0004130A9F1C0F0423009F44DC0433009F05C
:1011F000C0C0562F5770F52E66956695669570E0BF
:10120000719561957109E12C42E050E028E030E0F1
:101210002F1931097CC08091890190918A01209118
:101220008401DC01629FA00DB11D11243091830166
:10123000AC01239F400D511D11249A01FC012A1776
:101240003B0708F496C08C9181931D92F8CF809152
:10125000890190918A013091830120918401DC0100
:10126000329FA00DB11D1124FD01269FE019F10947
:1012700011241196E817F90708F47BC020812E93FA
:1012800010823197F7CFD62FD77066956695669501
:1012900070E0C0E048E050E04D1B510980918301AF
:1012A000C81708F066C080918401E0918901F0912F
:1012B0008A018C9FE00DF11D1124DF01A60FB71FDD
:1012C00090E002978E0F9F1F8A179B07A0F02C912A
:1012D000122F0D2E01C0110F0A94EAF71D923C91B6
:1012E000232F30E0042E02C0359527950A94E2F7AB
:1012F000212B2193E9CF8C910D2E01C0880F0A94E8
:10130000EAF71C928083CF5FC9CF8083E3948091FA
:101310008301E81670F5A09184018A2F90E0FC010A
:101320003197AE9DE00DF11D1124A0918901B0917E
:101330008A01EA0FFB1FDF01A60FB71F8A01081BF6
:10134000190B0E0F1F1F8C9190E00F2C02C095956A
:1013500087950A94E2F71C92A017B107B0F2CE91DC
:10136000022E01C0CC0F0A94EAF78C2B80833197B0
:10137000EACFDF91CF911F910F91FF90EF90DF9017
:101380000895FC0182810E947C1A9250089521E206
:1013900031E0FC013183208373836283089560E828
:1013A00076E988E990E00E94541ACB0108954F92A3
:1013B0005F926F927F928F929F92AF92BF92CF92E5
:1013C000DF92EF92FF920F931F93CF93DF93EC0185
:1013D0004A015901380179876887198A188A1B8A56
:1013E0001A8A1F870E8782E090E00E94781A9D87F4
:1013F0008C8788E090E00E94781A8C0120E030E031
:1014000040E450E4F40160897189828993890E94E3
:10141000291C0E940D1D6B017C0120E030E040E49E
:1014200050E4F40164857585868597850E94291CA2
:101430000E940D1D21E030E0A601C8010E945B184A
:10144000198308838BE190E00E94781A2C01C880F0
:10145000D980F401E480F5800681178120853185EB
:101460004285538560E00E9429145D824C828BE1A5
:1014700090E00E94781A2C01C880D980F401E480A1
:10148000F58006811781208531854285538553017A
:1014900061E00E9429145F824E828EE190E00E94FA
:1014A000781A5C01CC84DD84EE80FF800C811D8184
:1014B00028813981F40140815181628173810E94C8
:1014C000D117BB82AA828CE090E00E94781A8C012E
:1014D000F40164897589868997890E940D1DC80168
:1014E0000E9497141B870A87809110019091110127
:1014F000EC85FD85918380831CA21DA2DF91CF9195
:101500001F910F91FF90EF90DF90CF90BF90AF9021
:101510009F908F907F906F905F904F900895CF93A2
:10152000DF93EC0188899989680F791F798B688B23
:101530008A899B89480F591F5B8B4A8B88819981C7
:101540000E94671897FD0196BC0175956795072E57
:10155000000C880B990B0E94451DAB01BC018A81D0
:101560009B810E942D15888199810E946B1897FD9F
:101570000196BC0175956795072E000C880B990B99
:101580000E94451DAB01BC018A819B810E943315DD
:10159000488959892A893B898A819B812417350783
:1015A0002CF440E050E060E87FE304C040E050E00D
:1015B00060E87FEB0E94211540E050E0BA018A818B
:1015C0009B810E94271580910E0190910F01EC855F
:1015D000FD859183808381E08CA3DF91CF91089575
:1015E000CF92DF92EF92FF920F931F93CF93DF93EF
:1015F000EC01EC85FD858081918120911401309171
:1016000015018217930729F440E050E061E070E093
:101610000BC020911201309113018217930739F406
:1016200041E050E060E070E0CE010E948F0A8A85C0
:101630009B850E94CE14882309F41FC18E859F8547
:101640000E9447038E010C5E1F4F4AE0B801888953
:1016500099890E94E41FE885F9850190F081E02DC9
:10166000E284F384888199810E946B186C018881DF
:1016700099810E946718E885F985A6014A505109A9
:1016800097FD019695958795BC016B5F7F4F9801FB
:10169000CF01F70109954AE0B8018A899B890E9428
:1016A000E41FE885F9850190F081E02DE284F38460
:1016B000888199810E946B186C01888199810E94B0
:1016C0006718E885F985A6014A50510997FD0196EA
:1016D00095958795BC016F5071099801CF01F7016D
:1016E000099588819981DC01ED91FC910190F0814F
:1016F000E02D09958881998168857985DC01ED91D6
:10170000FC910280F381E02D09958C819D81DC01A3
:10171000ED91FC910190F081E02D09958E819F81E2
:10172000DC01ED91FC910190F081E02D09954AE0FA
:10173000B8018EA19FA10E94E41F88859985DC01D4
:10174000ED91FC910284F385E02D980142E350E095
:101750006EE170E009950E94E31ADC01CB014AE0DA
:10176000B8010E94E41F88859985DC01ED91FC9108
:101770000284F385E02D98014EE150E06EE170E0C7
:1017800009958C819D8168857985DC01ED91FC91BD
:101790000280F381E02D09958E819F81688579858E
:1017A000DC01ED91FC910280F381E02D09958DA182
:1017B0008823F1F10E94E31ADC01CB01885B9B4096
:1017C000A109B1090EA11FA128A539A5801791076C
:1017D000A207B30768F588859985DC01ED91FC9136
:1017E0000284F385E02D23E231E042E350E062E33E
:1017F00070E009958CA1882349F01CA281E08DA39B
:101800000E94E31A6EA37FA388A799A761E070E006
:1018100080E090E00E94141B8A859B85DF91CF9128
:101820001F910F91FF90EF90DF90CF900C94CD140B
:1018300088859985DC01ED91FC910284F385E02D8A
:1018400029E231E042E350E062E370E009951DA235
:101850008A819B81DC01ED91FC910190F081E02D6A
:1018600009958A819B8168857985DC01ED91FC91E0
:101870000280F381E02D0995BDCFDF91CF911F91BB
:101880000F91FF90EF90DF90CF90089520910E017F
:1018900030910F01DC011C96ED91FC911D97318375
:1018A00020830895FC01828193810895FC01848145
:1018B0009581089506960C94A60D60E006960C940A
:1018C00002048F929F92AF92BF92CF92DF92EF92DB
:1018D0000F93CF93DF93EC015B014A016901E8812B
:1018E000F9810680F781E02D099595012C0D3D1DAC
:1018F0002817390744F5E881F9810084F185E02D46
:10190000CE0109959601280D391D28173907DCF4F9
:10191000C5018C199D0918161906ACF4C4018C195F
:101920009D09181619067CF4CE010696EE2019F0D2
:1019300022E0E22E02C0EE24EA9401E02C2D482D94
:101940006A2D0E94B106DF91CF910F91EF90DF9049
:10195000CF90BF90AF909F908F900895CF92EF92CD
:101960000F930696CC2019F032E0C32E02C0CC248F
:10197000CA94EE24E3940E9452060F91EF90CF9008
:101980000895CF93DF93FC01242F83E391E09183AB
:1019900080836283738344835583EF012696462FA9
:1019A00061E0CE010E94CD0368E670E0CE01DF91D8
:1019B000CF910C94DB0CFC01758364830895CF9266
:1019C000EF920F931F93022FFC0124813581F901BF
:1019D0003296E491502F5E1B89010F5F1F4FF80173
:1019E000C490F901E490F8010491509F8001112402
:1019F0000D5F1F4F0E94CA071F910F91EF90CF906C
:101A00000895DC0113966C9113971496ED91FC9157
:101A1000159731967491462F50E02091830130E064
:101A2000271B31094217530724F0649140E00C94BE
:101A3000E908E491E60FDC011396EC9308950F9307
:101A40001F93CF93DF931F92CDB7DEB78C01262F64
:101A50006A3019F1E0F4662309F460C0683051F58A
:101A6000DC011496ED91FC911597E49112966C911E
:101A700012976E1B12966C93129720E213964C915C
:101A80000F90DF91CF911F910F910C94DF0C6D306F
:101A900071F06E3009F442C00DC0DC0112961C9248
:101AA0000F90DF91CF911F910F910C94010DFC01CC
:101AB000128234C0D80112966C91129780918401E1
:101AC0001496ED91FC911597E491462F50E0B8E003
:101AD0008B9FC00111248E1B9109F80148175907EB
:101AE0006CF01282C80129830E94010D2981D8015E
:101AF00013964C91139712966C9101C04381C801C3
:101B00000E94DF0CD8011496ED91FC911597E49199
:101B100012968C911297E80F1296EC930F90DF912A
:101B2000CF911F910F9108950F931F93CF93DF9340
:101B30008C01EB016991662321F0C8010E941F0D01
:101B4000F9CFDF91CF911F910F910895FC0162832E
:101B50004383B9010C94940D089520917A0130913A
:101B60007B018091800190E02817390779F4109269
:101B70008C0110928B01809186018093870182E60F
:101B80009EE0909377018093760116C020917A01B0
:101B900030917B0180918101909182012817390752
:101BA00059F486EE9DE09093770180937601E09161
:101BB0000A01F0910B01099580917A0190917B01C6
:101BC000019690937B0180937A01089520917A0188
:101BD00030917B0180918101909182012817390712
:101BE0000CF44EC08CEA93E09093890080938800B7
:101BF00010927B0110927A0180917C0190917D017D
:101C0000A0917E01B0917F010196A11DB11D80932D
:101C10007C0190937D01A0937E01B0937F01809120
:101C2000720190917301A0917401B0917501892B9B
:101C30008A2B8B2B09F18091720190917301A091F5
:101C40007401B0917501181619061A061B0684F561
:101C50008091720190917301A0917401B09175010E
:101C60000197A109B1098093720190937301A09328
:101C70007401B09375011CC01092B1002B9818C06C
:101C800020917A0130917B0180918801082E000C0F
:101C9000990B2817390761F48AE490E09093890042
:101CA000809388008DEA9DE0909377018093760180
:101CB00080917A0190917B01019690937B018093B2
:101CC0007A01089530918400209185012A50231BC8
:101CD0002350F0F72D5F19F02A9511F001C0000094
:101CE000E0917801F09179010995909187018091B7
:101CF000860191110FC080938701909184012091FA
:101D00008B0130918C01290F311D30938C01209370
:101D10008B0103C091509093870140917A015091BB
:101D20007B014F5F5F4F082E000C990B019660916D
:101D30008301689F9001699F300D1124809180017B
:101D4000B901680F711D4617570731F48DEA9DE000
:101D5000909377018093760180917A0190917B0135
:101D6000019690937B0180937A0108950F93CF930E
:101D7000DF93EAE7F1E0A785B089C0918B01D091AC
:101D80008C018285AC0FBD1F0BB10F7703C000FA29
:101D900007F90BB90D90000007FA07F90BB900001D
:101DA0000000000006FA07F90BB90000000000006F
:101DB00005FA07F90BB900000000000004FA07F962
:101DC0000BB900000000000003FA07F90BB900008E
:101DD0000000000002FA07F90BB900000000000043
:101DE00001FA07F90BB98A9591F60000000000FA94
:101DF00007F90BB90BB10F7707FB07F90BB9DF91A7
:101E0000CF910F9108950F93CF93DF93EAE7F1E01D
:101E1000A785B089C0918B01D0918C018285AC0FD0
:101E2000BD1F0BB10F7703C000FA07F90BB90D9076
:101E300007FA07F90BB90000000006FA07F90BB919
:101E40000000000005FA07F90BB90000000004FAD1
:101E500007F90BB90000000003FA07F90BB90000FD
:101E6000000002FA07F90BB900008A9501FA07F998
:101E70000BB9D1F6000000FA07F90BB90BB10F77D7
:101E800007FB07F90BB9DF91CF910F9108950F93DD
:101E9000CF93DF93EAE7F1E0A785B089C0918B018A
:101EA000D0918C018285AC0FBD1F02C0000C0BB815
:101EB0000D9000000BB800000000000C0BB80000F3
:101EC0000000000C0BB800000000000C0BB8000074
:101ED0000000000C0BB800000000000C0BB8000064
:101EE000000C8A950BB811F70000000C0BB800002D
:101EF000000000005F98DF91CF910F9108950F933C
:101F0000CF93DF93EAE7F1E0A785B089C0918B0119
:101F1000D0918C018285AC0FBD1F8E3191F08D3137
:101F200051F08C3149F08B3141F08A3139F08931EF
:101F300031F0883129F01CC032C048C05EC074C086
:101F40008AC00D900BB80000000C0BB80000000C0C
:101F50000BB80000000C0BB80000000C0BB8000020
:101F6000000C0BB80000000C0BB80000000C0BB804
:101F70000D900BB80000000C0BB80000000C0BB863
:101F80000000000C0BB80000000C0BB80000000CA7
:101F90000BB80000000C0BB80000000C0BB80D9043
:101FA0000BB80000000C0BB80000000C0BB80000D0
:101FB000000C0BB80000000C0BB80000000C0BB8B4
:101FC0000000000C0BB80000000C0BB80D900BB813
:101FD0000000000C0BB80000000C0BB80000000C57
:101FE0000BB80000000C0BB80000000C0BB8000090
:101FF000000C0BB80000000C0BB80D900BB80000E3
:10200000000C0BB80000000C0BB80000000C0BB863
:102010000000000C0BB80000000C0BB80000000C16
:102020000BB80000000C0BB80D900BB80000000CB2
:102030000BB80000000C0BB80000000C0BB800003F
:10204000000C0BB80000000C0BB80000000C0BB823
:102050000000000C0BB80D900BB80000000C0BB882
:102060000000000C0BB80000000C0BB80000000CC6
:102070000BB80000000C0BB80000000C0BB80000FF
:10208000000C0BB80D900BB80000000C0BB8000052
:10209000000C0BB80000000C0BB80000000C0BB8D3
:1020A0000000000C0BB80000000C0BB80000000C86
:1020B0000BB80D900BB80000000C0BB80000000C22
:1020C0000BB80000000C0BB80000000C0BB80000AF
:1020D000000C0BB80000000C0BB80000000C0BB893
:1020E0000D900BB80000000C0BB80000000C0BB8F2
:1020F0000000000C0BB80000000C0BB80000000C36
:102100000BB80000000C0BB80000000C0BB80D90D1
:102110000BB80000000C0BB80000000C0BB800005E
:10212000000C0BB80000000C0BB80000000C0BB842
:102130000000000C0BB80000000C0BB80D900BB8A1
:102140000000000C0BB80000000C0BB80000000CE5
:102150000BB80000000C0BB80000000C0BB800001E
:10216000000C0BB80000000C0BB80D900BB8000071
:10217000000C0BB80000000C0BB80000000C0BB8F2
:102180000000000C0BB80000000C0BB80000000CA5
:102190000BB80000000C0BB80D900BB80000000C41
:1021A0000BB80000000C0BB80000000C0BB80000CE
:1021B000000C0BB80000000C0BB80000000C0BB8B2
:1021C0000000000C0BB80D900BB80000000C0BB811
:1021D0000000000C0BB80000000C0BB80000000C55
:1021E0000BB80000000C0BB80000000C0BB800008E
:1021F000000C0BB80D900BB80000000C0BB80000E1
:10220000000C0BB80000000C0BB80000000C0BB861
:102210000000000C0BB80000000C0BB80000000C14
:102220000BB80D900BB80000000C0BB80000000CB0
:102230000BB80000000C0BB80000000C0BB800003D
:10224000000C0BB80000000C0BB80000000C0BB821
:102250000D900BB80000000C0BB80000000C0BB880
:102260000000000C0BB80000000C0BB80000000CC4
:102270000BB80000000C0BB80000000C0BB80D9060
:102280000BB80000000C0BB80000000C0BB80000ED
:10229000000C0BB80000000C0BB80000000C0BB8D1
:1022A0000000000C0BB80000000C0BB80D900BB830
:1022B0000000000C0BB80000000C0BB80000000C74
:1022C0000BB80000000C0BB80000000C0BB80000AD
:1022D000000C0BB80000000C0BB80D900BB8000000
:1022E000000C0BB80000000C0BB80000000C0BB881
:1022F0000000000C0BB80000000C0BB80000000C34
:102300000BB80000000C0BB80D900BB80000000CCF
:102310000BB80000000C0BB80000000C0BB800005C
:10232000000C0BB80000000C0BB80000000C0BB840
:102330000000000C0BB80D900BB80000000C0BB89F
:102340000000000C0BB80000000C0BB80000000CE3
:102350000BB80000000C0BB80000000C0BB800001C
:10236000000C0BB80D900BB80000000C0BB800006F
:10237000000C0BB80000000C0BB80000000C0BB8F0
:102380000000000C0BB80000000C0BB80000000CA3
:102390000BB80D900BB80000000C0BB80000000C3F
:1023A0000BB80000000C0BB80000000C0BB80000CC
:1023B000000C0BB80000000C0BB80000000C0BB8B0
:1023C0000D900BB80000000C0BB80000000C0BB80F
:1023D0000000000C0BB80000000C0BB80000000C53
:1023E0000BB80000000C0BB80000000C0BB80D90EF
:1023F0000BB80000000C0BB80000000C0BB800007C
:10240000000C0BB80000000C0BB80000000C0BB85F
:102410000000000C0BB80000000C0BB80D900BB8BE
:102420000000000C0BB80000000C0BB80000000C02
:102430000BB80000000C0BB80000000C0BB800003B
:10244000000C0BB80000000C0BB80D900BB800008E
:10245000000C0BB80000000C0BB80000000C0BB80F
:102460000000000C0BB80000000C0BB80000000CC2
:102470000BB80000000C0BB80D900BB80000000C5E
:102480000BB80000000C0BB80000000C0BB80000EB
:10249000000C0BB80000000C0BB80000000C0BB8CF
:1024A0000000000C0BB8000000005F98DF91CF9196
:1024B0000F910895CF93DF93D82FE62F30938A01A1
:1024C00020938901609384014093830110927C01E1
:1024D00010927D0110927E0110927F01642F70E0B6
:1024E000882319F084E091E002C088ED90E00E941A
:1024F000A01B615060938601C0918601C093870143
:1025000088E0E89F90011124032E000C440B550B2A
:1025100060EE72E080E090E00E94D61B243061F013
:1025200018F4233089F00BC0253019F0263049F01B
:1025300006C083E09FE00AC087E49FE007C0273021
:1025400018F086EB9EE002C08FE79FE09093790140
:1025500080937801579A219A5F98299A239A82EC5E
:102560008093800089E180938100409183012C2F2A
:10257000CC0F330B2F5F3F4F429FC001439F900D05
:102580001124DD23C9F097FD0196959587959195C6
:102590008195910984568093800187EC8093850111
:1025A00087E08093880188E391E090938201809393
:1025B00081018FEF93E018C097FD0196959587955F
:1025C0009195819591098557809380018FEB809338
:1025D000850183E08093880186E091E090938201F9
:1025E0008093810187EF93E090938700809386002A
:1025F0008AE490E090938900809388008091810123
:1026000090918201019690937B0180937A0186EEEE
:102610009DE0909377018093760181E080936F0035
:102620007894DF91CF9108951F920F920FB60F9279
:1026300011242F933F934F935F936F937F938F93C7
:102640009F93AF93BF93EF93FF93E0910C01F091B1
:102650000D010995E0917601F09177010995FF91BF
:10266000EF91BF91AF919F918F917F916F915F910A
:102670004F913F912F910F900FBE0F901F90189583
:102680002F923F924F925F926F927F928F929F9282
:10269000AF92BF92CF92EF92FF920F931F93CF937F
:1026A000DF9300D000D0CDB7DEB78C011B01DC0179
:1026B00017966D917D918D919C911A970E940D1D99
:1026C0004B015C01F80163817481858196810E94D0
:1026D0000D1D9B01AC01D8011F966D917D918D91CF
:1026E0009C91529729833A834B835C830E940D1DF2
:1026F0002B013C01F80163897489858996890E94C0
:102700000D1DD101ED91FC910190F081E02DCC24C3
:10271000C394E12CF12C840129813A81A201C101E9
:1027200009950F900F900F900F90DF91CF911F910F
:102730000F91FF90EF90CF90BF90AF909F908F90B0
:102740007F906F905F904F903F902F900895CF9221
:10275000DF92EF92FF92CF93DF93EC01898D9A8DF8
:10276000DC01ED91FC910190F081E02D0995BC0117
:10277000990F880B990B0E94451D20E030E048EC32
:1027800053E40E949B1C6B877C878D879E872F85D7
:10279000388949895A890E942A1C6F87788B898BCE
:1027A0009A8B2F81388549855A850E942A1C6B0196
:1027B0007C018F89988D0E946B18BC01990F880B42
:1027C000990B0E94451D9B01AC01C701B6010E94F7
:1027D000F51D1816FCF41B861C861D861E868F8927
:1027E000988D0E946B18BC01990F880B990B0E9461
:1027F000451D2F81388549855A850E94291C20E076
:1028000030E040E85FE30E94291C6F87788B898B5A
:102810009A8B18C020E030E040E050E46F85788962
:1028200089899A890E94961C87FF0CC01B861C868A
:102830001D861E8680E090E0A0E0B0E48F87988B34
:10284000A98BBA8BDF91CF91FF90EF90DF90CF9063
:102850000895AF92BF92CF92DF92EF92FF920F93C3
:102860001F93CF93DF93EC01C601E3E4F1E0F9831A
:10287000E8836A832B833C834D835E83EF82F886F3
:1028800009871A871B861C861D861E8600E010E0BD
:1028900020E83FE30F87188B298B3A8BD88ECF8A9D
:1028A000BA8EA98E662379F00E946718BC01990F31
:1028B000880B990B0E94451D2B813C814D815E81C7
:1028C0000E94291C04C060E070E080E090E46B8B03
:1028D0007C8B8D8B9E8BDF91CF911F910F91FF9001
:1028E000EF90DF90CF90BF90AF900895FC0163858B
:1028F0007485858596850895FC0163817481858141
:1029000096810895FC01678170858185928508957F
:10291000FC0167857089818992890895FC0163892A
:102920007489858996890895FC01828108950F93A1
:102930001F93CF93DF9300D000D0CDB7DEB78C01CB
:102940009B01770F440B550BCA01B90129833A83C8
:102950004B835C830E94451DF801608371838283F1
:102960009383148215821682178260E472E48FE0EA
:1029700090E029813A814B815C810E94D61BF8014D
:1029800020873187428753870F900F900F900F90C9
:10299000DF91CF911F910F910895089581E00895DF
:1029A0008F929F92AF92BF92CF92DF92EF920F934E
:1029B0001F93CF93DF9300D000D0CDB7DEB78C014B
:1029C0006B01DC0112966D917D918D919C91159713
:1029D0000E940D1D9B01AC01F801628973898489F5
:1029E000958929833A834B835C830E940D1D4B019B
:1029F0005C01D8011E966D917D918D919C915197AE
:102A00000E940D1DD601ED91FC910280F381E02D15
:102A1000EE24E39400E010E029813A81A401C6018C
:102A200009950F900F900F900F90DF91CF911F910C
:102A30000F91EF90DF90CF90BF90AF909F908F90CD
:102A40000895FC0146835783608771870895FC01D0
:102A500042875387648775870895FC0146875787A7
:102A6000608B718B0895FC01428B538B648B758B4B
:102A700008952F923F924F925F926F927F928F9222
:102A80009F92AF92BF92CF92DF92EF92FF920F93FD
:102A90001F93CF93DF93CDB7DEB728970FB6F89487
:102AA000DEBF0FBECDBF9A8389838B01DC011E96EA
:102AB000CD90DD90ED90FC90519712968D909D9069
:102AC000AD90BC901597A5019401C701B6010E9475
:102AD0002A1C6D837E838F839887C8010E946718A4
:102AE0001C01E981FA814288538864887588828153
:102AF0009381A481B58189839A83AB83BC83A5012B
:102B00009401C701B6010E94291C20E030E0A90110
:102B10000E94961CB82EBB1CBB24BB1C29813A8189
:102B20004B815C81C301B2010E94291C20E030E08E
:102B3000A9010E94961C881F8827881FB82AB10106
:102B4000330C880B990B0E94451D9B01AC01FF249F
:102B5000F3946D817E818F8198850E94F51D1816F2
:102B60000CF0F12CBF2829813A814B815C81C30193
:102B7000B2010E942A1C6B017C01C8010E946B18E3
:102B8000BC01990F880B990B0E94451D9B01AC015C
:102B900011E0C701B6010E94F51D18160CF010E0F7
:102BA000812F8B2928960FB6F894DEBF0FBECDBFBC
:102BB000DF91CF911F910F91FF90EF90DF90CF9019
:102BC000BF90AF909F908F907F906F905F904F904D
:102BD0003F902F9008958F929F92AF92BF92EF9265
:102BE000FF920F931F93CF937C018B01CB010E9427
:102BF000941481115CC0C8010E948E144B015C01C9
:102C0000C8010E947C149B01AC01C501B4010E9463
:102C10002A1C4B015C01F7012281338144815581DB
:102C200066857785808991890E94291C9B01AC016A
:102C3000C1E0C501B4010E94F51D18160CF0C0E0FA
:102C400080E0C82BF70182889388A488B588C801E2
:102C50000E9488149B01AC01C501B4010E94F51DBE
:102C60001816C4F4C8010E9488144B015C01C80105
:102C70000E9482149B01AC01C501B4010E942A1C70
:102C800011E0F70122893389448955890E94F51D95
:102C900018160CF010E0812F8C23CF911F910F910B
:102CA000FF90EF90BF90AF909F908F900895C801D4
:102CB0000E948E144B015C01F70122813381448113
:102CC000558166857785808991890E942A1C9B01A0
:102CD000AC01C501B4010E94961C881F8827881F7B
:102CE000C0E0AFCFCF92DF92EF92FF92CF93DF930E
:102CF000EC01CB014E815F816885798570584E83E8
:102D00005F83688779870E94761420E030E040E88E
:102D10005EE30E94FA1D2A853B854C855D850E94F5
:102D20002A1C6B017C0120E030E040EC50E40E9462
:102D3000F51D18162CF0CA86DB86EC86FD8608C0C9
:102D400080E090E0A0ECB0E48A879B87AC87BD87E9
:102D500020E030E040EC50EC6A857B858C859D85D9
:102D60000E94961C87FF08C080E090E0A0ECB0ECC9
:102D70008A879B87AC87BD87DF91CF91FF90EF90CB
:102D8000DF90CF9008954F925F926F927F928F92D3
:102D90009F92AF92BF92CF92DF92EF92FF920F93EA
:102DA0001F93CF93DF93EC018B014A885B886C887B
:102DB0007D888A809B80AC80BD80CA84DB84EC8463
:102DC000FD84A5019401C301B2010E94291CA70141
:102DD00096010E942A1C20E030E0A9010E94961C66
:102DE00087FF0FC0F7FAF094F7F8F094CA86DB86F5
:102DF000EC86FD8620E030E040E85FE3C501B401E9
:102E000039C0A5019401C301B2010E942A1CA70187
:102E100096010E942A1C6B017C01C8010E946B185C
:102E2000BC01990F880B990B0E94451D9B01AC01B9
:102E3000C701B6010E94F51D18161CF58A859B85F1
:102E4000AC85BD85B0588A879B87AC87BD87C80194
:102E50000E946B18BC01990F880B990B0E94451DAD
:102E60002A813B814C815D810E94291C2A853B85FA
:102E70004C855D850E942A1C6A8B7B8B8C8B9D8B7D
:102E80003BC0CE84DF84E888F9888A809B80AC8050
:102E9000BD80A5019401C701B6010E94291C20E054
:102EA00030E0A9010E94961C87FF05C080911401A3
:102EB000909115011DC0A5019401C701B6010E94A2
:102EC0002A1C6B017C01C8010E946718BC01990F84
:102ED000880B990B0E94451D9B01AC01C701B601EF
:102EE0000E94F51D181644F480911201909113016F
:102EF000EC8DFD8D91838083DF91CF911F910F9198
:102F0000FF90EF90DF90CF90BF90AF909F908F9009
:102F10007F906F905F904F900895CF93DF93EC0177
:102F2000688D798D0E94EB15882319F0688D798D55
:102F300009C06A8D7B8DCE010E94EB15882331F08C
:102F40006A8D7B8DCE010E9472160CC06E897F89BE
:102F5000CE010E943915882329F06E897F89CE0120
:102F60000E94C3162E813F81488559856E857F85D5
:102F7000888999890E942A1C6E877F87888B998B04
:102F80002A853B854C855D856A897B898C899D89ED
:102F90000E942A1C6A8B7B8B8C8B9D8BDF91CF913F
:102FA0000895AF92BF92CF92DF92EF92FF920F936C
:102FB0001F93CF93DF93EC0159018BE491E0998348
:102FC00088834A835B836C837D8380E090E0A0E804
:102FD000BFEB8E839F83A887B9870E94CF0962E0E9
:102FE00070E00E94A01BBC01990F880B990B0E94F6
:102FF000451D20E030E040E05FE30E94291C6A8725
:103000007B878C879D87C5010E94671897FD019675
:10301000BC0175956795072E000C880B990B0E94D3
:10302000451D6E877F87888B998BC5010E946B1821
:1030300097FD0196BC0175956795072E000C880BCE
:10304000990B0E94451D6A8B7B8B8C8B9D8BBF8A55
:10305000AE8A198F088FFB8EEA8EDD8ECC8EDF91C3
:10306000CF911F910F91FF90EF90DF90CF90BF9085
:10307000AF9008950895CF92EF92FF920F931F9310
:10308000DB01FC010481158122813381ED91FC91EA
:1030900011970190F081E02DC12CE12CF12C41E041
:1030A00050E061E070E0CD0109951F910F91FF9014
:1030B000EF90CF900895FC0183E591E091838083A8
:1030C0007383628355834483378326830895FC0189
:1030D000828193810895FC01848195810895FC018A
:1030E000918D228D892F90E0805C9F4F821B9109EA
:1030F0008F7399270895FC01918D828D981731F077
:10310000828DE80FF11D858D90E008958FEF9FEF80
:103110000895FC01918D828D981761F0828DDF01F9
:10312000A80FB11D5D968C91928D9F5F9F73928FBA
:1031300090E008958FEF9FEF08958DE19AE1892B3C
:1031400049F080E090E0892B29F00E941D1A81113E
:103150000C9400000895FC01848DDF01A80FB11DBF
:10316000A35ABF4F2C91848D90E001968F739927BD
:10317000848FA689B7892C93A089B1898C918064AA
:103180008C93938D848D981306C00288F389E02D6B
:1031900080818F7D80830895CF92DF92FF920F937D
:1031A0001F93CF93DF931F92CDB7DEB76C0181E001
:1031B000D60158968C9358975B969C915B975C963A
:1031C0008C915C97981307C05096ED91FC915197A4
:1031D000808185FD2BC0D6015B960C9110E00F5FBE
:1031E0001F4F0F731127F02EF601848DF8120FC0B8
:1031F0000FB607FCF9CF0088F189E02D808185FFAB
:10320000F3CFC60169830E94AB186981EDCF838D2E
:10321000F601E80FF11DE35AFF4F6083F601038FBB
:103220000288F389E02D808180620CC0D601569619
:10323000ED91FC91579760835096ED91FC915197D9
:1032400080818064808381E090E00F90DF91CF9156
:103250001F910F91FF90DF90CF900895CF93DF9350
:10326000EC01888D8823C9F0EA89FB89808185FD7E
:1032700005C0A889B9898C9186FD0FC00FB607FCDF
:10328000F5CF808185FFF2CFA889B9898C9185FF20
:10329000EDCFCE010E94AB18E7CFDF91CF9108951B
:1032A000CF92DF92EF92FF921F93CF93DF93EC01C7
:1032B0006A017B01122FE889F98982E08083411538
:1032C000514E61057105B1F060E079E08DE390E069
:1032D000A70196010E94B41BDA01C9010197A10957
:1032E000B109B695A795979587959C01211580E121
:1032F0003807A8F0E889F989108260E874E88EE15F
:1033000090E0A70196010E94B41BDA01C901019760
:10331000A109B109B695A795979587959C01EC856C
:10332000FD853083EE85FF852083188EEC89FD892D
:103330001083EA89FB89808180618083EA89FB8927
:10334000808188608083EA89FB89808180688083AE
:10335000EA89FB8980818F7D8083DF91CF911F91E6
:10336000FF90EF90DF90CF90089508950E943C1B4E
:103370000E94B5190E946102CDE9D8E10E94DD02E8
:103380002097E1F30E949D18F9CF1F920F920FB67C
:103390000F9211242F938F939F93EF93FF93E091BC
:1033A0009D01F0919E018081E091A301F091A40123
:1033B00082FD12C090818091A6018F5F8F73209152
:1033C000A701821751F0E091A601F0E0E357FE4F0C
:1033D000958F8093A60101C08081FF91EF919F910D
:1033E0008F912F910F900FBE0F901F9018951F92E5
:1033F0000F920FB60F9211242F933F934F935F9329
:103400006F937F938F939F93AF93BF93EF93FF93AC
:103410008DE891E00E94AB18FF91EF91BF91AF91C1
:103420009F918F917F916F915F914F913F912F91DC
:103430000F900FBE0F901F9018958DE891E00E949D
:103440006F1821E0892B09F420E0822F0895EDE820
:10345000F1E01382128288EE93E0A0E0B0E0848372
:103460009583A683B7838BE591E09183808385EC78
:1034700090E09587848784EC90E09787868780EC3E
:1034800090E0918B808B81EC90E0938B828B82EC2F
:1034900090E0958B848B86EC90E0978B868B118ED9
:1034A000128E138E148E0895CF93DF9300D000D028
:1034B000CDB7DEB79B01AC016115710581059105A2
:1034C00069F069833A834B835C830E94D61F29810C
:1034D0003A814B815C810E94D61B03C060E070E0A2
:1034E000CB010F900F900F900F90DF91CF91089527
:1034F0000C94671E0C94671E8E3008F08E5020913D
:10350000160190E4299F900111248770822B8093EB
:103510007C0080917A00806480937A0080917A00A8
:1035200086FDFCCF809178002091790090E0922B6D
:1035300008951F920F920FB60F9211242F933F936D
:103540008F939F93AF93BF9380912B0290912C0206
:10355000A0912D02B0912E0230912A0223E0230F78
:103560002D3720F40196A11DB11D05C026E8230FBB
:103570000296A11DB11D20932A0280932B029093E5
:103580002C02A0932D02B0932E0280912F029091D5
:103590003002A0913102B09132020196A11DB11DFD
:1035A00080932F0290933002A0933102B0933202A5
:1035B000BF91AF919F918F913F912F910F900FBE2F
:1035C0000F901F9018952FB7F89460912B0270916F
:1035D0002C0280912D0290912E022FBF08953FB7AB
:1035E000F89480912F0290913002A0913102B09115
:1035F000320226B5A89B05C02F3F19F00196A11DE8
:10360000B11D3FBFBA2FA92F982F8827820F911D78
:10361000A11DB11DBC01CD0142E0660F771F881FBF
:10362000991F4A95D1F70895CF92DF92EF92FF92BA
:10363000CF93DF936B017C010E94EF1AEB01C11461
:10364000D104E104F10489F00E949F1B0E94EF1A4B
:103650006C1B7D0B683E734090F381E0C81AD10863
:10366000E108F108C851DC4FEACFDF91CF91FF901C
:10367000EF90DF90CF900895789484B5826084BDF8
:1036800084B5816084BD85B5826085BD85B5816066
:1036900085BDEEE6F0E0808181608083E1E8F0E0C6
:1036A0001082808182608083808181608083E0E8F5
:1036B000F0E0808181608083E1EBF0E080818460D4
:1036C0008083E0EBF0E0808181608083EAE7F0E0D6
:1036D000808184608083808182608083808181603A
:1036E00080838081806880831092C1000895CF928A
:1036F000DF92EF92FF920F931F93CF93DF936C01B2
:10370000EB017B01E40EF51E00E010E0CE15DF05B5
:1037100061F06991D601ED91FC910190F081E02D6D
:10372000C6010995080F191FF1CFC801DF91CF918C
:103730001F910F91FF90EF90DF90CF900895089523
:1037400097FB072E16F4009407D077FD09D00E944E
:10375000001C07FC05D03EF4909581959F4F08957D
:10376000709561957F4F0895A1E21A2EAA1BBB1B8D
:10377000FD010DC0AA1FBB1FEE1FFF1FA217B3073D
:10378000E407F50720F0A21BB30BE40BF50B661F53
:10379000771F881F991F1A9469F760957095809517
:1037A00090959B01AC01BD01CF010895052E97FBBB
:1037B0001EF400940E94ED1B57FD07D00E94B41B1D
:1037C00007FC03D04EF40C94ED1B509540953095BA
:1037D00021953F4F4F4F5F4F08959095809570957D
:1037E00061957F4F8F4F9F4F08950E941A1CA59F90
:1037F000900DB49F900DA49F800D911D11240895EC
:10380000AA1BBB1B51E107C0AA1FBB1FA617B70706
:1038100010F0A61BB70B881F991F5A95A9F7809522
:103820009095BC01CD010895EE0FFF1F0590F49116
:10383000E02D0994A29FB001B39FC001A39F700D1A
:10384000811D1124911DB29F700D811D1124911DA8
:1038500008955058BB27AA270E94411C0C94BB1DF9
:103860000E94AD1D38F00E94B41D20F039F49F3F36
:1038700019F426F40C94AA1D0EF4E095E7FB0C94C1
:10388000A41DE92F0E94CC1D58F3BA1762077307D5
:103890008407950720F079F4A6F50C94EE1D0EF43C
:1038A000E0950B2EBA2FA02D0B01B90190010C0150
:1038B000CA01A0011124FF27591B99F0593F50F468
:1038C000503E68F11A16F040A22F232F342F4427C0
:1038D000585FF3CF469537952795A795F0405395B8
:1038E000C9F77EF41F16BA0B620B730B840BBAF088
:1038F0009150A1F0FF0FBB1F661F771F881FC2F7F3
:103900000EC0BA0F621F731F841F48F48795779506
:103910006795B795F7959E3F08F0B0CF9395880FC0
:1039200008F09927EE0F9795879508950E94801DBE
:1039300008F481E008950E94AF1C0C94BB1D0E9406
:10394000B41D58F00E94AD1D40F029F45F3F29F0EE
:103950000C94A41D51110C94EF1D0C94AA1D0E94EF
:10396000CC1D68F39923B1F3552391F3951B550BA7
:10397000BB27AA2762177307840738F09F5F5F4F42
:10398000220F331F441FAA1FA9F335D00E2E3AF081
:10399000E0E832D091505040E695001CCAF72BD099
:1039A000FE2F29D0660F771F881FBB1F26173707EA
:1039B0004807AB07B0E809F0BB0B802DBF01FF271C
:1039C00093585F4F3AF09E3F510578F00C94A41D38
:1039D0000C94EF1D5F3FE4F3983ED4F38695779502
:1039E0006795B795F7959F5FC9F7880F911D9695D5
:1039F000879597F90895E1E0660F771F881FBB1F31
:103A0000621773078407BA0720F0621B730B840BDD
:103A1000BA0BEE1F88F7E09508950E94141D689474
:103A2000B1110C94EF1D08950E94D41D88F09F578A
:103A300098F0B92F9927B751B0F0E1F0660F771FD2
:103A4000881F991F1AF0BA95C9F714C0B13091F0C8
:103A50000E94EE1DB1E008950C94EE1D672F782FA3
:103A60008827B85F39F0B93FCCF38695779567958D
:103A7000B395D9F73EF490958095709561957F4FF9
:103A80008F4F9F4F0895E89409C097FB3EF490959F
:103A90008095709561957F4F8F4F9F4F9923A9F027
:103AA000F92F96E9BB279395F695879577956795B6
:103AB000B795F111F8CFFAF4BB0F11F460FF1BC0FA
:103AC0006F5F7F4F8F4F9F4F16C0882311F096E98D
:103AD00011C0772321F09EE8872F762F05C066233B
:103AE00071F096E8862F70E060E02AF09A95660FF4
:103AF000771F881FDAF7880F9695879597F90895AD
:103B0000990F0008550FAA0BE0E8FEEF16161706EE
:103B1000E807F907C0F012161306E407F50798F056
:103B2000621B730B840B950B39F40A2661F0232B6F
:103B3000242B252B21F408950A2609F4A140A695EB
:103B40008FEF811D811D089597F99F6780E870E0D0
:103B500060E008959FEF80EC089500240A94161603
:103B6000170618060906089500240A94121613066B
:103B7000140605060895092E0394000C11F48823F9
:103B800052F0BB0F40F4BF2B11F460FF04C06F5F15
:103B90007F4F8F4F9F4F089557FD9058440F551FEB
:103BA00059F05F3F71F04795880F97FB991F61F0BF
:103BB0009F3F79F087950895121613061406551F36
:103BC000F2CF4695F1DF08C0161617061806991FA2
:103BD000F1CF86957105610508940895E894BB2797
:103BE00066277727CB0197F908950E94801D08F476
:103BF0008FEF08950E940D1E0C94BB1D0E94AD1DF9
:103C000038F00E94B41D20F0952311F00C94A41DEF
:103C10000C94AA1D11240C94EF1D0E94CC1D70F36E
:103C2000959FC1F3950F50E0551F629FF001729F61
:103C3000BB27F00DB11D639FAA27F00DB11DAA1F70
:103C4000649F6627B00DA11D661F829F2227B00DBD
:103C5000A11D621F739FB00DA11D621F839FA00D48
:103C6000611D221F749F3327A00D611D231F849F98
:103C7000600D211D822F762F6A2F11249F575040EF
:103C80009AF0F1F088234AF0EE0FFF1FBB1F661F6A
:103C9000771F881F91505040A9F79E3F510580F033
:103CA0000C94A41D0C94EF1D5F3FE4F3983ED4F3F5
:103CB000869577956795B795F795E7959F5FC1F7D7
:103CC000FE2B880F911D9695879597F908950F9370
:103CD0001F93CF93DF938230910510F482E090E040
:103CE000E0913502F091360220E030E0A0E0B0E053
:103CF000309719F14081518102811381481759078A
:103D0000C8F08417950769F4109731F012960C9358
:103D1000129713961C9327C0009335021093360216
:103D200022C02115310519F04217530718F49A01E2
:103D3000BD01EF01DF01F801DBCF21153105F9F0FD
:103D4000281B390B2430310580F48A819B81611551
:103D5000710521F0FB019383828304C090933602A6
:103D600080933502FE01329644C0FE01E20FF31F3C
:103D70008193919322503109398328833AC020914D
:103D8000330230913402232B41F42091020130910F
:103D900003013093340220933302209100013091CB
:103DA00001012115310541F42DB73EB740910401C1
:103DB00050910501241B350BE0913302F091340240
:103DC000E217F307A0F42E1B3F0B2817390778F0F2
:103DD000AC014E5F5F4F2417350748F04E0F5F1F51
:103DE00050933402409333028193919302C0E0E0F8
:103DF000F0E0CF01DF91CF911F910F910895CF9304
:103E0000DF93009709F481C0FC013297138212827C
:103E1000A0913502B0913602109781F42081318152
:103E2000820F931F209133023091340228173907F3
:103E300051F5F0933402E093330267C0ED0120E0C6
:103E400030E0CE17DF0740F44A815B819E014115C7
:103E50005105F1F0EA01F5CFD383C283408151814E
:103E6000840F951FC817D90759F488819981840F49
:103E7000951F0296918380838A819B81938382839D
:103E80002115310529F4F0933602E09335023DC047
:103E9000E901FB83EA8349915991C40FD51FEC17BF
:103EA000FD0761F480819181840F951F0296E901DD
:103EB00099838883828193819B838A83E0E0F0E009
:103EC00012968D919C911397009719F0FD01DC01DA
:103ED000F7CF8D919C9111979D012E5F3F4F820FDF
:103EE000931F20913302309134022817390769F467
:103EF000309729F4109236021092350202C01382D4
:103F00001282B0933402A0933302DF91CF910895CF
:103F10008F929F92AF92BF92CF92DF92EF92FF92D9
:103F2000CF93DF93EC01688179818A819B81611550
:103F300071058105910521F464E279ED8BE597E047
:103F40002DE133EF41E050E00E94D61B49015A01B8
:103F50009B01AC01A7EAB1E40E94F51B6B017C0157
:103F6000ACEEB4EFA50194010E941C20DC01CB0152
:103F70008C0D9D1DAE1DBF1DB7FF03C00197A1098C
:103F8000B04888839983AA83BB83BC01CD019F7706
:103F9000DF91CF91FF90EF90DF90CF90BF90AF90E7
:103FA0009F908F9008950E94881F089586E091E069
:103FB0000E94881F08956093060170930701809303
:103FC0000801909309010895BB274A3031F49923E1
:103FD00022F4BDE2909581959F4F0C94F01FBB2772
:103FE000FB015527AA27880F991FAA1FA41710F0B5
:103FF000A41B83955051B9F7A05DAA3308F0A95DC1
:10400000A193009779F7B111B1931192CB010C9460
:104010000920DC01FC01672F71917723E1F73297CA
:1040200004C07C916D9370836291AE17BF07C8F393
:104030000895B7FF0C94F51B0E94F51B821B930B90
:064040000895F894FFCF83
:1040460000003702200001000000AC0DAC0D04009A
:104056000300020001000100000000480300000008
:1040660000C10944555041310044555041320000C9
:10407600000000AE0C610C5D0C520C560C5A0C0084
:10408600000000A7134013000000008D17D0140095
:104096000000003A183B1800000000CC18771B6F90
:0840A6001889187B182E19007F
:00000001FF
