:100000000C9434000C9451000C9451000C94510049
:100010000C9451000C9451000C9451000C9451001C
:100020000C9451000C9451000C9451000C9451000C
:100030000C9451000C94050D0C9451000C9451003B
:100040000C94A2120C9451000C9451000C94510089
:100050000C9451000C9451000C9451000C945100DC
:100060000C9451000C94510011241FBECFEFD8E026
:10007000DEBFCDBF11E0A0E0B1E0E6EFFEE202C0DE
:1000800005900D92AA34B107D9F721E0AAE4B1E0B6
:1000900001C01D92AA37B207E1F70E9450120C94DA
:1000A00079170C940000EF92FF920F931F93CF9358
:1000B000DF93CDB7DEB768970FB6F894DEBF0FBEFB
:1000C000CDBFCE0101960E94C20084E090E00E9464
:1000D00083127C0160E070E00E94FA00F0924D0112
:1000E000E0924C0186E090E00E948312FC0187E3DD
:1000F00091E0918380831582148213821282F0939F
:100100004B01E0934A018CE090E00E9483127C0155
:1001100040E650E068E770E00E940803F0924F016B
:10012000E0924E0182E190E00E9483127C010091F6
:100130004A0110914B0120914C0130914D01609189
:100140004E0170914F01AE014F5F5F4F0E940A0157
:10015000F0925101E0925001C7010E94BA026896E4
:100160000FB6F894DEBF0FBECDBFDF91CF911F91C8
:100170000F91FF90EF90089580915001909151015F
:100180000C942E02FC0180E090E0A0E2B1E48083B8
:100190009183A283B38380E090E0A8E4B2E48483F7
:1001A0009583A683B78380E090E0A0EAB0E48087DF
:1001B0009187A287B38780E090E0A0E7B3E48487CB
:1001C0009587A687B78780E090E0A0E4B3E4808BB2
:1001D000918BA28BB38B80E090E0A8ECB2E4848B8F
:1001E000958BA68BB78B0895FC0182810E948512A6
:1001F000925008952BE131E0FC0131832083738319
:100200006283089560E876E988E990E00E945F12D1
:10021000CB0108954F925F926F927F928F929F923F
:10022000AF92BF92CF92DF92EF92FF920F931F9304
:10023000CF93DF93EC014A01590138017987688730
:100240001F861E86198A188A82E090E00E94831217
:100250009D878C8788E090E00E9483128C01F401D6
:1002600060897189828993890E949A146B017C014B
:10027000F40164857585868597850E949A1421E02E
:1002800030E0A601C8010E943B12198308838BE16C
:1002900090E00E9483122C01C880D980F401E48090
:1002A000F58006811781208531854285538560E080
:1002B0000E94110E5D824C828BE190E00E948312BD
:1002C0002C01C880D980F401E480F5800681178173
:1002D0002085318542855385530161E00E94110ECE
:1002E0005F824E828EE190E00E9483125C01CC849A
:1002F000DD84EE80FF800C811D8128813981F4012D
:1003000040815181628173810E94BB11BB82AA82AC
:100310008CE090E00E9483128C01F401648975895D
:10032000868997890E949A14C8010E94840E1B87AF
:100330000A878091100190911101EC85FD859183D0
:100340008083DF91CF911F910F91FF90EF90DF900D
:10035000CF90BF90AF909F908F907F906F905F9065
:100360004F900895CF93DF93EC018E859F85680FA2
:10037000791F7F876E8788899989480F591F598B04
:10038000488B40E050E0BA018C819D810E947B0E39
:1003900040E050E0BA018E819F810E947B0E8881EF
:1003A00099810E94471297FD0196BC01759567954A
:1003B000072E000C880B990B0E94D214AB01BC01D4
:1003C0008A819B810E945D0F888199810E944B12D6
:1003D00097FD0196BC0175956795072E000C880B5B
:1003E000990B0E94D214AB01BC018A819B810E94AF
:1003F000630F0E94020164E070E00E943313BC01AD
:1004000061507109072E000C880B990B0E94D214C1
:10041000AB01BC018A819B810E94510F0E940201A5
:1004200063E070E00E943313BC0161507109072E34
:10043000000C880B990B0E94D214AB01BC018A817D
:100440009B810E94570F80910E0190910F01EC85C6
:10045000FD8591838083DF91CF910895CF93DF93C2
:10046000EC01EC85FD858081918120911401309112
:1004700015018217930729F440E050E061E070E035
:100480000BC020911201309113018217930739F4A8
:1004900041E050E060E070E0CE010E94B2018A8548
:1004A0009B850E94BB0E882309F461C088859985CD
:1004B000DC01ED91FC910480F581E02D61E070E0BC
:1004C000099588819981DC01ED91FC910190F08181
:1004D000E02D099588819981DC01ED91FC91688579
:1004E00079850280F381E02D09958C819D81DC0165
:1004F000ED91FC910190F081E02D09958E819F8115
:10050000DC01ED91FC910190F081E02D09958A814B
:100510009B81DC01ED91FC910190F081E02D09952A
:100520008C819D81DC01ED91FC916885798502804B
:10053000F381E02D09958E819F81DC01ED91FC9185
:10054000688579850280F381E02D09958A819B81F8
:10055000DC01ED91FC91688579850280F381E02DC5
:1005600009958A859B85DF91CF910C94BA0EDF9116
:10057000CF91089520910E0130910F01DC011C965E
:10058000ED91FC911D97318320830895FC018281B8
:1005900093810895FC0184819581089560E0069619
:1005A0000C94A10362E370E006960C941504CF92BC
:1005B000EF920F93CF93DF93EC010696CC2019F0C6
:1005C00032E0C32E02C0CC24CA94EE24E3940E94ED
:1005D0002506CE01DF91CF910F91EF90CF900C9433
:1005E000D202EF920F93CF93DF93EC010696EE20A9
:1005F00019F032E0E32E02C0EE24EA9401E00E94FA
:100600008406CE01DF91CF910F91EF900C94D2022E
:10061000FC01242F81E291E09183808362837383C4
:1006200044835583462F61E0CF0106960C946C03FA
:1006300020916401982F969596959695E091690181
:10064000F0916A018770629FB0011124690F711DDA
:10065000E60FF71F413061F420E830E0A90102C045
:10066000559547958A95E2F7CA019081892B19C063
:1006700041110CC02FE73FEFA90102C055954795E6
:100680008A95E2F7CA01908189230BC020E830E007
:10069000A90102C0559547958A95E2F7CA01908154
:1006A000892780830895FC011282138280E090E004
:1006B0002091640130916301239F900111248217DE
:1006C00093074CF4E0916901F0916A01E80FF91F7A
:1006D00010820196EDCF0895EF92FF921F93CF9372
:1006E000DF9300D0CDB7DEB77C01162F642F862FA5
:1006F000887FE1F0669566956695629FC00111243A
:100700002A8369830E94F415F701918380834A81CB
:100710006981009769F0128213829C01812F0E94E7
:100720004B0CC7010E94530380E003C081E001C06D
:1007300084E00F900F90DF91CF911F91FF90EF9089
:100740000895613041F028F0623099F580E090E042
:100750001BC00C945303FC011282138280E090E0D2
:100760004FEF2091640130916301239F9001112488
:1007700082179307F4F4E0916901F0916A01E80FA0
:10078000F91F40830196EDCF209164013091630100
:10079000239F90011124821793075CF4E091690173
:1007A000F0916A01E80FF91F2081209520830196BE
:1007B000EBCF089580916101909162018630914064
:1007C000F9F460915C0170915D0180915E019091FE
:1007D0005F010E94D01423E333E34EE752E40E940A
:1007E000871520E030E043E853E40E94871520E0BD
:1007F00030E04AE754E40E9428140E94A1140895AE
:1008000020915C0130915D0140915E0150915F014A
:10081000A0E0BEE40E94881328EE33E040E050E000
:100820000E944713CA01B9010895CF92DF92EF9257
:10083000FF92CF93DF93EC017B010E94DA039B01CF
:10084000AC012E0D3F1D411D511D69017A01CE01E4
:100850000E94DA036C157D058E059F05C0F3DF91BC
:10086000CF91FF90EF90DF90CF900895862F642F67
:10087000E0916401482F50E098E0E99FF0011124D5
:100880004E175F073CF490916301691718F4422FEB
:100890000C9418030895EF92FF920F93CF93DF9378
:1008A000EC01FA01D9014217530751F4202F462FCA
:1008B0006E2FDF91CF910F91FF90EF900C94360443
:1008C0002417350720F4CA019927F901DC01CF016B
:1008D000877099272FEF30E0790102C0F594E794F3
:1008E0008A95E2F79E2D83E0F695E7958A95E1F7E4
:1008F00040916401469FA0011124E40FF51FBD0142
:100900006770772702C0359527956A95E2F7322FF1
:10091000309523E0B695A7952A95E1F74A0F5B1F1E
:10092000E417F50719F4932F9E2130E00130D1F43C
:10093000DF01119668817981E60FF71F8081982B7E
:1009400090832FEF88819981A417B50730F4FC01BB
:10095000EA0FFB1F20831196F5CFA80FB91F8C91CA
:10096000382B39C001111BC0DF01119668817981D4
:10097000E60FF71F90958081982390838881998155
:10098000A417B50730F4FC01EA0FFB1F1082119683
:10099000F5CFA80FB91F30958C9138231CC00230B9
:1009A000D9F4DF01119668817981E60FF71F808104
:1009B0009827908388819981A417B50740F4FC019A
:1009C000EA0FFB1F8081809580831196F3CFA80FDB
:1009D000B91F8C9138273C93DF91CF910F91FF90F5
:1009E000EF900895EF92FF920F93CF93DF9342170A
:1009F000530741F4202FDF91CF910F91FF90EF909B
:100A00000C9436042417350720F4FA01FF27A901B6
:100A10009F01762F7770E0E8F0E002C0F595E7954A
:100A20007A95E2F7BE2F70916401749FE001759F83
:100A3000D00D11246695669566957E01E60EF11C33
:100A4000B701013091F424173507C0F1EC01E881BA
:100A5000F981E60FF71FA081AB2BA083E091640121
:100A60006E0F711D4F5F5F4FEECF011113C0E09508
:100A70002417350718F1EC01A881B981A60FB71F1B
:100A8000FC91FE23FC93F09164016F0F711D4F5F89
:100A90005F4FEECF023091F42417350778F0EC0168
:100AA000E881F981E60FF71FA081AB27A083E091D1
:100AB00064016E0F711D4F5F5F4FEECFDF91CF91DD
:100AC0000F91FF90EF9008952F923F924F925F9277
:100AD0006F927F928F929F92AF92BF92CF92DF924E
:100AE000EF92FF920F931F93CF93DF9300D000D02C
:100AF000CDB7DEB7FC01942F302F0E2DA62EB12CD2
:100B00004091640188E0489FA00111244A155B05CB
:100B10000CF484C080916301891708F47FC0A22F70
:100B2000B0E04A175B070CF479C0831708F476C06D
:100B3000621308C0232F30E0492F50E0CF010E94FC
:100B4000F2046CC0931307C09D01A501692FCF016A
:100B50000E944B0463C0892E912C261738F4A501FE
:100B60004A1B5B0B5C834B838FEF06C0AD014A19B8
:100B70005B095C834B8381E0C32ED12C391730F4A1
:100B800094012C193D0969019FEF03C0C818D908C9
:100B900091E02B813C812C153D0544F43B812C8157
:100BA000DC82CB82C32ED22E11E001C010E0CC0C2F
:100BB000DD1C26012B813C81421A530A220F331F70
:100BC000E12CF12C292E990F3308682E880F770815
:100BD0004B815C814E155F050CF1402F682D8A2DED
:100BE00029833A830E94180329813A8157FC09C05E
:100BF000113019F4A60CB71C02C0820C931C421AC7
:100C0000530A113019F4820C931C02C0A60CB71CB5
:100C10004C0C5D1C5FEFE51AF50ADACF0F900F90D0
:100C20000F900F90DF91CF911F910F91FF90EF9058
:100C3000DF90CF90BF90AF909F908F907F906F90FC
:100C40005F904F903F902F9008954F925F926F92D8
:100C50007F928F929F92AF92BF92CF92DF92EF924C
:100C6000FF920F931F93CF93DF935C01D62E142F27
:100C7000D22FC02F5E2C8FEFC816C1F0442EE02E6D
:100C8000F12CE40EF11C862E912C3401620E711CA5
:100C9000842D90E08E159F054CF40C2D9301A4013A
:100CA000642DC5010E944B044394F2CFDD0DE52C69
:100CB000012F2D2F412F6D2DC5010E946405C10FFD
:100CC0000C2F2D2D412F6D2DC5010E9464052D2F58
:100CD000412F6D2FC5010E9464052D2F4C2F6D2DC6
:100CE000C5010E946405DF91CF911F910F91FF9084
:100CF000EF90DF90CF90BF90AF909F908F907F90BC
:100D00006F905F904F9008952F923F924F925F9215
:100D10006F927F928F929F92AF92BF92CF92DF920B
:100D2000EF92FF920F931F93CF93DF93CDB7DEB770
:100D300029970FB6F894DEBF0FBECDBF5C01562ECB
:100D4000F42E922E102F30E03987288781E090E032
:100D50001C01221A330AC901919581959109FC0160
:100D6000EE0FFF1FFE83ED83FFEFEF1669F0462FB6
:100D700050E0240F351F88859985481B590B0E2D8F
:100D80006F2DC5010E944B04412F692D6F0D852DDC
:100D90000E941803412F6F2D6919852D0E94180399
:100DA000412F6F2D892D850D0E941803412F6F2D26
:100DB000852D89190E941803CC24C394D12C1C8240
:100DC000E52DF0E0FA83E983C6010197288539858E
:100DD000821793070CF098C037FC0BC021503109E3
:100DE000398728878D819E8102969E838D83280E68
:100DF000391EC601880F991F0196280E391E988545
:100E00009F0D9B83EF2DF885EF1BEF834F2C4C0C30
:100E10002FEFE21609F441C0892D90E0E885F985AD
:100E2000E817F907A9F00E2D69807A806C0C7D1CFB
:100E3000930189809A808C189D08A4016B81C5015B
:100E40000E944B049301A4016F81C5010E944B04D1
:100E5000FC818F2F90E0C816D906E9F028853985E6
:100E60002C153D05C1F00E2D89809A80820E931EAF
:100E7000940169807A8088859985681A790AA30126
:100E8000642DC5010E944B049401A3016F2D6C19C0
:100E9000C5010E944B049884CC82752C7C0C412F98
:100EA0006B81872D0E941803852C8C18412F6B8134
:100EB000882D0E941803412F6F81872D0E941803EF
:100EC000412F6F81882D0E941803412F642D788453
:100ED000750C872D0E941803412F642D852C988551
:100EE000891A882D0E9418036F2C6C18412F662DCB
:100EF000872D0E941803412F662D882D0E9418030C
:100F0000EFEFCE1ADE0A60CF29960FB6F894DEBF57
:100F10000FBECDBFDF91CF911F910F91FF90EF904A
:100F2000DF90CF90BF90AF909F908F907F906F9009
:100F30005F904F903F902F900895089520915A010F
:100F400030915B018091600190E02817390779F4B6
:100F500010926C0110926B01809166018093670181
:100F600083E598E0909357018093560116C0209135
:100F70005A0130915B0180916101909162012817C3
:100F8000390759F487ED97E0909357018093560104
:100F9000E0910A01F0910B01099580915A0190911D
:100FA0005B01019690935B0180935A010895209113
:100FB0005A0130915B018091610190916201281783
:100FC00039070CF44EC08CEA93E09093890080932B
:100FD000880010925B0110925A0180915C019091FF
:100FE0005D01A0915E01B0915F010196A11DB11D4F
:100FF00080935C0190935D01A0935E01B0935F01CB
:101000008091520190915301A0915401B0915501EA
:10101000892B8A2B8B2B09F18091520190915301DE
:10102000A0915401B0915501181619061A061B0615
:1010300084F58091520190915301A0915401B09197
:1010400055010197A109B109809352019093530171
:10105000A0935401B09355011CC01092B1002B987D
:1010600018C020915A0130915B0180916801082ECF
:10107000000C990B2817390761F48AE490E09093EB
:101080008900809388008EE997E0909357018093C0
:10109000560180915A0190915B01019690935B01FA
:1010A00080935A01089530918400209165012A505F
:1010B000231B2350F0F72D5F19F02A9511F001C082
:1010C0000000E0915801F091590109959091670154
:1010D0008091660191110FC0809367019091640126
:1010E00020916B0130916C01290F311D30936C01FF
:1010F00020936B0103C091509093670140915A0176
:1011000050915B014F5F5F4F082E000C990B0196C9
:1011100060916301689F9001699F300D1124809157
:101120006001B901680F711D4617570731F48EE948
:1011300097E0909357018093560180915A019091C6
:101140005B01019690935B0180935A0108950F9380
:10115000CF93DF93EAE5F1E0A785B089C0916B01F9
:10116000D0916C018285AC0FBD1F0BB10F7703C00E
:1011700000FA07F90BB90D90000007FA07F90BB94F
:1011800000000000000006FA07F90BB9000000009B
:10119000000005FA07F90BB900000000000004FA8E
:1011A00007F90BB900000000000003FA07F90BB9BA
:1011B00000000000000002FA07F90BB9000000006F
:1011C000000001FA07F90BB98A9591F600000000BA
:1011D00000FA07F90BB90BB10F7707FB07F90BB949
:1011E000DF91CF910F9108950F93CF93DF93EAE5AD
:1011F000F1E0A785B089C0916B01D0916C01828527
:10120000AC0FBD1F0BB10F7703C000FA07F90BB984
:101210000D9007FA07F90BB90000000006FA07F96C
:101220000BB90000000005FA07F90BB90000000037
:1012300004FA07F90BB90000000003FA07F90BB92B
:101240000000000002FA07F90BB900008A9501FAC4
:1012500007F90BB9D1F6000000FA07F90BB90BB189
:101260000F7707FB07F90BB9DF91CF910F91089525
:101270000F93CF93DF93EAE5F1E0A785B089C091A2
:101280006B01D0916C018285AC0FBD1F02C0000CB8
:101290000BB80D9000000BB800000000000C0BB85C
:1012A00000000000000C0BB800000000000C0BB8A0
:1012B00000000000000C0BB800000000000C0BB890
:1012C0000000000C8A950BB811F70000000C0BB859
:1012D0000000000000005F98DF91CF910F9108950A
:1012E0000F93CF93DF93EAE5F1E0A785B089C09132
:1012F0006B01D0916C018285AC0FBD1F8E3191F0D6
:101300008D3151F08C3149F08B3141F08A3139F017
:10131000893131F0883129F01CC032C048C05EC02C
:1013200074C08AC00D900BB80000000C0BB8000010
:10133000000C0BB80000000C0BB80000000C0BB840
:101340000000000C0BB80000000C0BB80000000CF3
:101350000BB80D900BB80000000C0BB80000000C8F
:101360000BB80000000C0BB80000000C0BB800001C
:10137000000C0BB80000000C0BB80000000C0BB800
:101380000D900BB80000000C0BB80000000C0BB85F
:101390000000000C0BB80000000C0BB80000000CA3
:1013A0000BB80000000C0BB80000000C0BB80D903F
:1013B0000BB80000000C0BB80000000C0BB80000CC
:1013C000000C0BB80000000C0BB80000000C0BB8B0
:1013D0000000000C0BB80000000C0BB80D900BB80F
:1013E0000000000C0BB80000000C0BB80000000C53
:1013F0000BB80000000C0BB80000000C0BB800008C
:10140000000C0BB80000000C0BB80D900BB80000DE
:10141000000C0BB80000000C0BB80000000C0BB85F
:101420000000000C0BB80000000C0BB80000000C12
:101430000BB80000000C0BB80D900BB80000000CAE
:101440000BB80000000C0BB80000000C0BB800003B
:10145000000C0BB80000000C0BB80000000C0BB81F
:101460000000000C0BB80D900BB80000000C0BB87E
:101470000000000C0BB80000000C0BB80000000CC2
:101480000BB80000000C0BB80000000C0BB80000FB
:10149000000C0BB80D900BB80000000C0BB800004E
:1014A000000C0BB80000000C0BB80000000C0BB8CF
:1014B0000000000C0BB80000000C0BB80000000C82
:1014C0000BB80D900BB80000000C0BB80000000C1E
:1014D0000BB80000000C0BB80000000C0BB80000AB
:1014E000000C0BB80000000C0BB80000000C0BB88F
:1014F0000D900BB80000000C0BB80000000C0BB8EE
:101500000000000C0BB80000000C0BB80000000C31
:101510000BB80000000C0BB80000000C0BB80D90CD
:101520000BB80000000C0BB80000000C0BB800005A
:10153000000C0BB80000000C0BB80000000C0BB83E
:101540000000000C0BB80000000C0BB80D900BB89D
:101550000000000C0BB80000000C0BB80000000CE1
:101560000BB80000000C0BB80000000C0BB800001A
:10157000000C0BB80000000C0BB80D900BB800006D
:10158000000C0BB80000000C0BB80000000C0BB8EE
:101590000000000C0BB80000000C0BB80000000CA1
:1015A0000BB80000000C0BB80D900BB80000000C3D
:1015B0000BB80000000C0BB80000000C0BB80000CA
:1015C000000C0BB80000000C0BB80000000C0BB8AE
:1015D0000000000C0BB80D900BB80000000C0BB80D
:1015E0000000000C0BB80000000C0BB80000000C51
:1015F0000BB80000000C0BB80000000C0BB800008A
:10160000000C0BB80D900BB80000000C0BB80000DC
:10161000000C0BB80000000C0BB80000000C0BB85D
:101620000000000C0BB80000000C0BB80000000C10
:101630000BB80D900BB80000000C0BB80000000CAC
:101640000BB80000000C0BB80000000C0BB8000039
:10165000000C0BB80000000C0BB80000000C0BB81D
:101660000D900BB80000000C0BB80000000C0BB87C
:101670000000000C0BB80000000C0BB80000000CC0
:101680000BB80000000C0BB80000000C0BB80D905C
:101690000BB80000000C0BB80000000C0BB80000E9
:1016A000000C0BB80000000C0BB80000000C0BB8CD
:1016B0000000000C0BB80000000C0BB80D900BB82C
:1016C0000000000C0BB80000000C0BB80000000C70
:1016D0000BB80000000C0BB80000000C0BB80000A9
:1016E000000C0BB80000000C0BB80D900BB80000FC
:1016F000000C0BB80000000C0BB80000000C0BB87D
:101700000000000C0BB80000000C0BB80000000C2F
:101710000BB80000000C0BB80D900BB80000000CCB
:101720000BB80000000C0BB80000000C0BB8000058
:10173000000C0BB80000000C0BB80000000C0BB83C
:101740000000000C0BB80D900BB80000000C0BB89B
:101750000000000C0BB80000000C0BB80000000CDF
:101760000BB80000000C0BB80000000C0BB8000018
:10177000000C0BB80D900BB80000000C0BB800006B
:10178000000C0BB80000000C0BB80000000C0BB8EC
:101790000000000C0BB80000000C0BB80000000C9F
:1017A0000BB80D900BB80000000C0BB80000000C3B
:1017B0000BB80000000C0BB80000000C0BB80000C8
:1017C000000C0BB80000000C0BB80000000C0BB8AC
:1017D0000D900BB80000000C0BB80000000C0BB80B
:1017E0000000000C0BB80000000C0BB80000000C4F
:1017F0000BB80000000C0BB80000000C0BB80D90EB
:101800000BB80000000C0BB80000000C0BB8000077
:10181000000C0BB80000000C0BB80000000C0BB85B
:101820000000000C0BB80000000C0BB80D900BB8BA
:101830000000000C0BB80000000C0BB80000000CFE
:101840000BB80000000C0BB80000000C0BB8000037
:10185000000C0BB80000000C0BB80D900BB800008A
:10186000000C0BB80000000C0BB80000000C0BB80B
:101870000000000C0BB80000000C0BB80000000CBE
:101880000BB80000000C0BB8000000005F98DF915F
:10189000CF910F910895CF93DF93D82FE62F3093F8
:1018A0006A0120936901609364014093630110927F
:1018B0005C0110925D0110925E0110925F01642F35
:1018C00070E0882319F084E091E002C088ED90E098
:1018D0000E943313615060936601C0916601C0930A
:1018E000670188E0E89F90011124032E000C440B4F
:1018F000550B60EE72E080E090E00E9469132430A6
:1019000061F018F4233089F00BC0253019F026302F
:1019100049F006C084EF98E00AC088E399E007C068
:10192000273018F087EA98E002C080E799E09093AA
:10193000590180935801579A219A5F98299A239ABE
:1019400082EC8093800089E1809381004091630163
:101950002C2FCC0F330B2F5F3F4F429FC001439F73
:10196000900D1124DD23C9F097FD0196959587957B
:1019700091958195910984568093600187EC8093BD
:10198000650187E08093680188E391E090936201AC
:10199000809361018FEF93E018C097FD01969595B4
:1019A00087959195819591098557809360018FEB7B
:1019B0008093650183E08093680186E091E09093D5
:1019C00062018093610187EF93E090938700809399
:1019D00086008AE490E0909389008093880080914B
:1019E000610190916201019690935B0180935A018D
:1019F00087ED97E0909357018093560181E08093A3
:101A00006F007894DF91CF9108951F920F920FB6D7
:101A10000F9211242F933F934F935F936F937F9374
:101A20008F939F93AF93BF93EF93FF93E0910C013C
:101A3000F0910D010995E0915601F091570109953A
:101A4000FF91EF91BF91AF919F918F917F916F9196
:101A50005F914F913F912F910F900FBE0F901F906C
:101A600018952F923F924F925F926F927F928F9232
:101A70009F92AF92BF92CF92EF92FF920F931F93DC
:101A8000CF93DF9300D000D0CDB7DEB77C011B0130
:101A9000DB010D911C91FC01678170858185928528
:101AA0000E949A144B015C01D70113966D917D91B0
:101AB0008D919C9116970E949A149B01AC01F7019D
:101AC000678570898189928929833A834B835C83F6
:101AD0000E949A142B013C01D70153966D917D9180
:101AE0008D919C9156970E949A14D801ED91FC918A
:101AF000CC24C394E12CF12C840129813A81A201E8
:101B0000C10109950F900F900F900F90DF91CF9129
:101B10001F910F91FF90EF90CF90BF90AF909F904B
:101B20008F907F906F905F904F903F902F9008958F
:101B3000CF92DF92EF92FF92CF93DF93EC01898DEA
:101B40009A8DDC01ED91FC910190F081E02D0995D9
:101B5000BC01990F880B990B0E94D21420E030E051
:101B600048EC52E40E9428146B877C878D879E87FF
:101B70002F85388949895A890E94B7136F87788BD6
:101B8000898B9A8B2F81388549855A850E94B71396
:101B90006B017C018F89988D0E944B12BC01990FBB
:101BA000880B990B0E94D2149B01AC01C701B601AE
:101BB0000E9482151816DCF48F89988D0E944B12B2
:101BC000BC01990F880B990B0E94D2142F81388584
:101BD00049855A850E94B61320E030E040E85FE373
:101BE0000E94B6136F87788B898B9A8B13C020E085
:101BF00030E0A9016F85788989899A890E94231428
:101C000087FF08C080E090E0A0E8BFE38F87988B53
:101C1000A98BBA8BDF91CF91FF90EF90DF90CF909F
:101C20000895AF92BF92CF92DF92EF92FF920F93FF
:101C30001F93CF93DF93EC01C601EFE2F1E0F9834C
:101C4000E8836A832B833C834D835E83EF82F8862F
:101C500009871A871B861C861D861E8600E010E0F9
:101C600020E83FE30F87188B298B3A8BD88ECF8AD9
:101C7000BA8EA98E662379F00E944712BC01990F93
:101C8000880B990B0E94D2142B813C814D815E817F
:101C90000E94B61303C060E070E0CB016B8B7C8BBD
:101CA0008D8B9E8BDF91CF911F910F91FF90EF90C5
:101CB000DF90CF90BF90AF900895FC01638574854D
:101CC000858596850895FC0163817481858196815F
:101CD0000895FC0167817085818592850895FC01D6
:101CE00067857089818992890895FC016389748967
:101CF000858996890895FC014787508B618B728B8B
:101D00000895FC01828108950F931F93CF93DF9371
:101D100000D000D0CDB7DEB78C019B01770F440B0C
:101D2000550BCA01B90129833A834B835C830E9416
:101D3000D214F801608371838283938314821582A5
:101D40001682178260E472E48FE090E029813A8184
:101D50004B815C810E946913F8012087318742879B
:101D600053870F900F900F900F90DF91CF911F919D
:101D70000F910895089581E00895CF93DF93EC01CA
:101D80000E94EC1228EE33E0629FA001639F500D89
:101D9000729F500D11242A813B81CA01821B930B33
:101DA00002979CF05B834A830E94020160E072E02C
:101DB0000E9433132C813D81821B930B60E074E001
:101DC0000E94331392509D838C838C819D81DF917F
:101DD000CF9108956F927F928F929F92AF92BF9210
:101DE000CF92DF92EF920F931F93CF93DF9300D0A8
:101DF00000D0CDB7DEB76C013B01DB01ED91FC916A
:101E00000280F381E02DEE24E39400E010E025E071
:101E100030E040E050E060E070E0C3010995F3017C
:101E200000811181D60112966D917D918D919C91C9
:101E300015970E949A149B01AC01F601628973897F
:101E40008489958929833A834B835C830E949A1401
:101E50004B015C01D6011E966D917D918D919C91F7
:101E600051970E949A14D8011296ED91FC91139704
:101E700000E010E029813A81A401C30109950F9087
:101E80000F900F900F90DF91CF911F910F91EF90D6
:101E9000DF90CF90BF90AF909F908F907F906F908A
:101EA0000895FC0146835783608771870895FC017C
:101EB00042875387648775870895FC014687578753
:101EC000608B718B0895FC01428B538B648B758BF7
:101ED00008952F923F924F925F926F927F928F92CE
:101EE0009F92AF92BF92CF92DF92EF92FF920F93A9
:101EF0001F93CF93DF93CDB7DEB728970FB6F89433
:101F0000DEBF0FBECDBF9A8389838B01DC011E9695
:101F1000CD90DD90ED90FC90519712968D909D9014
:101F2000AD90BC901597A5019401C701B6010E9420
:101F3000B7136D837E838F839887C8010E944712F1
:101F40001C01E981FA8142885388648875888281FE
:101F50009381A481B58189839A83AB83BC83A501D6
:101F60009401C701B6010E94B61320E030E0A90138
:101F70000E942314B82EBB1CBB24BB1C29813A81B0
:101F80004B815C81C301B2010E94B61320E030E0B6
:101F9000A9010E942314881F8827881FB82AB1012D
:101FA000330C880B990B0E94D2149B01AC01FF24C7
:101FB000F3946D817E818F8198850E948215181619
:101FC0000CF0F12CBF2829813A814B815C81C3013F
:101FD000B2010E94B7136B017C01C8010E944B1231
:101FE000BC01990F880B990B0E94D2149B01AC0184
:101FF00011E0C701B6010E94821518160CF010E01E
:10200000812F8B2928960FB6F894DEBF0FBECDBF67
:10201000DF91CF911F910F91FF90EF90DF90CF90C4
:10202000BF90AF909F908F907F906F905F904F90F8
:102030003F902F9008958F929F92AF92BF92EF9210
:10204000FF920F931F93CF937C018B01CB010E94D2
:10205000810E81115CC0C8010E94750E4B015C01AC
:10206000C8010E94630E9B01AC01C501B4010E942E
:10207000B7134B015C01F701228133814481558103
:1020800066857785808991890E94B6139B01AC0192
:10209000C1E0C501B4010E94821518160CF0C0E021
:1020A00080E0C82BF70182889388A488B588C8018E
:1020B0000E946F0E9B01AC01C501B4010E94821504
:1020C0001816C4F4C8010E946F0E4B015C01C801D0
:1020D0000E94690E9B01AC01C501B4010E94B713B7
:1020E00011E0F70122893389448955890E948215BC
:1020F00018160CF010E0812F8C23CF911F910F91B7
:10210000FF90EF90BF90AF909F908F900895C8017F
:102110000E94750E4B015C01F701228133814481DD
:10212000558166857785808991890E94B7139B01C7
:10213000AC01C501B4010E942314881F8827881FA1
:10214000C0E0AFCFCF93DF93EC01CB014E815F8135
:102150006885798570584E835F83688779870E9488
:102160005D0E9B01AC016A857B858C859D850E94F7
:10217000B7136A877B878C879D87DF91CF910895FE
:102180008F929F92AF92BF92CF92DF92EF92FF9287
:102190000F931F93CF93DF93EC018B018A889B8869
:1021A000AC88BD88CA80DB80EC80FD80A7019601E9
:1021B000C501B4010E94B61320E030E0A9010E94DD
:1021C000231487FF10C02A853B854C855D85DA0185
:1021D000C901B0588A879B87AC87BD87C701B60104
:1021E0000E94B61337C0A7019601C501B4010E9431
:1021F000B7136B017C01C8010E944B12BC01990FFF
:10220000880B990B0E94D2149B01AC01C701B60147
:102210000E94821518161CF58A859B85AC85BD85A4
:10222000B0588A879B87AC87BD87C8010E944B1234
:10223000BC01990F880B990B0E94D2142A813B8113
:102240004C815D810E94B6132A853B854C855D8556
:102250000E94B7136A8B7B8B8C8B9D8B3BC0CE848B
:10226000DF84E888F9888A809B80AC80BD80A501E6
:102270009401C701B6010E94B61320E030E0A90125
:102280000E94231487FF05C08091140190911501CD
:102290001DC0A5019401C701B6010E94B7136B01CF
:1022A0007C01C8010E944712BC01990F880B990B51
:1022B0000E94D2149B01AC01C701B6010E94821595
:1022C000181644F48091120190911301EC8DFD8D4C
:1022D00091838083DF91CF911F910F91FF90EF90B9
:1022E000DF90CF90BF90AF909F908F900895CF9345
:1022F000DF93EC01688D798D0E941B10882319F003
:10230000688D798D09C06A8D7B8DCE010E941B106E
:10231000882331F06A8D7B8DCE010E94A2100CC003
:102320006E897F89CE010E94690F882329F06E890A
:102330007F89CE010E94C0102E813F81488559853A
:102340006E857F85888999890E94B7136E877F87FC
:10235000888B998B2A853B854C855D856A897B892D
:102360008C899D890E94B7136A8B7B8B8C8B9D8B8C
:10237000DF91CF910895AF92BF92CF92DF92EF920B
:10238000FF920F931F93CF93DF93EC0159018DE3DD
:1023900091E0998388834A835B836C837D8380E0AB
:1023A00090E0A0E8BFEB8E839F83A887B9871A8649
:1023B0001B861C861D86C9010E94471297FD019647
:1023C000BC0175956795072E000C880B990B0E9430
:1023D000D2146E877F87888B998BC5010E944B1220
:1023E00097FD0196BC0175956795072E000C880B2B
:1023F000990B0E94D2146A8B7B8B8C8B9D8BBF8A2E
:10240000AE8A198F088FFB8EEA8EDD8ECC8EDF911F
:10241000CF911F910F91FF90EF90DF90CF90BF90E1
:10242000AF9008950895CF92EF92FF920F931F936C
:10243000CF93DF93DB01ED91FC911197EC010C81BF
:102440001D81025011092A813B81225031090190DE
:10245000F081E02DC12CE12CF12C41E050E061E055
:1024600070E0CD010995DF91CF911F910F91FF9001
:10247000EF90CF900895FC0185E491E091838083F3
:102480007383628355834483378326830895FC01D5
:10249000828193810895FC01848195810895089536
:1024A0000E94F8120E944F120E945300C0E0D0E038
:1024B0000E94BC002097E1F30E940000F9CFCF9367
:1024C000DF9300D000D0CDB7DEB79B01AC01611522
:1024D00071058105910569F069833A834B835C83BB
:1024E0000E94631729813A814B815C810E946913A4
:1024F00003C060E070E0CB010F900F900F900F9041
:10250000DF91CF9108950C94F4158E3008F08E5021
:102510002091160190E4299F900111248770822B4D
:1025200080937C0080917A00806480937A0080910F
:102530007A0086FDFCCF809178002091790090E0B0
:10254000922B08951F920F920FB60F9211242F9382
:102550003F938F939F93AF93BF9380916E01909120
:102560006F01A0917001B091710130916D0123E074
:10257000230F2D3720F40196A11DB11D05C026E8BB
:10258000230F0296A11DB11D20936D0180936E0152
:1025900090936F01A0937001B093710180917201CB
:1025A00090917301A0917401B09175010196A11DE4
:1025B000B11D8093720190937301A0937401B09345
:1025C0007501BF91AF919F918F913F912F910F9086
:1025D0000FBE0F901F9018952FB7F89460916E0161
:1025E00070916F0180917001909171012FBF0895DA
:1025F000789484B5826084BD84B5816084BD85B5DE
:10260000826085BD85B5816085BDEEE6F0E08081A4
:1026100081608083E1E8F0E01082808182608083C5
:10262000808181608083E0E8F0E080818160808348
:10263000E1EBF0E0808184608083E0EBF0E080817A
:1026400081608083EAE7F0E080818460808380811C
:1026500082608083808181608083808180688083C4
:102660001092C100089597FB072E16F4009407D02E
:1026700077FD09D00E94931307FC05D03EF4909596
:1026800081959F4F0895709561957F4F0895A1E2C0
:102690001A2EAA1BBB1BFD010DC0AA1FBB1FEE1FDC
:1026A000FF1FA217B307E407F50720F0A21BB30B27
:1026B000E40BF50B661F771F881F991F1A9469F7A3
:1026C00060957095809590959B01AC01BD01CF01FF
:1026D0000895052E97FB1EF400940E94801357FD69
:1026E00007D00E94471307FC03D04EF40C948013CC
:1026F00050954095309521953F4F4F4F5F4F08952E
:1027000090958095709561957F4F8F4F9F4F08955D
:102710000E94A713A59F900DB49F900DA49F800DBC
:10272000911D11240895AA1BBB1B51E107C0AA1FCC
:10273000BB1FA617B70710F0A61BB70B881F991F62
:102740005A95A9F780959095BC01CD010895A29F57
:10275000B001B39FC001A39F700D811D1124911D75
:10276000B29F700D811D1124911D08955058BB27F3
:10277000AA270E94CE130C9448150E943A1538F0EF
:102780000E94411520F039F49F3F19F426F40C946F
:1027900037150EF4E095E7FB0C943115E92F0E94F4
:1027A000591558F3BA17620773078407950720F085
:1027B00079F4A6F50C947B150EF4E0950B2EBA2F48
:1027C000A02D0B01B90190010C01CA01A001112437
:1027D000FF27591B99F0593F50F4503E68F11A16E3
:1027E000F040A22F232F342F4427585FF3CF469574
:1027F00037952795A795F0405395C9F77EF41F1696
:10280000BA0B620B730B840BBAF09150A1F0FF0F5F
:10281000BB1F661F771F881FC2F70EC0BA0F621F4B
:10282000731F841F48F4879577956795B795F7953B
:102830009E3F08F0B0CF9395880F08F09927EE0FD0
:102840009795879508950E940D1508F481E00895E5
:102850000E943C140C9448150E94411558F00E94A7
:102860003A1540F029F45F3F29F00C9431155111CD
:102870000C947C150C9437150E94591568F3992314
:10288000B1F3552391F3951B550BBB27AA2762176C
:102890007307840738F09F5F5F4F220F331F441F79
:1028A000AA1FA9F335D00E2E3AF0E0E832D09150AD
:1028B0005040E695001CCAF72BD0FE2F29D0660F9A
:1028C000771F881FBB1F261737074807AB07B0E8DD
:1028D00009F0BB0B802DBF01FF2793585F4F3AF0E3
:1028E0009E3F510578F00C9431150C947C155F3F98
:1028F000E4F3983ED4F3869577956795B795F79569
:102900009F5FC9F7880F911D9695879597F9089550
:10291000E1E0660F771F881FBB1F621773078407EC
:10292000BA0720F0621B730B840BBA0BEE1F88F7FB
:10293000E09508950E94A1146894B1110C947C153F
:1029400008950E94611588F09F5798F0B92F992734
:10295000B751B0F0E1F0660F771F881F991F1AF08A
:10296000BA95C9F714C0B13091F00E947B15B1E05F
:1029700008950C947B15672F782F8827B85F39F05E
:10298000B93FCCF3869577956795B395D9F73EF423
:1029900090958095709561957F4F8F4F9F4F0895CB
:1029A000E89409C097FB3EF49095809570956195E9
:1029B0007F4F8F4F9F4F9923A9F0F92F96E9BB279F
:1029C0009395F695879577956795B795F111F8CF1B
:1029D000FAF4BB0F11F460FF1BC06F5F7F4F8F4F86
:1029E0009F4F16C0882311F096E911C0772321F07C
:1029F0009EE8872F762F05C0662371F096E8862F14
:102A000070E060E02AF09A95660F771F881FDAF76A
:102A1000880F9695879597F90895990F0008550F97
:102A2000AA0BE0E8FEEF16161706E807F907C0F054
:102A300012161306E407F50798F0621B730B840B5C
:102A4000950B39F40A2661F0232B242B252B21F436
:102A500008950A2609F4A140A6958FEF811D811DD6
:102A6000089597F99F6780E870E060E008959FEF10
:102A700080EC089500240A94161617061806090615
:102A8000089500240A9412161306140605060895E4
:102A9000092E0394000C11F4882352F0BB0F40F46C
:102AA000BF2B11F460FF04C06F5F7F4F8F4F9F4FAC
:102AB000089557FD9058440F551F59F05F3F71F02E
:102AC0004795880F97FB991F61F09F3F79F0879595
:102AD0000895121613061406551FF2CF4695F1DF1E
:102AE00008C0161617061806991FF1CF86957105AE
:102AF000610508940895E894BB2766277727CB01E2
:102B000097F908950E940D1508F48FEF08950E941B
:102B10009A150C9448150E943A1538F00E944115F8
:102B200020F0952311F00C9431150C9437151124D5
:102B30000C947C150E94591570F3959FC1F3950F65
:102B400050E0551F629FF001729FBB27F00DB11D31
:102B5000639FAA27F00DB11DAA1F649F6627B00DC1
:102B6000A11D661F829F2227B00DA11D621F739FAA
:102B7000B00DA11D621F839FA00D611D221F749FB8
:102B80003327A00D611D231F849F600D211D822FFF
:102B9000762F6A2F11249F5750409AF0F1F0882326
:102BA0004AF0EE0FFF1FBB1F661F771F881F915053
:102BB0005040A9F79E3F510580F00C9431150C94BC
:102BC0007C155F3FE4F3983ED4F38695779567953F
:102BD000B795F795E7959F5FC1F7FE2B880F911D7D
:102BE0009695879597F908950F931F93CF93DF9349
:102BF0008230910510F482E090E0E0917801F0914C
:102C0000790120E030E0A0E0B0E0309719F1408198
:102C100051810281138148175907C8F0841795071D
:102C200069F4109731F012960C93129713961C9337
:102C300027C0009378011093790122C02115310536
:102C400019F04217530718F49A01BD01EF01DF0193
:102C5000F801DBCF21153105F9F0281B390B2430A1
:102C6000310580F48A819B816115710521F0FB019A
:102C70009383828304C09093790180937801FE014D
:102C8000329644C0FE01E20FF31F819391932250CC
:102C90003109398328833AC0209176013091770138
:102CA000232B41F4209102013091030130937701ED
:102CB0002093760120910001309101012115310509
:102CC00041F42DB73EB74091040150910501241BFA
:102CD000350BE0917601F0917701E217F307A0F44C
:102CE0002E1B3F0B2817390778F0AC014E5F5F4F62
:102CF0002417350748F04E0F5F1F5093770140931C
:102D000076018193919302C0E0E0F0E0CF01DF9182
:102D1000CF911F910F910895CF93DF93009709F4FE
:102D200081C0FC01329713821282A0917801B09188
:102D30007901109781F420813181820F931F2091B6
:102D40007601309177012817390751F5F093770113
:102D5000E093760167C0ED0120E030E0CE17DF0799
:102D600040F44A815B819E0141155105F1F0EA0171
:102D7000F5CFD383C28340815181840F951FC8173B
:102D8000D90759F488819981840F951F0296918300
:102D900080838A819B81938382832115310529F465
:102DA000F0937901E09378013DC0E901FB83EA8368
:102DB00049915991C40FD51FEC17FD0761F480812B
:102DC0009181840F951F0296E901998388838281FE
:102DD00093819B838A83E0E0F0E012968D919C9131
:102DE0001397009719F0FD01DC01F7CF8D919C91AD
:102DF00011979D012E5F3F4F820F931F2091760107
:102E0000309177012817390769F4309729F4109227
:102E100079011092780102C013821282B093770177
:102E2000A0937601DF91CF9108958F929F92AF92F8
:102E3000BF92CF92DF92EF92FF92CF93DF93EC019C
:102E4000688179818A819B81611571058105910570
:102E500021F464E279ED8BE597E02DE133EF41E079
:102E600050E00E94691349015A019B01AC01A7EA95
:102E7000B1E40E9488136B017C01ACEEB4EFA501B4
:102E800094010E947417DC01CB018C0D9D1DAE1DB9
:102E9000BF1DB7FF03C00197A109B048888399837C
:102EA000AA83BB83BC01CD019F77DF91CF91FF90B7
:102EB000EF90DF90CF90BF90AF909F908F9008954C
:102EC0000E941517089586E091E00E941517089555
:102ED00060930601709307018093080190930901A4
:102EE0000895B7FF0C9488130E948813821B930BDC
:062EF0000895F894FFCFE5
:102EF60000007A012000010000009D079D070400E4
:102F06000300020001000100000000F400000000C0
:102F160000D702F102CE02C602CA020000000098E3
:102F26000D310D00000000BD0E000000007711EA13
:0A2F36000E0000000012121312003A
:00000001FF
